:02000000ff00ff
:080002004c6174746963650030
:17000a00694345637562653220323032302e31322e32373934330071
:16002100506172743a206943453430554c314b2d434d33364100ff
:1a003700446174653a204d6172203220323032362031363a35333a323500b1
:0200510000ffae
:040053007eaa997e6a
:02005700510056
:0200590001059f
:03005b00920020f0
:03005e0062016fcd
:030061008200001a
:03006400720070b7
:02006700110086
:02006900010193
:20006b000000000000000000000000100000000000004000000000000100000000004000e4
:0e008b0000000000010000080000000000005e
:20009900000000000000000000000020000000000000800000000000020000000000800025
:0e00b900000000000200000000000000000037
:2000c700000000000000000000000000000000000000000001002c000000000000000000ec
:0e00e700000000000000000400000000000007
:2000f5000000000000000000000000000000000000000000000000000100000000000000ea
:0e0115000000000000000000000000040000d8
:200123000000000000000000000000000000000000000000000000000000000000000000bc
:0e014300000000000000000800f800000000ae
:2001510000000000000000000000000000000000000000000000000000000000000000008e
:0e017100000000000000000000180010000058
:20017f00000000000000000001c0000000000000000000000000000400000000000000009b
:0e019f00000000000000000000000000000052
:2001ad00000000000000000000000000000000000000000002000000000000000000000030
:0e01cd000000000000000000000040000000e4
:2001db000000000000000000000000000000000000000000000000080000000000000000fc
:0e01fb000000000000000000000020040000d2
:200209000000000000000000000000000000000000000000000000000000000000000000d5
:0e0229000000000000000000000000000000c7
:20023700000000000000000000000020000000000000000000000000030000000100000083
:0e02570000000004000000000000003800005d
:20026500000000000000000000000010000000000000000000000000010000000000000068
:0e02850000000000000000080000002c000037
:2002930000000000000000000000000000000000000000000000000000000000000000004b
:0e02b300000000080000000000001000000025
:2002c10000000000000000000000000000000000000000000000000000000000000000001d
:0e02e100000000040000000400000000000007
:2002ef000000000000000000000000000000000000000000000000000000000000000000ef
:0e030f000000000000000000000810000000c8
:20031d000000000000000000000000000000000000000000000000000000000000000000c0
:0e033d00000000040000000800700000000036
:20034b00010000000c3020000000033c0800000000000000000000000000000000000000ee
:0e036b000000000000000000000001cf0400b0
:20037900010000000c3000000000003c0000000000000000000000000000000000000000eb
:0e03990000000000000000000000010f0c003a
:2003a700000000000c302000000000000000000000000000000000000000000000000000da
:0e03c70000000000000000a000000000000088
:2003d500000000000c300000000000000000000000000000000000000000000000000000cc
:0e03f5000000000000000000000000000000fa
:20040300000000000c3020000000000000000000000000000000000000000000000000007d
:0e04230000000003728000c0020000af040859
:20043100000000000c3000000000000000000000000000000000000000000000000000006f
:0e04510000000000028000000040000f0c00c0
:20045f00010000000c30200000000000000000000000000000000000000000000000000020
:0e047f0000000000000000000060000000000f
:20048d00000000000c30000000000000000000000000000000000000000000000000000013
:0e04ad00000000000000000000000000000041
:2004bb00000000000c30200001800000000000000000000000000000000000000000000044
:0e04db000000700000000000000000000000a3
:2004e900000000000c30000000800000000000000000000000000000000000000000000037
:0e0509000000000000000000000000000000e4
:20051700000000000c30200000000000000000000000000000000000000000000000000068
:0e0537000000300000000000020601cf0400aa
:20054500000000000c30000000000000000000000000000000000000000006000000000054
:0e05650000000800000000000140000f04002c
:20057300000000000c302000000000000000000000000000000000000000014000000000cb
:0e05930000000000000000000000000000005a
:2005a100000000000c3000000000000000000000000000000000000000000080000000007e
:0e05c10000000000000000000000000000002c
:2005cf00000000000c30200000000000000000000000000000000000000000400000000070
:0e05ef0000000000000000c0000001af04008a
:2005fd00000000000c300000000000000000000000000000000000000000000000000000a2
:0e061d0000000000000000000000000f0400bc
:20062b00000000000c30200000000000000000000000000000000000000000000000000053
:0e064b000000000000000000016000cf040865
:20065900010000000c30000000000000000000000000000000000000000000000000000044
:0e06790000000000000000000000000f0c0058
:20068700000000460c302000000000000000000000000000000000000000000000000000b1
:0e06a700280000006bc100a0000001af04009d
:2006b500000002c20c30000000000000000000000000000000000000000000000000000025
:0e06d5000000000043c300000000000f0c00f6
:2006e300010000000c3020005000000000000000000000000000000000000000000000004a
:0e07030030000000000000c0000600000000f2
:20071100000000000c3000000000000000000000000000000000000000000000000000008c
:0e0731000000000000000000000000000000ba
:20073f00000000000c3020000000000000000000000000000000000000000000000000003e
:0e075f000000008000000000006001cf0400d8
:20076d00000000000c30000000000000000000000000000000000000000000000000000030
:0e078d0000000000000000000000010f04004a
:20079b00000000000c302000000000000000000000000000000000000000000000000000e2
:0e07bb000000000000000000006000000000d0
:2007c900000000000c300000000000000000000000000000000000000000000000000000d4
:0e07e900000000000000000080000000000082
:2007f700000000000c30200000000000000000000000000000000000000000000000000086
:0e0817000000000000000000000040af0400e0
:20082500000000000c30000000000000000000000000000000000000000000000000000077
:0e0845000040000000000001c002010f04008e
:20085300000000000c30200000000000000000000000000000000000000000000000000029
:0e08730000400000000000010000040a5400d4
:20088100000000000c3000000000000000000000000000000000000000000000000000001b
:0e08a10000400000000000010000000a5400aa
:2008af00000000000c302000000000000000000000000000000000000000000000000000cd
:0e08cf0030000000000000c00000000000002b
:2008dd00000000000c300000000000000000000000000000000000000000000000000000bf
:0e08fd000000000000000000000000000000ed
:20090b00000000000c302000000000000000000000000000000000000000000001c8f0c0f7
:0e092b000000000000000000000016000800a0
:20093900000000000c300000000000000000000000000000000000000000000000000f0350
:0e09590000000000000000006002c0b00000be
:20096700010000000c30200000000000000000000000000000000000000a000005c8f0c08c
:0e09870000000010000000a000001c8f0c00fb
:20099500000000000c30000000000000000000000000000000000000000000003c000f01ba
:0e09b500000000a00000000000000000f400a0
:2009c300000000000c30200000000000000000000000000000000000000c00000168f0e073
:0e09e30000000000000000000002d48f5c0045
:2009f100000000000c30000000000000000000000000000000000000000c000000000f008f
:0e0a1100000000000000000000062605fc00aa
:200a1f00000000000c30200000000000000000000000000002800000000000260468f0e077
:0e0a3f00000001a5e200000000605c8f0c00ca
:200a4d00000000000c300000000000000000000000000000010000000000003c20200f00c1
:0e0a6d0000000007f000400003420200f40009
:200a7b00000000000c302000000000000000000000000000000000000000000001e8f0c066
:0e0a9b00000050000000000000001e8f0c0044
:200aa900000000000c300000000000000000000000000000000000000000000000000f01e1
:0e0ac900000008000000000000000000f40023
:200ad700000000000c30200000000000000000000000000000000000000000000168f0c08a
:0e0af70000000000000000000000168f0c0040
:200b0500000000000c300004000000000000100000000000000000000000100000000f0160
:0e0b25000040000000000001a0000000f400ed
:200b3300000000000c30200000000000000100000000000000000000000000267168f0c096
:0e0b530000000000000000000066168f0c007d
:200b6100000000000c300004000000000000100000000000000000000000000440200f00b1
:0e0b81000040d0000000000100000200f4005f
:200b8f00000000000c302000000000000000a00000000000000100000000002061e8f0c030
:0e0baf0000000400000000c002061e8f0c00b3
:200bbd00000000000c300000000000000000400000000000000200000000000400200f0067
:0e0bdd00000000000000000100400200f400d3
:200beb000000000000000000000000000000000000000000000000000000000001c8f0c071
:0e0c0b00000001800000000000001c8f5c0053
:200c19000000000000000000000000000000000000000000000000000000000038000f0470
:0e0c3900000000e00000000000002c05fc4060
:200c4700000000000000000000000000000000200400000000000000000a000001c8f0c0e6
:0e0c670028000000000000a000001c8f5c00b0
:200c75000000000000000000000000000000001c38000000000000000000000000000f00fc
:0e0c9500000000000000000000003c05fc0014
:200ca300000000000000000000000000000000000000000000000000000400006548f0c0d0
:0e0cc300000000017141200000061c850400a5
:200cd1000000000000000000000000000000003c3c000000000000000004000020200f1028
:0e0cf100000000008141000000000205040424
:200cff00000000000000000000000000000000000078800000000000000000060548f0c0da
:0e0d1f00000000080295000002000ca0a400d5
:200d2d0000000000000000000000000000000000016b0000000000000000000020200f10db
:0e0d4d00000000030169000000400300a40044
:200d5b000000000000000000000000000000000000000000000000000000000001e8f0e0bf
:0e0d7b00000001e033c1000800005daf54002d
:200d89000000000000000000000000000000000000000000000000000000000000000f003b
:0e0da9000000000043c140000002360afc00ba
:200db700000000000000000000000000000000000000000000000000000000000168f0e0e3
:0e0dd7000000180023c1000000000000000012
:200de5000000000000000000000000000000000000000000000000000000000000000f00df
:0e0e05000000000043c10000000000000000db
:200e1300000000000000000000000000000000000000000000000000000000260168f0c080
:0e0e330000000000000000000260400000000f
:200e41000000000000000000000000000000000000000000000000000000000400200f005e
:0e0e6100000000000000000000420000000041
:200e6f000000000000000000000000000000014000000000000000000000002061e8f0c009
:0e0e8f0030000000000000c000000000000065
:200e9d000000000000000000000000000000008000000000000000000000000400200f0082
:0e0ebd00000000000000000000000000000027
:200ecb00000000000000000000001840200000062c4d8000000000000000000005c8f0c013
:0e0eeb00000080000000000402060ec8000097
:200ef9000000000000000000000b0200000000243d6f0000000000000000000038000f04b1
:0e0f1900000050000000000a03402ce8100009
:200f270000000000000002800500723c300a002000d8254280000000000a008001c8f0c059
:0e0f470028000000000000a00863eee0a000fb
:200f550000000000000000000d800003d00000043c60dac0000000000000000000000f00d3
:0e0f750000000000000000003643c70000002e
:200f830000000000000000000019523d7000009c215a800000000000000400006548f0c03e
:0e0fa3003000581f7a00005000078ce4202018
:200fb100000000000000000000089817f000003e425e0000000000000004000020200f0048
:0e0fd100300000af780040c000002d0a100074
:200fdf0000000000000000000181523c30000000064a800000180000000000260148f0c0ab
:0e0fff00000000012a00800002e07ecc548831
:20100d00000000000000000000080803d000000038df0000000000000000805c00200f10ae
:0e102d000000000d3c00000001621e9c0480cb
:20103b00000000000000000000007a3c3000008e3ece8002000000000000000001e8f0e0da
:0e105b000000800bf2910000014037c0000041
:20106900000000000000000000000003d000000262600000000000000000000000000f00c1
:0e1089000008f007b1d18408014255885000dc
:20109700000000000000000000005a3c3000001c000000000000000000000a800168f0c0b4
:0e10b700000039e00000000001c666ca1620e5
:2010c500000000000000000000000003d000000200000000000000000000040000000f1013
:0e10e50000000800000000000022040d14149a
:2010f300000000000000000001805a3c3000003e0000000000000000000004260168f0c015
:0e111300000050c0000000004866179e540403
:20112100000000000000000000000803d000001e3c000000000000000000000400000f2046
:0e1141000000d8b00000000004028ff8060085
:20114f00000000000000030008187a3c300c000038000000000000000000002061e8f0e0fa
:0e116f0030003190000000c000022d80f4001e
:20117d00000000000000000001000803d0000000400000000000000000000a0400200f00f9
:0e119d00000001900000000002402f00ac8412
:2011ab0000000000000000000000723d70000000000cf040000000000000000001c8f0c050
:0e11cb0000000013f9dc0008000026cf000031
:2011d90000000000000000000000b017f10000000010f070000000000000000000000f04bb
:0e11f90000007085e7b8400400003f0f500072
:2012070000000000000002800000723d700a00000000000000010000000a000001c8f0c098
:0e122700280000010295020000028000000075
:2012350000000000000000000000f017f000000000000000000200000000000000000f0091
:0e125500000030000295000000400000000084
:20126300000000000000000000007214100400003800000000000000000c0a0001c8554025
:0e128300180019e02bc102000000000000005e
:20129100000000000000000000000814100c0000000000000000000000040000002055008c
:0e12b1003000f00003c1000004024000000005
:2012bf00000000000000000009800000000000010000000000000000000080000000000005
:0e12df000200118dfddc00ca000000000000be
:2012ed000000000000000000010000000000000000000000000000000000400000000000a0
:0e130d000100990f77b8204400000000000096
:20131b000000000000000000000176829000000030000000000000000000000000000000f9
:0e133b0000007800000000000006c000000066
:201349000000000000000000000808029000000000000000000000000000000038000000aa
:0e1369000000000000000000000280000000f4
:2013770000000000000000000000b6bd500000000000000000010000000000000000000092
:0e139700000050b739dc800000102005a008cf
:2013a50000000000000000000000582bf000000000000000000200000000000000000000b3
:0e13c500000009d7bfb800000010240a500035
:2013d3000000000000000000098103bc140000000000000000000000000000260400000073
:0e13f300000070fff4cc00040960200a5000d6
:2014010000000000000000100108043c10100000000000000000000000000004200000002e
:0e142100000170db3bfc200a90000405a200d5
:20142f00000000000000030000000000000c0000000000000000000000000000000000008e
:0e144f00300030c5e43c400000031cca000021
:20145d0000000000000000000000000000000000000000000000000000000000000000006f
:0e147d000280d9b3a8bc0500a004350002000f
:02148b0000005f
:03148d007200905a
:02149000110148
:02149200010156
:201494000000000000000000000000100000000000004000000000000100000000004000a7
:0e14b400000000000100000400000000000025
:2014c2000000000000000000000000200000000000008000000000000200000000008000e8
:0e14e2000000000002000000000000080000f2
:2014f0000000000000000000000000000000000000000000000000000000000000000000dc
:0e1510000000000000000004000000000000c9
:20151e000000000000000000000000000000000000000000000000000000000000000000ad
:0e153e0000000000000000000000000400009b
:20154c0000000000000000000000000000000000000000000000000000000000000000007f
:0e156c00000000000000000800000040000029
:20157a00000000000000000000000000000000000000000000000000000000000000000051
:0e159a00000000000000000000000040000003
:2015a800000000000000000000000000000000000000000000000000000000000000000023
:0e15c800000000000000000800087000000095
:2015d6000000000000000000000000000000000000000000000000000000000000000000f5
:0e15f6000000000000000000003000000000b7
:201604000000000000000000000000000000000000000000000000000000000000000000c6
:0e16240000000004010000000078200000001b
:20163200000000000000000000000000000000000000000000000000000000000000000098
:0e16520000000000000000000000000000008a
:2016600000000000000000000000000000000000000000000000000000000000000000006a
:0e168000000000000000000000000004000058
:20168e00000000000000000000000000000000000000000000000000030000000000000039
:0e16ae0000000000000000000000000c000022
:2016bc00000000000000000000000000000000000000000000001c000000000000000000f2
:0e16dc000100000000000000000000000000ff
:2016ea000000000000000000000000000000000000000000000000000000000000000000e0
:0e170a000100000000000000000000000000d0
:201718000000000000000000000000000000000000000000000000000000000000000000b1
:0e17380000000004000000000000000000009f
:20174600000000000000000000000000000000000000000000000000000000000000000083
:0e176600000000000000000000000000000075
:20177400000000040c30000000000000000000000000000000000000000000000000000015
:0e179400000000000000000000000000000047
:2017a200000000200c302000000000000000000000000000000000000000000000000000ab
:0e17c20000000000000000c000000000000059
:2017d000000000140c300000000000000000000000000000000000000000000000000000a9
:0e17f0000000000000000000000000000000eb
:2017fe00000000200c3020000000000000000000000000000000000000000000000000004f
:0e181e000000000000000000000000000000bc
:20182c00000000040c300000000000000001000000000000000000000000000000100f003c
:0e184c0000000000000000000040000000004e
:20185a00000000200c3020000000000000000000000000000000000000000000000c0f20b7
:0e187a000000000000000000016000000000ff
:20188800000000000c300000000000000000000000000000000000000000000038000000cc
:0e18a800000000000000000000000cbe340034
:2018b600000000000c302000000000000000000000000000000000000000000000000000b6
:0e18d600000000000000000000002fa83600f7
:2018e400000020000c30000000000000000000000000000000000000000000000000000088
:0e190400000000000000000000400000000095
:201912000000c0000c30200000000000000000000000000000000000000000000000000099
:0e1932000000000000000000000000000000a7
:20194000000000000c3000000000000000000000000000000000000000000000000000004b
:0e1960000000000000000000a00000000000d9
:20196e00000000000c302000000000000000000000000000000000000000000000000000fd
:0e198e00000000000000004000128000000079
:20199c00000020000c30000000000000000000000000ff0040000000000000000000000090
:0e19bc00000000000000000008000000000015
:2019ca000000c0000c30200000000000000000000000ff31000000000000000000000000b1
:0e19ea0000000000000000a00000000000004f
:2019f800000000000c30000000000000000000000000000000000000000000000000000093
:0e1a1800003800000000000000000000000088
:201a2600000000000c30200000000000000000000000000000000000000000000000000044
:0e1a4600000000000000000000000000000092
:201a5400000000000c30000000000000000000000000000000000000000000000000000036
:0e1a740000000000000000000000010f040050
:201a8200000000000c302000000000000000000000000000000000000000000000000000e8
:0e1aa20000000000000000c0000001cf0400a2
:201ab000000000000c300000000000000000000000000000000000000000000000000000da
:0e1ad00000000000000000000000010f0400f4
:201ade00000000000c3020000000000000000000000000000000000000000000000000008c
:0e1afe000000000000000000000001cf040006
:201b0c00000000000c30000000000000000000000000000000000000000004000000000079
:0e1b2c0000000000000000000003810f040014
:201b3a00000000000c3020000000000000000000000000000000000000000000000000002f
:0e1b5a0000000000000000000006018f0400e3
:201b6800000000000c30000000000000000000000000000000000000000000000000000021
:0e1b880000000000000000000000010f04003b
:201b9600000000000c302000000000000000000000000000000000000000000000000000d3
:0e1bb60000000000000000000000008f04008e
:201bc400000000000c300000000000000000000000000000000000000000000000000000c5
:0e1be400000000000000000001c0000f04001f
:201bf200000000000c30200000000000000000000000000000000000000000000000000077
:0e1c12000000000000000000026001af0400ae
:201c2000000000000c30000000000000000000000000000000000000000000000000000068
:0e1c4000000000000000008000000000000016
:201c4e00000000000c3020000000000000000000000000000000000000000000000000001a
:0e1c6e00000000000000004000000000000028
:201c7c00000000000c3000000000000000000000000000000000000000000000000000000c
:0e1c9c00000000000000000000020000000038
:201caa00000000000c302000000000000000000000000000000000000000000000000000be
:0e1cca0000000000000000a00000400000002c
:201cd800000000000c300000000000000000000000000000000000000000000000000000b0
:0e1cf80000000000000000000000000f0400cb
:201d0600000000000c30200000000000000000000000000000000000000000000000000061
:0e1d26000000000000000000000601af0400f5
:201d3400000000000c30000000000000000000000000000000000000000000000000000053
:0e1d540000007090003d20000000010f040010
:201d6200000000000c30200000000000000000000000000000000000000c000000000000f9
:0e1d820030000000203d00c01400008f04005f
:201d9000000000000c300000000000000000000000000000000000000000000024000000d3
:0e1db0000000b0e0ba5920000013810f0408b3
:201dbe00000000000c302000000000000000000000000000000000000000000000000000a9
:0e1dde0000003803a25b00000000408f0400ec
:201dec00000000000c30000000000000000000000000000000000000000000000000f0604b
:0e1e0c00000001003e5904000000010f040018
:201e1a00000000000c30200000000000000000000000000002000000000000000018f04002
:0e1e3a00000001c7265b0000000001af04108d
:201e4800000000000c30000000000000000000000000000000000000000000000010f040fe
:0e1e6800000000d0ba5904000040000f040032
:201e7600000000000c30200000000000000000000000000000000000000000000008f040b8
:0e1e960000000093225b0000020000af050078
:201ea400000000000c300000000000000000000000000000000000000000000003c05a4085
:0e1ec400000000003a5900000340000f040027
:201ed200000000000c30200000000000000000000000000000000000000000000000a540af
:0e1ef20000000407265b20000006018f040498
:201f0000000000000c3000000000000000000000000000000000000000080000000000007d
:0e1f200010000000ba5900800340010f0404b5
:201f2e00000000000c30200000000000000000000000000000000000000400000000000033
:0e1f4e0030000007225b0140000000ef04009d
:201f5c00000000000c30000000000000000000000000000000000000000000040000000025
:0e1f7c00000000002659000001c0000f0608fa
:201f8a00000000000c30200000000000000000000000000000000000000a002000000000b1
:0e1faa0028000007225b20a0020000cf0400e8
:201fb800000000000c300000000000000000000000000000000200000000000000000000cb
:0e1fd800000001003a5930004002000f0400e2
:201fe600000000000c3020000000000000000000000000000004000000000000600000001b
:0e200600000001e7225b0000000641af04006d
:202014000000000000000000000000000000000000000000000000000000003c0000a04090
:0e2034000100b000ba590200080000000000d0
:20204200000000000000000000000000000c00000000000000000000000c000001daa040ab
:0e20620032808007265b00d0e44000000000c2
:202070000000000000000000000000000000100000000000000000000000103e3960a06059
:0e209000004000003a5900010000000000006e
:20209e000000000000000000000000000000000000000000000000000000001c077cf5404e
:0e20be00000030c7a25b0200004000000000de
:2020cc000000000000000000000000000000100000000000000000000000100001c055407e
:0e20ec000078b000ba590001000000000000aa
:2020fa0000000000000000000000000000000000000000000000000000001006627aa540ef
:0e211a0000008005265b0201000000000000ae
:20212800000000000000004000000000000000000000000000000000000000006150a040c6
:0e21480000000000b2590400600240000000d8
:202156000000000000000040000000000000000000000000000000000000000627c8f540ff
:0e21760000040005265b000140004000000050
:20218400000000000000000000000000000000000000000000000000000000003ae055408c
:0e21a400000000003a5920000000000000007a
:2021b2000000000000000000000000000000000000000000000000000000000e04daa5403c
:0e21d20000000005265b000040000000000039
:2021e000000000000000000000000000000000000000000000000000000c00000140a040b2
:0e220000100209902259004200001c05a41093
:20220e00000000000000000000000000000000000000000000000000000400002becf54060
:0e222e0010041997a25b20c40000000a54009f
:20223c000000000000000000000000000000000000000000000000000000000403c0554026
:0e225c00000208a0ba5b00000000000f0400a2
:20226a00000000000000000000000000000a00000000000000000000000a0020005aa540e1
:0e228a0028011801a65b00a4214001ef050009
:20229800000000000000000000000000000000000000f0c500000000000000060150a0403a
:0e22b800000094a00000080000000000fc00e0
:2022c600000000000000000000000000000000000008f041000000000000003e625cf5408e
:0e22e600000080018002000000000180f40072
:2022f40000000000000000000000000000000000002d000000000000000000000250cb0080
:0e231400003870073fb82000000000000000f5
:20232200c000000000000000000000000000060000c1008000000000000c0400005cc30263
:0e2342007000580d31dc00c0e000000000000b
:202350000100000000000000000b000000001000302e0000000000000000101c3ae0c300ea
:0e237000004090e043c10001000000000000aa
:20237e000100000000000000000100000000000401c00080000000000000002007ced3022e
:0e239e000000800023c10000000700000000c6
:2023ac0001000000000000000010000000001002402c0000000000000000100074d908001d
:0e23cc0020400080000000010400000f04000b
:2023da000100000000000000001e00000000000638c100800000000000000480257d0a0015
:0e23fa003040001000000000e00001af0400c1
:2024080000000000000000000000000000000004302a000000000000000000000000000056
:0e242800000058e7b7b84000000400000000b4
:202436000000000000000000000000000000000001c000800000000000000006000000003f
:0e245600000510cf7ddc000100070000000033
:2024640000000000000000000090000000000000000f0000000000000000000040300d003c
:0e2484000000300fb01000000020010f048097
:202492000000000000000000079e00000000001e00c00080000000000000001e61480d0251
:0e24b20000088001e000200001e0008f04001f
:2024c000c0000400000000000000000000000000000d0000000000000000002e0158740030
:0e24e00030023809400880c00000010f0400df
:2024ee004000068000000000000000000000001600400080000000000000000422c87a00ca
:0e250e001004d18f30004c40000680cf0480b6
:20251c0000000400000000000000fb7b80000002000f0000000000000000003c40dd1f48d4
:0e253c0002007087c02000000000010f0400a4
:20254a00a00006800000000000005eddc000001c0160008000000000000a0020795b07400e
:0e256a002800000b200008a0000000ef0480f5
:20257800000000010f040000000000000000000200000002000000000000003c244825015d
:0e259800000001e003d401000007810f0c8059
:2025a600000000018f040000000000000000001e006000800000000000000020714d0000a5
:0e25c600000000e5abd4000a0003008f040003
:2025d4000000000000000000000000000000000000000000000400000000001c037edd0168
:0e25f4000002b8076a3c00001800000000005a
:20260200000000000000000000000000000c00000000000000000000000c40a002fb77004c
:0e26220002017800393c00c01c40000000009e
:2026300000000000000000000d000000000000000000000000000000000000007f7fdd01a1
:0e2650000000f8037c90400001441dd52410ca
:20265e000000000000000000000000000000000000000000000000000000000021ca7700fa
:0e267e000000f1ef29d0000002469cd024009d
:20268c00000000000000000000007a7b8000001e3c00a00040000000000004003800f05003
:0e26ac000018780d0280400003422def7400ec
:2026ba00000000000000000000001e5dc00000040578a0000000000000000000040cf04064
:0e26da000000b803fbc00000020057ae34043d
:2026e8000000000000000000000000000000000002f0f06000000000000000242800000044
:0e270800000800090028000068c745c524101d
:20271600000000000000000000000000000000000258f54080000000000000000000000094
:0e2736000100180db000000006067cc0240053
:202744000000000000000000000000000000000002700f400000000000004000280000004c
:0e276400008070e7431c000010002eef740090
:2027720000000000000000000000000000000014015c0540000000000000a00028000000c9
:0e27920001008019bb9c0800006395ce360044
:2027a000000000000000000000000000000000000000000000000000000400002800f040bd
:0e27c000010050f080e00040000025fef40013
:2027ce000000000000000000000000000000001e7800000000000000000c00002818f040d9
:0e27ee0000810005e8e008c000661cce54081b
:2027fc0000000000000000000f1f0000000000044000000000000000000000020370af081f
:0e281c00000250ed02bc000016426def740485
:20282a000000000000000000080f0000000a00203800000000000000000a00040368f500a7
:0e284a0000350013fbfc80a00800158e340042
:2028580000000000000000000000000000000000015c08500000000000000080237bff008e
:0e2878000000000700280100004205eef410e9
:202886000000000000000000000000000000020060e900400000000000000140075af7000e
:0e28a600000000007014000002005cde540010
:2028b4000000000000000000000000000000400000000000000000000000000402e00a4094
:0e28d40001000080817c01000802000000006d
:2028e200c00000000000000000000000000ca0000000000000000000000c00200368504043
:0e29020030801017317c00c0156040000000ce
:202910000000000000000000000000000000000000000000000000000000000403600540fb
:0e2930000018d08103fc00000003de0fa4009d
:20293e0000000000000000000000000000000606000000000000000000000026036850c0cc
:0e295e000000018f2bdc0c0000007e8af400cc
:20296c00c0000000000000000000003d4410000000105040000000000000000002400540d3
:0e298c000000919177fc0000000000ff0000a9
:20299a0040000000000000000000533d4000000001ca50400000000000000000636850c0d7
:0e29ba000000f99177dc04000000068f080091
:2029c800000000000000000005000000000000000000000000000000000000003b4005402a
:0e29e80000001893ffc300000003c2df0000d0
:2029f6000000000000000000000000000000000000000000000800000000000007e850c0ba
:0e2a16000010981523c580020000448f0800b0
:202a2400800000000000000000000000000000000000000000000000000000006260054803
:0e2a44000400d00d6bcd4004000002ff000026
:202a5200c0000000000000000000000000000000000000000000000000000006774850c0cf
:0e2a7200040000033f4d04080000048f08001c
:202a8000000000000000000000000000000000004000000000000000000400002360054822
:0e2aa000000050e043cc0000a80000df000062
:202aae00000000000000000005800000000000007000000000000000000c0000674850c048
:0e2ace00000000003bcc0c401000068f0800fa
:202adc00000042020f54000000000000000000000010f0400100000000000000424005412a
:0e2afc000100700382840000014000ff000012
:202b0a00a00000078f54000000000000000a0000000af04002000000000a000073c850c086
:0e2b2a006a00000f7b4408a00140048f0800e1
:202b3800000000000000000000000000000000000000f0ec00000000000000000340054514
:0e2b58000002510b70000000014280000020be
:202b6600000000000000000000000000000000000008f040000000000000020003c850c03a
:0e2b86004004d8a37c04200001428400080013
:202b940000000000000000000000000000000000380c0000000000000000000403e00540b1
:0e2bb4000280d0013b740000140000000000fd
:202bc2000000000000000000000000000000000004c0008000000000000c0e2061e850c01c
:0e2be200310271ef61dc04c009400000000008
:202bf00000000000000000000000000000000002002e0000000000000000000472e00540fa
:0e2c10000200f88debb840001002000000003a
:202c1e000000000000000000000000000000000c01e0008000000000000000263d6850c04e
:0e2c3e00000090dd21dc0000c86040000000b6
:202c4c0000000000000000000000000000000000402c0000000000000000000003c00540f4
:0e2c6c000200d9fdf7fc000000003400040057
:202c7a000000000000000000000000000000000020c000800000000000000000016850c061
:0e2c9a0000005093accc0400000017e0f400e2
:202ca8000000000000000000000000000000003e382e0000000000000000000032c0054031
:0e2cc8004280700733b8000014001c0a04009c
:202cd6000000000000000000000000000000000c04e00080000000000000040005e850c06d
:0e2cf6000100000bf9dc8000080627a0a400f6
:202d04000000000000000000000000000000003c002c0000023800000000008023e0054045
:0e2d24000000090043c1200014402c000400f0
:202d320000000000000000000000000000000020006000800100000000000146054850c0dc
:0e2d5200000071c07bc1000a0a6007e0f400b7
:202d600000000000000000000000000000008000002e000000000000000c000022e0054052
:0e2d8000700000a5016900001442df0a040083
:202d8e000000000000000000000000000000401e0040008000000000000c0000654850c03e
:0e2dae00300179b8029500401e0024e0a40018
:202dbc000000000000000000000000000000a0003c0c0000000000000000a00003c0054067
:0e2ddc00400050e3bffc400017600000040000
:202dea00000000000000000000000000000040000540008000000000000a400001c850c0a1
:0e2e0a002800d809f0cc00a001401de0f40023
:202e18000000000000000000000000000000000040000002000000000000000002c005424f
:0e2e38004000000d33fc000000241c0a0400c2
:202e46000000000000000000000000000000000079600080000000000000000001c850c03a
:0e2e6600000001a1f7dc02000142a4a0a400bc
:022e740000005c
:032e760072007077
:022e7900110244
:022e7b00010153
:202e7d000000000000000000020000000000000800000000020000000000000800004000e1
:0e2e9d00000020000000000000800000000087
:202eab000000000000000000010000000000000400000000010000000000000000020000ff
:0e2ecb000000100000000000004000000000a9
:202ed9000000000000000000000000000000000000000000000000000000000000000000d9
:0e2ef9000000000000000000000000000000cb
:202f07000000000000000000000000000000000000000000000000000000000000000000aa
:0e2f270000000000000000000000000000009c
:202f350000000000000000000000000000000000000000000000000000000000000000007c
:0e2f550000000000000000000000000000006e
:202f630000000000000000000000000000000000000000000000000000000000000000004e
:0e2f8300000000000000000000000000000040
:202f9100000000000000000000000000000000000000000000000000000000000000000020
:0e2fb100000000000e00000000000000000004
:202fbf000000000000000000000000000000000000000000000000000000000000000000f2
:0e2fdf000000000001000000000000000000e3
:202fed000000000000000000000000000000000000000000000000000000000802000000ba
:0e300d000000000000000000000000000000b5
:20301b00000000000000000000000000000000000000000000000000000000000000000095
:0e303b00000000000000000000000000000087
:2030490000000000000000000000000000000000000000000000000000000000c0000000a7
:0e306900000010000000000000000000000049
:2030770000000000000000000000000000000000000000000000000000000000c000000871
:0e30970000002000000000000000000000000b
:2030a500000000000000000000000000000000000000000000000000000000000000000803
:0e30c5000000000800000000000000000000f5
:2030d3000000000000000000000000000000000000000000000000000000000000000008d5
:0e30f3000000000000000000000000000000cf
:203101000000000000000000000000000000000000000000000000000000000002000000ac
:0e3121000000000000000000000000000000a0
:20312f0000000000000000000000000000000000000000000000000000000000000000047c
:0e314f0000000004000000000000000000006e
:20315d001030c0000002000000000000000000000000000000000000000000000000000050
:0e317d00000000000000000000000000000044
:20318b000030c0000000000000000000000000000000000000000000000000000000000034
:0e31ab00000000000000000000000000000016
:2031b9001030c00000000000000000000000000000000000000000000000000000000000f6
:0e31d900000000000000000083ce05800014fe
:2031e7000030c00000000000000000000000000000000000000000000000000000000000d8
:0e3207000000000000000000c3c20000000034
:203215001030c0000000000000000000000000000000000000000000000000000000000099
:0e323500000000000000000083c60000000c36
:203243000030c000000000000000000000000000000000000000000000000000000000007b
:0e326300000000000000000083c20000000018
:203271001030c000000000000000000000000000000000000000000000000000000000003d
:0e32910000000000000000000000000000002f
:20329f000030c000000000000000000000000000000000000000000000000000000000001f
:0e32bf00000000000000000000000000000001
:2032cd001030c00000000000000000000000000000000000000000000000000000000000e1
:0e32ed000000000000000000a94010000000da
:2032fb000030c00000000000000000000000000000000000000000000000000000000000c3
:0e331b0000000000000000009680d0000000be
:203329001030c0000000000000000000000000000000000000000000000000000000000084
:0e33490000000000000000000000080000006e
:203357000030c0000000000000000000000000000000000000000000000000000000000066
:0e337700000000000000000000000100000047
:203385001030c0000000000000000000000000000000000000000000000000000000000028
:0e33a500000f07800000000083c00000000041
:2033b3000030c000000000000000000000000000000000000000000000000000000000000a
:0e33d300000f008000000000c3c000000000da
:2033e1001030c00000000000000000000000000000000000000000000000000000000000cc
:0e340100000000000000000000000000000cb1
:20340f000030c00000000000000000000000000000000000000000000000000000000000ad
:0e342f0000000000c0000000000000000000cf
:20343d001030c0800c000000000000000000000000000000000000000000000000000000e3
:0e345d00000000000000000083ce018000008f
:20346b000030c0000000000000000000000000000000000000000000000000000000000051
:0e348b00000000000000000083c005000000eb
:203499001030c0000000000000000000000000000000000000000000000000000000000013
:0e34b9000020f5800000050183c4000100140e
:2034c7000030c00000000000000000000000000000000000000000000000000000000000f5
:0e34e7000020f08000000000c3c200080000ba
:2034f5001030c00000000000000000000000000000000000000000000000000000000000b7
:0e35150000000001600003000000000a000c2e
:203523000030c0000000000000000000000000000000000000000000000000000000000098
:0e35430000000000000000000000000000007a
:203551001030c000000000000000000000000000000000000000000000000000000000005a
:0e357100000000026000000083c400000000a3
:20357f000030c000000000000000000000000000000000000000000000000000000000003c
:0e359f00000000014000000083c20000000098
:2035ad001030c00000000000000000000000000000000000000000000000000000000000fe
:0e35cd000020f5800000000083cc001a0000f2
:2035db000030c00000000000000000000000000000000000000000000000000000000000e0
:0e35fb000020f0800000000083c000000000ef
:203609001030c000000000000000000000000000000000000000000000000000000000029f
:0e362900000000000000000083c60018000032
:203637000030c0000000000000000000000000000000000000000000000000000000000083
:0e365700000000000000800083c000000200a0
:203665001030c0000000000000000000000000000000000000000000000000000000000243
:0e368500000000000000800083c4000002006e
:203693000030c0000000000000000000000000000000000000000000000000000000000027
:0e36b300000000000000800083c20000020042
:2036c1001030c00000000000000000000000000000000000000000000000000000000000e9
:0e36e1000020f5000000030083d40000000c60
:2036ef000030c00000000000000000000000000000000000000000000000000000000000cb
:0e370f000030f0800000000083c000000000c9
:20371d001030c000000000000000000000000000000000000000000000000000000000008c
:0e373d00000000006000000083c600000000d5
:20374b000030c000000000000000000000000000000000000000000000000000000000006e
:0e376b00000000000000000083c2000000000b
:203779001030c0000000000000000000000000000000000000000000000000000000000030
:0e3799000020f1800000050000000500001473
:2037a7000030c0000000000000000000000000000000000000000000000000000000000012
:0e37c7000030f0000280000000000000000052
:2037d5001030c00000000000000000000000000000000000000000000000000000000000d4
:0e37f5000060f5800000030083d4000a000c81
:203803000030c00000000000000000000000000000000000000000000000000000000000b5
:0e3823000030f0000000002083c0000a00000a
:203831001030c0000000000000000000000000000000000000000000000000000000000077
:0e3851000020f70000400000000000000140d1
:20385f000030c0000000000000000000000000000000000000000000000000000000000059
:0e387f000020f00002000000000000000080a9
:20388d001030c000000000000000000000000000000000000000000000000000000000001b
:0e38ad000020f10000280000000000000000d4
:2038bb000030c00000000000000000000000000000000000000000000000000000000000fd
:0e38db000020f080001000000000000000003f
:2038e9001030c00000000000000000000000000000000000000000000000000000000000bf
:0e39090000000000000000000000018000002f
:203917000030c0000000000000000000000000000000000000000000000000000000002080
:0e393700000000000000800000000000020000
:203945001030c0000000000000000000000000000000000000000000000000000000000062
:0e396500000000000600800083ce000002007b
:203973000030c0000000000000000000000000000000000000000000000000000000002024
:0e399300000000000000800083c2000002005f
:2039a1001030c0000000000000000000000000000000000000000000000000000000000006
:0e39c100000000000000030083d40000000c92
:2039cf000030c00000000000000000000000000000000000000000000000000000000000e8
:0e39ef00000000000000000083c00000000087
:2039fd000000000000000000000000000000000000000000000000000000000000000000aa
:0e3a1d0000000000000000000000018000001a
:203a2b0000000000000000000000000000000000000000000000000000000000000000007b
:0e3a4b0000000000000000000000000a000063
:203a590000000000000000000000000000000000000000000000000000000000000000004d
:0e3a790000000000000000000000000000142b
:203a870000000000000000000000000000000000000000000000000000000000000000001f
:0e3aa70000000000000000000000050000000c
:203ab5000000000000000000000000000000000000000000000000000000000000000000f1
:0e3ad500000000000000000083de0000000c76
:203ae3000000000000000000000000000000000000000000000000000000000000000000c3
:0e3b0300000000000000002083c2000000004f
:203b1100000000000000000000000000000000000000000000000000000000000000000094
:0e3b3100000000000000000083d601800000ac
:203b3f00000000000000000000000000000000000000000000000000000000000000000066
:0e3b5f000000000000000000c3c200000000d3
:203b6d00000000000000000000000000000000000000000000000000000000000000000038
:0e3b8d00000000000000000083c400000000e3
:203b9b0000000000000000000000000000000000000000000000000000000000000000000a
:0e3bbb00000000000000002083c20000000097
:203bc9000000000000000000000000000000000000000000000000000000000000000000dc
:0e3be900000000000000000083c6001800006d
:203bf7000000000000000000000000000000000000000000000000000000000000000000ae
:0e3c1700000000000000000083c2000000005a
:203c250000000000000000000000000000000000000000000000000000000000000000007f
:0e3c4500000000000000000083ce0000000020
:203c5300000000000000000000000000000000000000000000000000000000000000000051
:0e3c7300000000000000000083c00000000000
:203c8100000000000000000000000000000000000000000000000000000000000000000023
:0e3ca1000000000000000000a9408800400c58
:203caf000000000000000000000000000000000000000000000000000000000000000000f5
:0e3ccf000000000000000000a94001002000dd
:203cdd000000000000000000000000000000000000000000000000000000000000000000c7
:0e3cfd002080273200000000109e99880000f1
:203d0b00000000000000000000000000000000000000000000000000000000000000000098
:0e3d2b00000005b440000000203ca500000090
:203d3900000000000000000000000000000000000000000000000000000000000000000169
:0e3d5900400ff03200402500000de5810014ff
:203d67000000000000000000000000000000000000000000000000000000000000000040fc
:0e3d8700000bd37d42004000040590080000b0
:203d95000000000000000000000000000000000000000000000000000000000000300000de
:0e3db500842b07b002d0001039dea79f000853
:203dc3000000000000000000000000000000000000000000000000000000000000000000e0
:0e3de300c06400e407e000003dc2f088800ce0
:203df10000000000000000000000000000000000000000000000000000000a940000000014
:0e3e1100000f513803900010b1c5d00e000014
:203e1f00000000000000000000000000000000000000000000000000000209680e00000002
:0e3e3f00000f50c006cb0001b0c2f010000012
:203e4d00000000000000000000000000000000000000000000000000000000000000000055
:0e3e6d000000a732e2800000015ff0010000bb
:203e7b00000000000000000000000000000000000000000000000000000000000000000027
:0e3e9b00000aa0bde7c0000003c2af0e000089
:203ea9000000000000000000000000000000000000000000000000000000000000000000f9
:0e3ec9000000037400400011890ed1800040fb
:203ed7000000000000000000000000000000000000000000000000000000000000000400c7
:0e3ef70000010528038000008b03f9090080fc
:203f050000000000000000000000000000000000000000000000000000000000000010008c
:0e3f250004043734e00000003d47e1800080d6
:203f3300000000000000000000000000000000000000000000000000000000000000b000be
:0e3f5300000030ab600000803fc2a000000004
:203f6100000000000000000000000000000000000000000000000000000000000000000040
:0e3f8100c400c1e000000330a807f91f014c86
:203f8f00000000000000000000000000000000000000000000000000000000000000000012
:0e3faf00008080ab48000000b400d10d0080ff
:203fbd0000000000000000000000000000000000000000000000000000000000009800004c
:0e3fdd00004051e0064000001f8fe818000071
:203feb00000000000000000000000000000000000000000000000000000000000070000046
:0e400b00200000a5428000202fde9100000062
:204019000000000000000000000000000000000000000000000000000000083d40001009e9
:0e4039004421a3a166870500b04c81980014b5
:204047000000000000000000000000000000000000000000000000000002083c200080145f
:0e40670000aa503c000000009885b000000048
:204075000000000000000000000000000000000000000000000000000000083cc0500000d7
:0e409500800fd522c0000200a815a1980000df
:2040a3000000000000000000000000000000000000000000000000000008083c00000000b1
:0e40c3008005abb2e0000300978d939d0000d6
:2040d1000000000000000000000000000000000000000000000000000000083cc0000000cb
:0e40f100000000000000000017c4e001000005
:2040ff000000000000000000000000000000000000000000000000000002083c200000003b
:0e411f00000000034001000217c20508140052
:20412d000000000000000000000000000000000000000000000000000002083c40818000eb
:0e414d00180507a007800010040df98100007e
:20415b000000000000000000000000000000000000000000000000000000083c20100000d0
:0e417b000005000342c000000003e9890000b7
:204189000000000000000000000000000000000000000000000000000000083c6081800071
:0e41a9000404077000004000a42eb98fa0008f
:2041b7000000000000000000000000000000000000000000000000000008083c001000008c
:0e41d700000400c342c10000b006c18a00000f
:2041e5000000000000000000000000000000000000000000000000000002083ce00001c1d2
:0e4205000408136fe000000000b6a0180000cf
:204213000000000000000000000000000000000000000000000000000000083c0000000047
:0e4233000008007840070000108dd000100039
:204241000000000000000000000000000000000000000000000000000000083ce000000039
:0e426100c000000003a003308d14b818008cbc
:20426f000000000000000000000000000000000000000000000000000008083c20000000c3
:0e428f0000000000079000008201991e01004f
:02429d0000001f
:03429f007200901a
:0242a200110306
:0242a400010116
:2042a6000000000000000000020000000000000800000000020000000000000800000000e4
:0e42c60000002000000000000080000000004a
:2042d4000000000000000000010000000000000400000000010000000000000400000000c0
:0e42f4000000100000000000000000000000ac
:2043020000000000000000000000000000000000000000000000000000000000000000009b
:0e43220000000000000000000000000000008d
:2043300000000000000000000000000000000000000000000000000000000000000000006d
:0e43500000000000000000000000000000005f
:20435e0000000000000000000000000000000000000000000000000000000000000000003f
:0e437e00000000000000000000000000000031
:20438c00000000000000000000000000000000000000000000000000000000000000000011
:0e43ac00000000000000000000000000000003
:2043ba000000000000000000000000000000000000000000000000000000000000000000e3
:0e43da000000000000000000000000000000d5
:2043e8000000000000000000000000000000000000000000000000000000000000000000b5
:0e4408000000000000000000000000000000a6
:20441600000000000000000000000000000000000000000000000000000000000000000086
:0e4436000000000000000000008000000000f8
:20444400000000000000000000000000000000000000000000000000000000000000000058
:0e44640000000000000000000000000000004a
:2044720000000000000000000000000000000000000000000000000000000000000000002a
:0e44920000000000000000000000000000001c
:2044a0000000000000000000000000000000000000000000030000000000000000000000f9
:0e44c000000000000000000000c000000080ae
:2044ce000000000000000000000000000000000000000000000001c000000000000000000d
:0e44ee00000000000000000000000068000058
:2044fc000000000000000000000000000000000000000000000000000000000000000000a0
:0e451c000000000000000000000000400080d1
:20452a00000000000000000000000000000000000000000000000000000000000000000071
:0e454a00000000000000000000002000000043
:20455800000000000000000000000000000000000000000000000000000000000000000043
:0e4578000000000000000000000000000040f5
:204586000030c0000000000000000000000000000000000000000000000000000000000025
:0e45a6000020f08000004000b2dc990f000001
:2045b4001030c00000000000000000000000000000000000000000000000000000000000e7
:0e45d400c820f30000000300b04d8001000c71
:2045e2000030c00000000000000000000000000000000000000000000000000000000000c9
:0e4602000820f00000000000ab46c10a0000d6
:204610001030c000000000000000000000000000000000000000000000000000000000008a
:0e4630000020f38000000040a16fe8010000b0
:20463e000030c0000000000000000000000000000000000000000000000000000008000064
:0e465e000020f00003800000b2c4b000000095
:20466c001030c0000000000000000000000000000000000000000000000000000018000016
:0e468c000060f38066000000b06d919e00009b
:20469a000030c000000000000000000000000000000000000000000000000000000000020e
:0e46ba000020f08140000040ab45c00c000025
:2046c8001030c00000000000000000000000000000000000000000000000000000000000d2
:0e46e8003020f38200000000a177e7180000e8
:2046f6000030c00000000000000000000000000000000000000000000000000000000000b4
:0e4716000020f00000000000b2c4f50e00000c
:204724001030c0000000000000000000000000000000000000000000000000000000000075
:0e4744000120f58002800000b04d80000000d2
:204752000030c00000000000000000000000000000000000000000000000083c20000000f3
:0e4772004020f00002000100ab45c70e000021
:204780001030c00000000000000000000000000000000000000000000000183ce0000000e5
:0e47a0009020f50000400200a16cc800000847
:2047ae000030c00000000000000000000000000000000000000000000000283c2050000027
:0e47ce000000000000000000b2f4a01d00007a
:2047dc001030c00000000000000000000000000000000000000000000000483c6080000158
:0e47fc004000000000000500b04d879d001435
:20480a000030c000000000000000000000000000000000000000000000000000000000009e
:0e482a000020f08000000000ab45c000000040
:204838001030c0000000000000000000000000000000000000000000000000000000000060
:0e4858000020f10140000000a16f81880000e7
:204866000030c0000000000000000000000000000000000000000000000000000000000042
:0e4886000020f08002802000b2e6e70900006a
:204894001030c00000000000000000000000000000000000c0000000000000000000004004
:0e48b400c020f38000405300b07ce800000cf0
:2048c2000030c00000000000000000000000000000000000000000000000000000000000e6
:0e48e2000020f08002800000ab5ff7080000ad
:2048f0001030c00000000000000000000000000000000000000000000000000000000000a8
:0e4910002020f50162400000a14eeb1d0000ca
:20491e000030c00000000000000000000000000000000000000000000000183c0000c00075
:0e493e000120f00040000000b2eea00000805a
:20494c001030c00000000000000000000000000000000000000000000000083ce0018000a6
:0e496c000020f70208000000b05ce198014056
:20497a000030c00000000000000000000000000000000000000000000000083c20000000c9
:0e499a000120f00002000000ab5cf000000005
:2049a8001030c00000000000000000000000000000000000000000000000183c400000005b
:0e49c8000020f70000000000a14c871800003e
:2049d6000030c000000000000000000000002a9400000000000000000000083c20000000af
:0e49f6002020f08000001000b2f68d080000b6
:204a04001030c000000000000000000000002a9408000000000000000000083c6000000028
:0e4a24000020f70000000000b07cf801000048
:204a32000030c0000000000000000000000000000000000040000000000000000000000034
:0e4a520048a0f083c0000100ab5df90b00002e
:204a60001030c00000000000000000000000000000000000800000000000000000000000b6
:0e4a80008020f10200000200a14fe02000089b
:204a8e000030c00000000000000000000000000000000000000000000000000000b0000068
:0e4aae000020f00000000000b2de908000004a
:204abc001030c0000000000000000000000000000000000140000000000000000080000118
:0e4adc004060f30000000500b07ce70e0014ff
:204aea000030c0000000000000000000000000000000d000000000000000483c0000000068
:0e4b0a000120f00020000000ab5df000000074
:204b18001030c00000000000000000000000000000001000000000000000083ce0500000f9
:0e4b38000020f78140000000a156a188000077
:204b46000030c00000000000000000000000000000000000000000000000083c20100000eb
:0e4b6600002cb1a8c0002000b2e4f90b000042
:204b74001030c00000000000000000000000000000000000000000000000183c40f8000095
:0e4b9400c82c1bbe00001300b06ff00e000c0a
:204ba2000030c00000000000000000000000000000000000000000000000083c0000b0000f
:0e4bc200006ad7b742430000ab5ec10b000093
:204bd0001030c00000000000000000000000000000000000000000000000083ce0000000a1
:0e4bf0000028553c03800020a16c98000000b6
:204bfe000030c00000000000000000000000000000000000000000000000083c2000000043
:0e4c1e0000000002c0001000b2ccf01c0080ac
:204c2c001030c00000000000000000000000000000000000000000000000083cc0018000e3
:0e4c4c0000000003e0000000b04fe18a0040cd
:204c5a000030c00000000000000000000000000000000000000000000000000000d001c0b9
:0e4c7a00102ad77404000000ab5cc0100000cc
:204c88001030c000000000000000000000000000000000000000000000000000008000008c
:0e4ca8000028536d47000020a176b19e000049
:204cb6000030c00000000000000000000000000000000000000000000000083c200000008a
:0e4cd600002cbbaa43800000b2dc9b0a000049
:204ce4001030c00000000000000000000000000000000000000000000000283d60180000d3
:0e4d0400002c1bba00430000b04fe800000076
:204d12000030c00000000000000000000000000000000000000000000000083c20000140ec
:0e4d3200402ad7f7c2000000ab5ec30a0000a3
:204d40001030c00000000000000000000000000000000000000000000000183de00000001e
:0e4d60008028516600400200a16ff00100089b
:204d6e000030c00000000000000000000000000000000000000000000000483c200002008f
:0e4d8e00002cbbbc24000000b2f4800000002a
:204d9c001030c00000000000000000000000000000000000000000000008083de0000401c5
:0e4dbc00406c13b942000500b04ff59800148a
:204dca000030c00000000000000000000000000000000000000000000000083c0010000085
:0e4dea00002077b400000020ab5ec010000077
:204df8001030c00000000000000000000000000000000000000000000000483dc0800000d6
:0e4e18000022f7a466800000a177d5080000f4
:204e2600000000000000000000000000000000000000f000000000020000083c000800002e
:0e4e46000020f08000000000a0eca110000091
:204e54000000000000000000000000000000000000001000c00000000000083dc038000031
:0e4e7400c020f501c0000300b8f6e80a000ceb
:204e82000000000000000000000000000000000000000020000000000000083c200000206c
:0e4ea2000020f00003408000b1eda5190200d1
:204eb0000000000000000000000000000000000000000000000000000000083d603180008c
:0e4ed0000020f70000400000b074d008000081
:204ede000000000000000000000000000000000000000020000000000000083c2000002010
:0e4efe000020f00020208000b97ca50a4200b0
:204f0c000000000000000000000000000000000000000020000000000000183de0180020f8
:0e4f2c000020f181c0008000a156cd99200028
:204f3a000000000000000000000000000000000000000000000000000000083c0000000013
:0e4f5a000020f08000000000b1dca189000002
:204f68000000000000000000000000000000000000000000000000000000083d40000000a4
:0e4f88000020f38006008000b075db180200e8
:204f96000000000000000000000000000000000000000000000000000202083c0050000063
:0e4fb6000820f00000022000a0ddab0000008b
:204fc4000000000000000000000000000000000000000000000000000000183c6080000891
:0e4fe4000020f58006004000b8d6c81c1080e2
:204ff2000000000000000000000000000000000000000000400000000000083c0000e0003b
:0e5012004825a03c00000100b1e4a008000009
:205020000000000000000000000000000000000000000000800000000000183c600000003c
:0e504000802a500460000200b054d000000826
:20504e000000000000000000000000000000000000000000000000000000083c2000880056
:0e506e000020f08002340000a0f4a000180022
:20507c000000000000000000000000000000000000000001400000000000083dc001d0817c
:0e509c004020f10000500500b8f6800000141e
:2050aa000000000000000000000000000002083c00000000000000000002083c200000003a
:0e50ca000020f00040000000b1cdaf080c0047
:2050d8000000000000000000000000000000083de0000000000000000000083ce00000006f
:0e50f8000020f30200000000b075f00100007f
:205106000000000000000000000000000000000000000000000000000000083c2010000015
:0e512600002ad12004000000a0edc5100000fa
:205134000000000000000000000000000000000000000000000000000000283d408000082e
:0e515400c028537442060300b8fcdd9c108c8a
:205162000000000000000000000000000000000000000000000000000000083c00000020c9
:0e518200002cb92000038000b1cde10a02002c
:205190000000000000000000000000000000000000000000000000000002083c6000000059
:0e51b000002c19a566005000b04ee808000063
:2051be000000000000000000000000000000000000000000000000000000083c200000204d
:0e51de00002ad1a003c08000a0dcc0000200a7
:2051ec000000000000000000000000000000000000000000000000000000183c40000420eb
:0e520c000828516c00400020b8dd9708000013
:20521a000000000000000000000000000000000000000000000000000000083c00700000c0
:0e523a00002cb52d42000000b1dde50f000094
:205248000000000000000000000000000000000000000000000000000000183cc0018000b1
:0e526800002c11a600408000b06fa8190200b3
:205276000000000000000000000000000000000000000000000000000000083c200001446f
:0e529600002071a0040d0020a0c5c180000002
:2052a4000000000000000000000000000000000000000000000000000000083cc0000000e6
:0e52c4000022f72562800000b8ddfd004000ea
:2052d2000000000000000000000000000000000000000000000000000000083c2000000058
:0e52f200402cbf3804000000b1e4ed000000c5
:205300000000000000000000000000000000000000000000000000000000083de018000050
:0e532000802c19a062801200b04ec800000858
:20532e000000000000000000000000000000000000000000000000000000083c20d1000228
:0e534e00002ad1e246000800a0f5c008004089
:20535c000000000000000000000000000000000000000000000000000000183c6000a001dc
:0e537c004028553607400500b8ddb00100148a
:20538a0000000000000000000000000000000000000000000000000000000a940010000055
:0e53aa000025003a42800040b1c5ef1f000010
:2053b80000000000000000000000000000000000000000000000000000001a940880a000ff
:0e53d800002a51a403800000b04fe00800003e
:2053e6000000000000000000000000000000000000000000000000000000000000010000a6
:0e540600002cb9b84200000000000000800039
:20541400000000000000000000000000000000000000000000000000000000000001c000b7
:0e543400c02c1b760040230000000000000c7e
:205442000000000000000000000000000000000000000000000000000000083c0000000006
:0e546200002ad33643c0000000000100000005
:205470000000000000000000000000000000000000000000000000000000083cc000000018
:0e549000002859e800000000000000000000a5
:20549e000000000000000000000000000000000000000000000000000000083c00000000aa
:0e54be0000243f6406400000b2cdff00000055
:2054cc000000000000000000000000000000000000000000000000000000083d400000003b
:0e54ec00002e33b062400001b0a7a0180000ef
:2054fa000000000000000000000000000000000000000000000000000000083c200000002e
:0e551a00002ad3f6600200043de4bf0e00003c
:205528000000000000000000000000000000000000000000000000000002083c6000e000dd
:0e55480000285fb2c60000003ed6080000003a
:205556000000000000000000000000000000000000000000000000000000083c00000000f1
:0e557600002cb3aec3800002b4e6b388000080
:205584000000000000000000000000000000000000000000000000000000083d60018000e1
:0e55a400002c1b7200000000b8cc09000000b3
:2055b2000000000000000000000000000000000000000000000000000000483c2000000035
:0e55d200402ad33442000002abc3d18f000048
:2055e0000000000000000000000000000000000000000000000000000004083c4000a00083
:0e56000080285b2a0000020095548b81000078
:20560e000000000000000000000000000000000000000000000000000502083c0000000031
:0e562e00002cb7a0000000009026b00e000077
:20563c000000000000000000000000000000000000000000000000000200083de0500001d6
:0e565c00402c1371c6000500a00c00001c14a9
:20566a00000000000000000000000000000000000000000000000000000000000000000818
:0e568a00002ad3f404000002836ec700000063
:205698000000000000000000000000000000000000000000000000000000000000180010ca
:0e56b80000285be8638700018176a180000076
:2056c6000000000000000000000000000000000000000000000000000002083c200000005e
:0e56e600000000000000000083c00109000069
:2056f4000000000000000000000000000000000000000000000000000000083de010000061
:0e571400c00000000000030083de080f000c40
:205722000000000000000000000000000000000000000000000000000000083c0000000023
:0e5742000000000020000001e80381990080b3
:205750000000000000000000000000000000000000000000000000000002083d6010000082
:0e57700000000000e0000000abcff99900003f
:20577e000000000000000000000000000000000000000000000000000008083c200000009f
:0e579e0000000000024000003dc2d11040009b
:2057ac000000000000000000000000000000000000000000000000000004083dc000800054
:0e57cc0000000000004000103ece1998800042
:2057da000000000000000000000000000000000000000000000000000000283c00700000db
:0e57fa0000000003c00000800000e90900006c
:205808000000000000000000000000000000000000000000000000000002083d40000000f9
:0e5828000000000202000031101dc81900002f
:205836000000000000000000000000000000000000000000000000000002283c2000e000ec
:0e58560000000000000000000037e5001c000c
:205864000000000000000000000000000000000000000000000000000000083c6000000080
:0e5884000000000000000000042cf8002000ce
:205892000000000000000000000000000000000000000000000000000002083c0000e000d0
:0e58b200812853b40000038001430010000061
:2058c0000000000000000000000000000000000000000000000000000002083ce0000000a2
:0e58e000c065a9b000000340014fe18a00003e
:2058ee000000000000000000000000000000000000000000000000000002283c20b0000064
:0e590e0000000000000700000000c0080000bc
:20591c000000000000000000000000000000000000000000000000000000183c4080000156
:0e593c0040000001e0000500141cd001001422
:20594a000000000000000000000000000000000000000000000000000002283c20b0000007
:0e596a00000000000003000033d6b000a000d3
:205978000000000000000000000000000000000000000000000000000004283c40b80000af
:0e599800000000000000004032dcc000600093
:2059a6000000000000000000000000000000000000000000000000000000083c000000009d
:0e59c6000100233c040000023c03a10000008d
:2059d4000000000000000000000000000000000000000000000000000000083d600000000e
:0e59f400c0001780038003003d44d818000c4b
:205a0200000000000000000000000000000000000000000000000000000000000000000084
:0e5a2200000243aa40000004f6a6bf98000050
:205a3000000000000000000000000000000000000000000000000000000000000000000056
:0e5a50000005e73200000020b03ca90900006c
:205a5e000000000000000000000000000000000000000000000000000400083c2000004080
:0e5a7e00008010800001004491fcff000080b9
:205a8c000000000000000000000000000000000000000000000000000200083c601800003c
:0e5aac000400136800000020a16de000a100be
:205aba000000000000000000000000000000000000000000000000000000000000000000cc
:0e5ada00080000a9c7800020bf01af0900002e
:205ae80000000000000000000000000000000000000000000000000000000000000000009e
:0e5b08000000573006400030af15b801000015
:205b160000000000000000000000000000000000000000000000000000000000000002006d
:0e5b360000000000000020002942ef8814004b
:205b44000000000000000000000000000000000000000000000000000000000000018400bc
:0e5b64000000000003805010068eef9d000030
:205b72000000000000000000000000000000000000000000000000000002083c20000000ad
:0e5b92004005a0a8440002002802000a000cf2
:205ba0000000000000000000000000000000000000000000000000000000183ce0000000b1
:0e5bc000800a073202000304281da700000c13
:205bce000000000000000000000000000000000000000000000000000000000000d00000e7
:0e5bee00003700a1438000000000010000000d
:205bfc00000000000000000000000000000000000000000000000000000000000000000188
:0e5c1c004c2201e80040050000000f000014bb
:205c2a0000000000000000000000000000000000000000000000000000000000000000005a
:0e5c4a00000181e7600700000142b500000084
:205c580000000000000000000000000000000000000000000000000000000000000000002c
:0e5c78000002ed20460000000007b00008000a
:025c860000001c
:035c880072008027
:025c8b00110006
:035c8d0062002f83
:035c90008200008f
:025c930001030b
:065c950000000000000009
:065c9b0000000000000003
:065ca100000000000000fd
:065ca700000000000000f7
:065cad00000000000000f1
:065cb300000000000000eb
:065cb900000000000000e5
:065cbf00000000000000df
:065cc500000000000000d9
:065ccb00000000000000d3
:065cd100000000000000cd
:065cd700000000000000c7
:065cdd00000000000000c1
:065ce300000000000000bb
:065ce900000000000000b5
:065cef00000000000000af
:065cf500000000000000a9
:065cfb00000000000000a3
:065d01000000000000009c
:065d070000000000000096
:065d0d0000000000000090
:065d13000000000000008a
:065d190000000000000084
:065d1f000000000000007e
:065d250000000000000078
:065d2b0000000000000072
:065d31000000000000006c
:065d370000000000000066
:065d3d0000000000000060
:065d43000000000000005a
:065d490000000000000054
:065d4f000000000000004e
:065d550000000000000048
:065d5b0000000000000042
:065d61000000000000003c
:065d670000000000000036
:065d6d0000000000000030
:065d73000000000000002a
:065d790000000000000024
:065d7f000000000000001e
:065d850000000000000018
:065d8b0000000000000012
:065d91000000000000000c
:065d970000000000000006
:065d9d0000000000000000
:065da300000000000000fa
:065da900000000000000f4
:065daf00000000000000ee
:065db500000000000000e8
:065dbb00000000000000e2
:065dc100000000000000dc
:065dc700000000000000d6
:065dcd00000000000000d0
:065dd300000000000000ca
:065dd900000000000000c4
:065ddf00000000000000be
:065de500000000000000b8
:065deb00000000000000b2
:065df100000000000000ac
:065df700000000000000a6
:065dfd00000000000000a0
:065e030000000000000099
:065e090000000000000093
:065e0f000000000000008d
:065e150000000000000087
:065e1b0000000000000081
:065e21000000000000007b
:065e270000000000000075
:065e2d000000000000006f
:065e330000000000000069
:065e390000000000000063
:065e3f000000000000005d
:065e450000000000000057
:065e4b0000000000000051
:065e51000000000000004b
:065e570000000000000045
:065e5d000000000000003f
:065e630000000000000039
:065e690000000000000033
:065e6f000000000000002d
:065e750000000000000027
:065e7b0000000000000021
:065e81000000000000001b
:065e870000000000000015
:065e8d000000000000000f
:065e930000000000000009
:065e990000000000000003
:065e9f00000000000000fd
:065ea500000000000000f7
:065eab00000000000000f1
:065eb100000000000000eb
:065eb700000000000000e5
:065ebd00000000000000df
:065ec300000000000000d9
:065ec900000000000000d3
:065ecf00000000000000cd
:065ed500000000000000c7
:065edb00000000000000c1
:065ee100000000000000bb
:065ee700000000000000b5
:065eed00000000000000af
:065ef300000000000000a9
:065ef900000000000000a3
:065eff000000000000009d
:065f050000000000000096
:065f0b0000000000000090
:065f11000000000000008a
:065f170000000000000084
:065f1d000000000000007e
:065f230000000000000078
:065f290000000000000072
:065f2f000000000000006c
:065f350000000000000066
:065f3b0000000000000060
:065f41000000000000005a
:065f470000000000000054
:065f4d000000000000004e
:065f530000000000000048
:065f590000000000000042
:065f5f000000000000003c
:065f650000000000000036
:065f6b0000000000000030
:065f71000000000000002a
:065f770000000000000024
:065f7d000000000000001e
:065f830000000000000018
:065f890000000000000012
:065f8f000000000000000c
:025f950000000a
:035f970082008005
:025f9a00010301
:065f9c00000000000000ff
:065fa200000000000000f9
:065fa800000000000000f3
:065fae00000000000000ed
:065fb400000000000000e7
:065fba00000000000000e1
:065fc000000000000000db
:065fc600000000000000d5
:065fcc00000000000000cf
:065fd200000000000000c9
:065fd800000000000000c3
:065fde00000000000000bd
:065fe400000000000000b7
:065fea00000000000000b1
:065ff000000000000000ab
:065ff600000000000000a5
:065ffc000000000000009f
:0660020000000000000098
:0660080000000000000092
:06600e000000000000008c
:0660140000000000000086
:06601a0000000000000080
:066020000000000000007a
:0660260000000000000074
:06602c000000000000006e
:0660320000000000000068
:0660380000000000000062
:06603e000000000000005c
:0660440000000000000056
:06604a0000000000000050
:066050000000000000004a
:0660560000000000000044
:06605c000000000000003e
