:02000000ff00ff
:080002004c6174746963650030
:17000a00694345637562653220323032302e31322e32373934330071
:16002100506172743a206943453430554c314b2d434d33364100ff
:1a003700446174653a204d6179203220323032362031383a32323a313500ad
:0200510000ffae
:040053007eaa997e6a
:02005700510056
:0200590001059f
:03005b00920020f0
:03005e0062016fcd
:030061008200001a
:03006400720070b7
:02006700110086
:02006900010193
:20006b000000000000000000000000100000000000004000000000000100000000004000e4
:0e008b0000000000010000080000000000005e
:20009900000000000000000000000020000000000000800000000000020000000000800025
:0e00b90000000000020000000000000800002f
:2000c700000000000000000000000000000000000000000000000000000000000000000019
:0e00e700000000000000000400000000000007
:2000f5000000000000000000000000000000000000000000000000000000000000000000eb
:0e0115000000000000000000000000040000d8
:200123000000000000000000000000000000000000000000000000000000000000000000bc
:0e014300000000000000000800000020000086
:2001510000000000000000000000000000000000000000000000340000000000000000005a
:0e017100000000000000000000002010000050
:20017f00000000000000000000000000000000000000000000000000000000000000000060
:0e019f00000000000000000000f00000000062
:2001ad00000000000000000000000000000000000000000000000000000000000000000032
:0e01cd000000000000000000008000000000a4
:2001db00000000000000000001e00000000000000000000000000000000000000000000023
:0e01fb0000000000000000000038200000009e
:200209000000000000000000002000000000000000000000000000000000000000000000b5
:0e0229000000000000000000000000000000c7
:20023700000000000000000000000010000000000000000000000000020000000100000094
:0e025700000000040000000000000004000091
:20026500000000000000000000000030000000000000000000000000030000000000000046
:0e02850000000000000000000000000c00005f
:2002930000000000000000000000000000000000000000000000000000000000000000004b
:0e02b300000000080000000000001000000025
:2002c10000000000000000000000000000000000000000000000000000000000000000001d
:0e02e10000000004000000000000000000000b
:2002ef000000000000000000000000000000000000000000000000000000000000000000ef
:0e030f000000000000000000000000000000e0
:20031d000000000000000000000000000000000000000000000000000000000000000000c0
:0e033d000000000400000000000000000000ae
:20034b00010000000c3020000000033c0400000000000000000000000000000000000000f2
:0e036b00000000000000000000000000000084
:20037900010000000c3000000000003c0000000000000000000000000000000000000000eb
:0e039900000000000000000000000000000056
:2003a700000000000c302000000000000000000000000000000000000000000000000000da
:0e03c700000000000000000000000000000028
:2003d500000000000c300000000000000000000000000000000000000000000000000000cc
:0e03f5001000000000000000000000000000ea
:20040300000000000c30200000000000000000000000000008000000000000000000000075
:0e0423000000000000000000000000000000cb
:20043100000000000c3000000000000000000000000000000000000000000000000000006f
:0e04510000000000000000000000000000009d
:20045f00000000000c30200000000000000000000000000000000000000000000000000021
:0e047f0000000000000000000000000000006f
:20048d00000000000c30000000000000000000000000000000000000000000000000000013
:0e04ad00000000000000000000000000000041
:2004bb00000000000c30200001800000000000000000000000000000000000000000000044
:0e04db00000000000000000000000000000013
:2004e900000000000c30000000800000000000000000000000000000000000000000000037
:0e0509000000000000000000c0000000000024
:20051700000000000c3020000000003fc42000000000000000000000000000000000000045
:0e0537000000000000000000000000000000b6
:20054500000000000c3000000000003fc0000000000000000000000000000000000000005b
:0e056500000000000000000000000000000088
:20057300000000000c3020000000000000000000000000000000000000000000000000000c
:0e05930000000000000000000000000000005a
:2005a100000000000c300000000000000000000000000000000000000000000000000000fe
:0e05c10000000000000000000000000000002c
:2005cf00000000000c302000000000000000000000000000000000000000000000000000b0
:0e05ef000000000000000000000000000000fe
:2005fd00000000000c300000000000000000000000000000000000000000000000000000a2
:0e061d000000000000000000000000000000cf
:20062b00000000000c30200000000000000000000000000000000000000000000000000053
:0e064b000000000000000000000000000000a1
:20065900000000000c30000000000000000000000000000000000000000000000000000045
:0e067900000000000000000000000000000073
:20068700000000160c302000000000000000000000000000000000000000000000000000e1
:0e06a700000000000000000000000000000045
:2006b500000000000c300000000000000000000000000000000000000000000000000000e9
:0e06d500000000000000000000000000000017
:2006e300000000000c3020000000000000000000000000000000000000000000000000009b
:0e0703000000000000000000000000000000e8
:20071100000000000c3000000000000000000000000000000000000000000000000000008c
:0e0731000000000000000000000000000000ba
:20073f00000060000c302000000000000000000000000000000000000000000000000000de
:0e075f0000000000000000000000000000008c
:20076d00000020000c30000000000000000000000000000000000000000000000000000010
:0e078d0000000000000000000000000000005e
:20079b00000000000c302000000000000000000000000000000000000000000000000000e2
:0e07bb00000000000000000000000000000030
:2007c900000000000c300000000000000000000000000000000000000000000000000000d4
:0e07e900000000000000000000000000000002
:2007f700000000000c30200000000000000000000000000000000000000000000000000086
:0e0817000000000000000000000000000000d3
:20082500000000000c30000000000000000000000000000000000000000000000000000077
:0e0845000000000000000000000000000000a5
:20085300000000000c30200000000000000000000000000000000000000000000000000029
:0e087300000000000000000000000000000077
:20088100000000000c3000000000000000000000000000000000000000000000000000001b
:0e08a100000000000000000000000000000049
:2008af00000000000c302000000000000000000000000000000000000000000000000000cd
:0e08cf0000000000000000000000000000001b
:2008dd00000000000c300000000000000000000000000000000000000000000000000000bf
:0e08fd000000000000000000000000000000ed
:20090b00000000000c30200000000000000000000000000000000000000000000000000070
:0e092b00000000000000000000001c8f0c0007
:20093900000000000c30000000000000000000000000000000000000000000000000000062
:0e095900000000000000000000000000f02080
:20096700010000000c30200000000000000000000000000000000000000000000000000013
:0e09870000000007320000e000001c8f0c0092
:20099500000000000c30000000000000000000000000000000000000000000000000000006
:0e09b5000000000f3400000000000000f00001
:2009c300000000000c302000000000000000000000000000000000000000000000000000b8
:0e09e3000000000bfa0008c00006548f0c0044
:2009f100000000000c300000000000000000000000000000000000000000000000000000aa
:0e0a11000000000b0000000000020200f000d8
:200a1f00000000000c3020000000000000000000000000000000000000000000000000005b
:0e0a3f0000000000000000000060548f0c005a
:200a4d00000000000c3000000000000000000000000000000000000000000000000000004d
:0e0a6d00000000000000000000020200f00087
:200a7b00000000000c302000000000000000000000000000000000000000000000000000ff
:0e0a9b00000081a00000000000001e8f0c0073
:200aa900000000000c300000000000000000000000000000000000000000000000000000f1
:0e0ac900000050000000000000000000f000df
:200ad700000000000c302000000000000000000000000000000000000000000000000000a3
:0e0af70000005810000000000000168f0c00d8
:200b0500000000000c30000000000000000000000000000000000000000000000000000094
:0e0b2500000000a00000000000000000f00032
:200b3300000000000c30200000000000000000000000000000000000000000000000000046
:0e0b530000005810000000010260168f0c0018
:200b6100000000000c30000000000000000000000000000000000000000010000000000028
:0e0b8100004000a00000000000400200f00054
:200b8f00000000000c302000000000000000000000000000000000000000000000000000ea
:0e0baf00000080000000000002061e8f0c00f7
:200bbd00000000000c300000000000000000000000000000000000000000100000000000cc
:0e0bdd00004050000000000100400200f00047
:200beb000000000000000000000000000000000000000000000000000000000004000000e6
:0e0c0b00000000000000000000001c8f0c0024
:200c1900000000000000000000000000000000000000000000000000000000002400000097
:0e0c3900000000000000000000000000f0407d
:200c4700000000000000000000000000000000000000000000000000000e0000000000007f
:0e0c67000000018bbe0000e000001c8f0c009e
:200c750000000000000000000000000000000000000000000000000000000000000000005f
:0e0c9500000001037c00000000000000f000e1
:200ca300000000000000000000000000000000000000000000000000000000000000000031
:0e0cc30000000000000000c01006548f0c005e
:200cd100000000000000000000000000000000000000000000000000000000000000000003
:0e0cf100000000000000000008020200f000f9
:200cff000000000000000000000000000000000000000000000000000000000028000000ad
:0e0d1f0000000000000000000060548f0c0077
:200d2d00000000000000000000000000000000000000000000000000000000004000000066
:0e0d4d00000000000000000000020200f000a4
:200d5b00000000000000000000000000000000000000000000000000000000000000000078
:0e0d7b00000000100000000000001e8f0c00a1
:200d890000000000000000000000000000000000000000000000000000000000000000004a
:0e0da900000000a00000000000000000f000ac
:200db7000000000000000000000000000000000000000000000000000000000060000000bc
:0e0dd7000000d800000000000000168f0c0085
:200de5000000000000000000000000000000000000000000000000000000000000000000ee
:0e0e0500000050000000000000000000f0009f
:200e13000000000000000000000000000000000000000000000000000000000000000000bf
:0e0e33000000d9a7620000000260168f0c00bc
:200e410000000000000000028000000000000000000000000000000000000000000000000f
:0e0e6100000050077400000000400200f00086
:200e6f00000000000000000000000000000000000000000000000000000c0000065b634152
:0e0e8f00000000100000000002061e8f0c0084
:200e9d00000000000000000000000000000000000000000000000000000000002bfdc3c08a
:0e0ebd00000000a00000000000400200f00055
:200ecb00000000000000000000000000000000000000000000000000000000060000000001
:0e0eeb00000278000000000000001c8f0c00c8
:200ef9000000000000000000000000000000000000000000000000000000000200000000d7
:0e0f1900000500f00000000000000000f040a5
:200f27000000000000000000000000000000000000000000000000000000000000000000aa
:0e0f470038001187320000e000001c8f0c0003
:200f55000000000000000000000000000000000000000000000000000000003c3c00000004
:0e0f7500000009013400000000000000f00040
:200f830000000000000000000000000000000000000000000000000000000000000000004e
:0e0fa30010000009e20000c00006168f0e00cc
:200fb1000000000000000000000000000000000000000000000000000000003c3c000000a8
:0e0fd1001000000f7400000000000000f0008f
:200fdf000000000000000000000000000000000000000000000000000000000000000000f2
:0e0fff0000001800000000000260548f0c007b
:20100d000000000000000000000000000000000000000000000000000000000000000000c3
:0e102d00000000000000000003c20200f000fe
:20103b00000000000000000000000000000000000000000000000000000000000400000091
:0e105b00000081af3a94000000001e8f0e00ce
:2010690000000000000000000000000000000000000000000000000000000000280000003f
:0e108900000050a3817c200000000000f00059
:20109700000000000000000000000000000000000000000000000000000000000000000039
:0e10b70000000008682900000000168f0e00df
:2010c50000000000000000000000000000000000000000000000000000000000000000000b
:0e10e500000090070015050000000000f0005c
:2010f30000000000000000000000000000000000000000000000000000000016034b8000f9
:0e1113000000d810000000000260168f0e00d1
:20112100000000000000000000000000000000000000000000000000000000000069000045
:0e1141000000b0e00000000000400200f000de
:20114f000000000000000000000000000000000000000000000000000000000000ce800230
:0e116f00300000800000000002061e8f0e00ff
:20117d000000000000000000000000000000000000000000000000000000000000600000f2
:0e119d00000071000000000000400200f000a1
:2011ab0000000000000000000000000000000000000000000000000000000000016c054072
:0e11cb0000007083303d000000001c8f0c00ff
:2011d9000000000000000000000000000000000000000000000000000000000000000549a8
:0e11f90000000905bc35000000000000f0c039
:20120700000000000000000000000000000000000000000000000000000e000000000000b9
:0e1227003800800f73dc00e000001c8f0c000c
:20123500000000000000000000000000000000000000000000000000000000000000000099
:0e12550000001007239c000000000000f010b5
:20126300000000000000000000000000000000000000000000000000000c0000000000005f
:0e1283003100f807214000c000001c85540017
:20129100000000000000000000000000000000000000000000000000000c00000000000031
:0e12b1001000500f4000000000000205500029
:2012bf0000000000000000000000000000000000000000000000000000000000000000000f
:0e12df000000000773dc0800000000000000a3
:2012ed000000000000000000000000000000000000000000000000000000003400000000ad
:0e130d00000000d5039c00000000000000005e
:20131b000000000000000000000000000000000000000000000000000000000400000000ae
:0e133b00000019d5f0e10800000000000000dd
:20134900000000000000000000000000000000000000000000000000000000020000000082
:0e136900000001f580f100000000000000000f
:2013770000000000000000000000000000000000000000000000000000000000280000002e
:0e1397000000b9c1b8000010c0000000000046
:2013a500000000000000000000000000000000000000000000000000000000000000000028
:0e13c5000000f80940280000000000000000b1
:2013d3000000000000000040000000000000000000000000000000000000000020dc50402e
:0e13f3000000b8abbb9c080002604000000088
:201401000000000000000040000000000000000000000000000000000000000000105060cb
:0e142100020018b3c3bc00000042000000002f
:20142f00000000000000000000000000000000000000000000000000000c00000000000091
:0e144f00300001cd78e10c0400000000000028
:20145d0000000000000000000000000000000000000000000000000000000000000000006f
:0e147d000000d10d40f1000a00000000000048
:02148b0000005f
:03148d007200905a
:02149000110148
:02149200010156
:201494000000000000000000000000100000000000004000000000000100000000004000a7
:0e14b400000000000100000800000000000021
:2014c2000000000000000000000000200000000000008000000000000200000000008000e8
:0e14e2000000000002000000000000080000f2
:2014f0000000000000000000000000000000000000000000000000000000000000000000dc
:0e1510000000000000000004000000000000c9
:20151e000000000000000000000000000000000000000000000000000000000000000000ad
:0e153e0000000000000000000000000400009b
:20154c0000000000000000000000000000000000000000000000000000000000000000007f
:0e156c00000000000000000800000000000069
:20157a00000000000000000000000000000000000000000000000000000000000000000051
:0e159a00000000000000000000000010000033
:2015a800000000000000000000000000000000000000000000000000000000000000000023
:0e15c800000000000000000000000000000015
:2015d6000000000000000000000000000000000000000000000000000000000000000000f5
:0e15f6000000000000000000000000000000e7
:201604000000000000000000000000000000000000000000000000000000000000000000c6
:0e162400000000000000000000002000000098
:20163200000000000000000000000000000000000000000000000000000000000000000098
:0e16520000000000000000000000000000008a
:2016600000000000000000000000000000000000000000000000000000000000000000006a
:0e16800000000000000000000000000000005c
:20168e0000000000000000000000000000000000000000000000000001000000000000003b
:0e16ae0000000000000000000000000c000022
:2016bc00000000000000000000000000000000000000000000000000000000000006000008
:0e16dc000000000000000000001800000000e8
:2016ea000000000000000000000000000000000000000000000000000000000000000000e0
:0e170a000000000000000000000800000000c9
:201718000000000000000000000000000000000000000000000000000000000000000000b1
:0e1738000000000000000000000000000000a3
:20174600000000000000000000000000000000000000000000000e00000000000000000075
:0e17660000000000000000000038000000003d
:20177400000000000c30000000000000000000000000000000000000000000000000000019
:0e179400000000000000000000000000000047
:2017a200000000000c302000000000000000000000000000000000000000000000000000cb
:0e17c200000000000000000000000000000019
:2017d000000000000c300000000000000000000000000000000000000000000000000000bd
:0e17f0000000000000000000000000000000eb
:2017fe00000000000c3020000000000000000000000000000000000000000000000000006f
:0e181e000000000000000000000000000000bc
:20182c00000000140c3000000000000000000000000000000000000000000000000000004c
:0e184c0000000000000000000000000000008e
:20185a00000000200c302000000000000000000000000000000000000000000000000000f2
:0e187a00000000000000000000000000000060
:20188800000000000c30000000000000000000000000000000000000000000000000000004
:0e18a80000000000000000c000000000000072
:2018b600000000000c302000000000000000000000000000000000000000000000000000b6
:0e18d6000000000000000040000000000000c4
:2018e4000002c0000c300000000000000000000000000000000000000000000000000000e6
:0e19040000000000000000000000040a500077
:20191200000200000c30200000000000000000000000000000000000000000000000000057
:0e193200000000000000000000002005a000e2
:20194000000000000c3000000000000000000000000000000000000000000000000000004b
:0e196000000000000000000000000000000079
:20196e00000000000c302000000000000000000000000000000000000000000000000000fd
:0e198e0000000000000000000000000000004b
:20199c00000000000c300000000000000000000000000000000000000000000000000000ef
:0e19bc0000000000000000000000000000001d
:2019ca00000000000c302000000000000000000000000000000000000000000000000000a1
:0e19ea000000000000000000004000000000af
:2019f800000000000c30000000000000000000000000000000000000000000000000000093
:0e1a18000000000000000000001000000000b0
:201a2600000000000c30200000000000000000000000000000000000000000000000000044
:0e1a4600000000000000000000000000000092
:201a5400000000000c30000000000000000000000000000000000000000000000000000036
:0e1a7400000000000000000000000000000064
:201a8200000000000c302000000000000000000000000000000000000000000000000000e8
:0e1aa200000000000000000000000000000036
:201ab000000000000c300000000000000000000000000000000000000000000000000000da
:0e1ad000000000000000000000000000000008
:201ade00000000000c3020000000000000000000000000000000000000000000000000008c
:0e1afe000000000000000000000000000000da
:201b0c00000000000c3000000000000000000000000000000000000000000000000000007d
:0e1b2c000000000000000000000000000000ab
:201b3a00000000000c3020000000000000000000000000000000000000000000000000002f
:0e1b5a0000000000000000000000000000007d
:201b6800000000000c30000000000000000000000000000000000000000000000000000021
:0e1b880000000000000000000000000000004f
:201b9600000000000c302000000000000000000000000000000000000000000000000000d3
:0e1bb600000000000000000000000000000021
:201bc400000000000c300000000000000000000000000000000000000000000000000000c5
:0e1be4000000000000000000000000000000f3
:201bf200000000000c30200000000000000000000000000000000000000000000000000077
:0e1c12000000000000000000000000000000c4
:201c2000000000000c30000000000000000000000000000000000000000000000000000068
:0e1c4000000000000000000000000000000096
:201c4e00000000000c3020000000000000000000000000000000000000000000000000001a
:0e1c6e00000000000000000000000000000068
:201c7c00000000000c3000000000000000000000000000000000000000000000000000000c
:0e1c9c0000000000000000000000000000003a
:201caa00000000000c302000000000000000000000000000000000000000000000000000be
:0e1cca0000000000000000000000000000000c
:201cd800000000000c300000000000000000000000000000000000000000000000000000b0
:0e1cf8000000000000000000000000000000de
:201d0600000000000c30200000000000000000000000000000000000000000000000000061
:0e1d26000000000000000000000000000000af
:201d3400000000000c30000000000000000000000000000000000000000000000000000053
:0e1d5400000000000000000000000000000081
:201d6200000000000c30200000000000000000000000000000000000000000000000000005
:0e1d8200000000000000000000000000000053
:201d9000000000000c300000000000000000000000000000000000000000000000000000f7
:0e1db00000000000000000000000000f020014
:201dbe00000000000c302000000000000000000000000000000000000000000000000000a9
:0e1dde0000000000000000000000018f000067
:201dec00000000000c3000000000000000000000000000000000000000000000000000009b
:0e1e0c000000000000000000000000000000c8
:201e1a00000000000c3020000000000000000000000000000000000000000000000000004c
:0e1e3a0000000000000000000000000000009a
:201e4800000000000c3000000000000000000000000000000000000000000000000000003e
:0e1e68000000000000000080000000000000ec
:201e7600000000000c302000000000000000000000000000000000000000000000000000f0
:0e1e960000000000000000c00000000000007e
:201ea400000000000c300000000000000000000000000000000000000000000000000000e2
:0e1ec400000000000000000000100000000000
:201ed200000000000c30200000000000000000000000000000000000000000000000000094
:0e1ef2000018000000000000000000000000ca
:201f0000000000000c30000200000000000000000000000000000000000000000000000083
:0e1f20000000000000000000000000000000b3
:201f2e00000000000c30200000000000000000000000000000000000000000000000000037
:0e1f4e00000000000000000000000000000085
:201f5c00000000000c30000000000000000000000000000000000000000000000000000029
:0e1f7c00000000000000000000000000000057
:201f8a00000000000c302000000000000000000000000000000000000000000000000000db
:0e1faa000000000000000000004000000000e9
:201fb800000000000c300000000000000000000000000000000000000000000000000000cd
:0e1fd8000000000000000000000000000000fb
:201fe600000000000c3020000000000000000000000000000000000000000000000000007f
:0e2006000000000000000000000000000000cc
:202014000000000000000000000000000000000000000000000000000000000000000000ac
:0e20340000400000000000000003000000005b
:2020420000000000000000000000000000000000000000000000000000000000000000007e
:0e206200300000000000000000000000000040
:20207000000000000000000000000000000000000000000000000000000000000000000050
:0e209000004000000000000000000000000002
:20209e00000000000000000000000000000000000000000000000000000000000000000022
:0e20be00000000000000000100000000000013
:2020cc000000000000000000000000000000000000000000000000000000040000000000f0
:0e20ec000000000000000000000000000000e6
:2020fa000000000000000000000000000000000000000000000000000000000000000000c6
:0e211a000000000000000001000000000000b6
:20212800000000000000000000000000000000000000000000000000000000000000000097
:0e2148000000009000000000000000000000f9
:20215600000000000000000000000000000000000000000000000000000000000000000069
:0e21760000000000000000000000000000005b
:2021840000000000000000000000000000000000000000000000000000000000000000003b
:0e21a40000000100000000000000000000002c
:2021b20000000000000000000000000000000000000000000000000000000000000000000d
:0e21d20000000080000000000000000000007f
:2021e0000000000000000000000000000000000000000000000000000000000000000000df
:0e220000100000a00000000000000000000020
:20220e000000000000000000000000000000000000000000000000000000000000000000b0
:0e222e00300000000000000000000000000072
:20223c0000000000000000000000000000000000000000000038000000000000000000004a
:0e225c00000000000000000000000000000074
:20226a00000000000000000000000000000000000000000000000000000000000000000054
:0e228a00380050000000000000e000000000de
:20229800000000000000000000000000000000000000000000000000000000000000000026
:0e22b800000000cda43d0000014006000080a3
:2022c6000000000000000000000000000000000000000000000000000000000000000000f8
:0e22e6000000001d602d000002001f8500009a
:2022f4000000000000000000000000000000000000000000000000000000100000000000ba
:0e231400004000af40b1800100478e0204007f
:20232200000000000000000000000000000000000000000000000000000c0000000000008f
:0e2342003000001530f108c000039ea34420b7
:20235000000000000000000000000000000000000000a000000000000000100000000000bd
:0e23700000c0109d73bc00010067a4ef1000b8
:20237e0000000000000000000000000000000000004aa01000000000000000002000000025
:0e239e00010001e9af9c000002c7b5ef00008e
:2023ac000000000000000000000000000000000000000000000000000000000020000000f1
:0e23cc0000003105779c000004420de0740013
:2023da000000000000000000000000000000000000000000000000000000000000000000e3
:0e23fa00000080e3efdc00000a0045c0140084
:202408000000000000000000000000000000000000000000000000000000000000000000b4
:0e242800000011800000000000002da814002c
:20243600000000000000000000000000000000000000000000000000000000000000000086
:0e245600000001d00000000000402cb5040082
:20246400000000000000000000000000000000000000000000000000000000240000000034
:0e2484000000019b0021000000003e03c40088
:2024920000000000000000000000000000000000000000000000000000000000000000002a
:0e24b200000001937001080000660581c4302f
:2024c0000000000000000000000000000000001c0000000000000000000c01400000000093
:0e24e0003000f1c0814000c001c3050e700045
:2024ee00000000000000000000000000000000200000000000000000000c00800000000022
:0e250e003000f1d5b94020c000407f8f702012
:20251c0000000000000000000000000000000000000000000000000000000000000000009f
:0e253c000000080f6605000003c29400a00016
:20254a00000000000000000000000000000000000000000000000000000e00000000000063
:0e256a003800100b294180e002028ee00000d4
:202578000000000000000000000000000000000200000000000000000000000002c00a482d
:0e259800000000000000000000c2adb81400fa
:2025a60000000000000000000000000000000016000000000000000000000000021a054896
:0e25c600000001800000000002006df504001e
:2025d4000000000000000000000000000000000000000000000000000000000000000000e7
:0e25f40000007007c39c200060002c04f080e3
:202602000000000000000000000000000000000000000000000000000000000000000000b8
:0e262200300281a3fbdc08c004002188f220f6
:202630000000000000000000000000000000000000000000000000000000000032d0000088
:0e2650000000d08500000000000605bfe0007d
:20265e000000000000000000000000000000000000000000000000000000000002cc50003e
:0e267e000038001fe94000000003ceeff0001e
:20268c00000000000000000000000000000000000000000000000000000000003d4f0000a2
:0e26ac00000070f7f3c1000001c00d00648053
:2026ba0000000000000000000000000000000000000000000000000000000000044a0800aa
:0e26da00000080096b410000206220e0942087
:2026e8000000000000000000000000000000000000000000000000000000000200000000d0
:0e270800000008f963c1040000024e0ff0004b
:202716000000000000000000000000000000000000000000000000000000001c380000004f
:0e27360000001817e341000000067cafa00071
:20274400000000000000000000000000000000000000000000000000000000002000000055
:0e2764000000900f01400100004267d02400e9
:20277200000000000000000000000000000000000000000000000000000000000400000043
:0e279200000098a06280000002004cea1400d3
:2027a000000000000000000000000000000000000000000000000000000000347400000071
:0e27c000100050093161000001400500448006
:2027ce00000000000000000000000000000000000000000000000000000000047c0000006b
:0e27ee00300080012d690000000637a0c420d5
:2027fc00000000000000000000000000000000000000000000000000000000003f7be7001c
:0e281c000000910000000000014014f1c00017
:20282a00000000000000000000000000000000000000000000000000000000000159f7003d
:0e284a0038008180000000e0e00001c2c00004
:202858000000000000000000000000000000000000000000000000000000001c00205504cb
:0e2878000000f0b000000000004004f0858079
:20288600000000000000000000000000000000000000000000000000000000200148550074
:0e28a6000000580000000000020297c344002a
:2028b4000000000000000000000000000000000000000000000000000000001400200f00c1
:0e28d40080025809c30c00040002b60c30004c
:2028e200000000000000000000000000000000000000000000000000000000200048f080fe
:0e2902003005b803ab0808c20002f58c202097
:202910000000000000000000000000000000000000000000000000000000001c00000f007c
:0e29300080080007830c000000030f0c10004d
:20293e00000000000000000000000000000000000000000000000000000000006948f08058
:0e295e00008000e97a0c080000003c8c30205c
:20296c000000000000000000000000000000000000000000000000000000400000000f00fc
:0e298c00800008a74168000000427caa1000ed
:20299a000000000000000000000000000000000000000000000000000000a0000068f080a5
:0e29ba0000005009a94000000202a195200073
:2029c8000000000000000002800000000000000000000000000000000000000000200f003e
:0e29e800402890014281000000002500b480cc
:2029f600000000000000000000000000000000000000000000000000000000000048f08009
:0e2a16000000800869418000000037e0963023
:202a24000000000000000000000000000000000000000000000000000000000000200f0063
:0e2a4400403010a5002904000042ed9ff00074
:202a5200000000000000000000000000000000000000000000000000000000002968f08063
:0e2a72000000800860150000020025dfe00073
:202a80000000000000000000000000000000000000000000000000000000002c00000f20db
:0e2aa000300090010200000000002786700444
:202aae000000000000000000000000000000000000000000000000000000002001c8f080af
:0e2ace0030008189a80008000002a7c5b000f2
:202adc000000000000000000000000000000000000000000000000000000001424200f0073
:0e2afc000000f803000000000143270300045f
:202b0a000000000000000000000000000000000000000000000000000000000005c8f0806e
:0e2b2a0038007009320008e00202ff8b102014
:202b380000000000000000000000000000000000000000000000000000000000280900004c
:0e2b58000000510d0014000000400100501458
:202b66000000000000000000000000000000000000000000000000000000000029e10080c5
:0e2b86000000018068280000060296805000c2
:202b940000000000000000000000000000000000000000000000000000000002000050408f
:0e2bb400000000908015000001e2bfa2540056
:202bc200000000000000000000000000000000000000000000000000000c000e007e5041ca
:0e2be200b0000015b81504c0004037c4040848
:202bf000000000000000000000000000000000000000000000000000000001400000000084
:0e2c1000000100072e050400000347be50849b
:202c1e00000000000000000000000000000000000000000000000000000000860000000010
:0e2c3e0000007800010904000007ff8f50001d
:202c4c00000000000000000000000000000000000000000000000000000006000000000062
:0e2c6c000000000003e8200001c2540f801495
:202c7a000000000000000000000000000000000000000000000000000000000068000000d2
:0e2c9a00028000013be88000020601ef40309e
:202ca800000000000000000000000000000000000000000000000000000000002050a040bc
:0e2cc800000200f00000000001c02d0af20022
:202cd600000000000000000000000000000000000000000000000000000000000208504044
:0e2cf6004200180000000000000021c5f000a0
:202d040000000000000000000000000000000000000000000000000000000000001050400f
:0e2d2400400000004141010000023e02440454
:202d320000000000000000000000000000000000000000000000000000000000607a504017
:0e2d5200000000e721410000000675864428bd
:202d6000000000000000000000000000000000000000000000000000000400140040a54016
:0e2d800010000007028101000340060a500007
:202d8e00000000000000000000000000000000000000000000000000000c00000340004096
:0e2dae003000018031410000000616ae5020ba
:202dbc000000000000000000000000000000000000000000000000000000003c001050411a
:0e2ddc000000000f0029010003429cfa500085
:202dea00000000000000000000000000000000000000000000000000000e002000685040a3
:0e2e0a0038000008381500e00007eec2500046
:202e180000000000000000000000000000000000000000000000000000000000227e0000fa
:0e2e3800000470896c00000001c026f000004c
:202e460000000000000000000000000000000000000000000000000000000000645c0800a4
:0e2e6600000280137820000002003de0800092
:022e740000005c
:032e760072007077
:022e7900110244
:022e7b00010153
:202e7d00000000000000000002000000000000080000000002000000000000080000000021
:0e2e9d00000020000000000000800000000087
:202eab000000000000000000010000000000000400000000010000000000000400000000fd
:0e2ecb000000100000000000004000000000a9
:202ed9000000000000000000000000000000000000000000000000000000000000000000d9
:0e2ef9000000000000000000000000000000cb
:202f07000000000000000000000000000000000000000000000000000000000000000000aa
:0e2f270000000000000000000000000000009c
:202f350000000000000000000000000000000000000000000000000000000000000000007c
:0e2f550000000000010000000000000000006d
:202f630000000000000000000000000000000000000000000000000000000000000000004e
:0e2f8300000000000d00000000000000000033
:202f9100000000000000000000000000000000000000000000000000000000000000000020
:0e2fb100000000000000000000000000000012
:202fbf000000000000000000000000000000000000000000000000000000000000000000f2
:0e2fdf000000000000000000000000000000e4
:202fed000000000000000000000000000000000000000000000000000000000000000000c4
:0e300d00000000000000000000802000000015
:20301b00000000000000000000000000000000000000000000000000000000000000000095
:0e303b00000000000000000000000000000087
:20304900000000000000000000000000000000000000000000000000000000000000000067
:0e306900000010000000000000000000000049
:20307700000000000000000000000000000000000000000000000000000000000000000039
:0e3097000000300000000000000000000000fb
:2030a50000000000000000000000000000000000000000000000000000000000000000000b
:0e30c5000000000800000000000000000000f5
:2030d3000000000000000000000000000000000000000000000000000000000000000000dd
:0e30f30000000000000000000000000000804f
:203101000000000000000000000000000000000000000000000000000000000000000000ae
:0e312100000000000000000000002000008000
:20312f00000000000000000000000000000000000000000000000000000000000000000080
:0e314f0000000004000000000000000000006e
:20315d001030c0000002000000000000000000000000000000000000000000000000000050
:0e317d00000000000000000000000000000044
:20318b000030c0000000000000000000000000000000000000000000000000000000000034
:0e31ab00000000000000000000000000000016
:2031b9001030c00000000000000000000000000000000000000000000000000000000000f6
:0e31d9000000000000000000000000000000e8
:2031e7000030c00000000000000000000000000000000000000000000000000000000000d8
:0e3207000000000000000000000000000000b9
:203215001030c0000000000000000000000000000000000000000000000000000000000099
:0e32350000000000000000000000000000008b
:203243000030c000000000000000000000000000000000000000000000000000000000007b
:0e32630000000000000000000000000000005d
:203271001030c000000000000000000000000000000000000000000000000000000000003d
:0e32910000000000000000000000000000200f
:20329f000030c000000000000000000000000000000000000000000000000000000000001f
:0e32bf00000000000000000000000000000001
:2032cd001030c00000000000000000000000000000000000000000000000000000000000e1
:0e32ed000000000000000000000000000000d3
:2032fb000030c00000000000000000000000000000000000000000000000000000000000c3
:0e331b000000000000000000000000000000a4
:203329001030c0000000000000000000000000000000000000000000000000000000000084
:0e334900000000000000000000000000000076
:203357000030c0000000000000000000000000000000000000000000000000000000000066
:0e337700000000000000000000000000000048
:203385001030c0000000000000000000000000000000000000000000000000000000000028
:0e33a50000000000000000000000000000001a
:2033b3000030c000000000000000000000000000000000000000000000000000000000000a
:0e33d3000000000000070000000000000000e5
:2033e1001030c00000000000000000000000000000000000000000000000000000000000cc
:0e3401000000000000000000000000000000bd
:20340f000030c00000000000000000000000000000000000000000000000000000000000ad
:0e342f0000000000000000000000000000008f
:20343d001030c0c000000000000000000000000000000000000000000000000000000000af
:0e345d00000000000000000000000000000061
:20346b000030c0000000000000000000000000000000000000000000000000000000000051
:0e348b00000000000000000000000000000033
:203499001030c0000000000000000000000000000000000000000000000000000000000013
:0e34b900000000000000000000000000000005
:2034c7000030c00000000000000000000000000000000000000000000000000000000000f5
:0e34e7000000000000000000000000000000d7
:2034f5001030c00000000000000000000000000000000000000000000000000000000000b7
:0e3515000000000000000000000000000000a8
:203523000030c0000000000000000000000000000000000000000000000000000000000098
:0e35430000000000000000000000000000007a
:203551001030c000000000000000000000000000000000000000000000000000000000005a
:0e35710000000000000000000000000000004c
:20357f000030c000000000000000000000000000000000000000000000000000000000003c
:0e359f0000000000000000000000000000001e
:2035ad001030c0000c000000000000000000000000000000000000000000000000000000f2
:0e35cd000000000000000000000000000000f0
:2035db000030c00000000000000000000000000000000000000000000000000000000000e0
:0e35fb000000000000000000000000000000c2
:203609001030c00000000000000000000000000000000000000000000000000000000000a1
:0e362900000000000000000000000000000093
:203637000030c0000000000000000000000000000000000000000000000000000000000083
:0e365700000000000000000000000000000065
:203665001030c0000000000000000000000000000000000000000000000000000000000045
:0e368500000000000000000000000000000037
:203693000030c0000000000000000000000000000000000000000000000000000000000027
:0e36b300000000000000000000000000000009
:2036c1001030c00000000000000000000000000000000000000000000000000000000000e9
:0e36e1000000000000000000000000000000db
:2036ef000030c00000000000000000000000000000000000000000000000000000000000cb
:0e370f000000000000000000000000000000ac
:20371d001030c000000000000000000000000000000000000000000000000000000000008c
:0e373d0000000000000000000000000000007e
:20374b000030c000000000000000000000000000000000000000000000000000000000006e
:0e376b00000000000000000000000000000050
:203779001030c0000000000000000000000000000000000000000000000000000000000030
:0e379900000000000000000000000000000022
:2037a7000030c0000000000000000000000000000000000000000000000000000000000012
:0e37c7000000000000000000000000000000f4
:2037d5001030c00000000000000000000000000000000000000000000000000000000000d4
:0e37f5000000000000000000000000000000c6
:203803000030c00000000000000000000000000000000000000000000000000000000000b5
:0e382300000000000000000000000000000097
:203831001030c0000000000000000000000000000000000000000000000000000000000077
:0e385100000000000000000000000000000069
:20385f000030c0000000000000000000000000000000000000000000000000000000000059
:0e387f0000000000000000000000000000003b
:20388d001030c000000000000000000000000000000000000000000000000000000000001b
:0e38ad0000000000000000000000000000000d
:2038bb000030c00000000000000000000000000000000000000000000000000000000000fd
:0e38db000000000000000000000000000000df
:2038e9001030c00000000000000000000000000000000000000000000000000000000000bf
:0e3909000000000000000000000000000000b0
:203917000030c00000000000000000000000000000000000000000000000000000000000a0
:0e393700000000000000000000000000000082
:203945001030c0000000000000000000000000000000000000000000000000000000000062
:0e396500000000000000000000000000000054
:203973000030c0000000000000000000000000000000002000000000000000000000002004
:0e3993000000000000008000000000000200a4
:2039a1001030c0000000000000000000000000000000000000000000000000000000000006
:0e39c1000000000000000000000000000000f8
:2039cf000030c00000000000000000000000000000000020000000000000000000000020a8
:0e39ef00000000000000800000000000020048
:2039fd000000000000000000000000000000000000000000000000000000000000000000aa
:0e3a1d0000000000000000000000000000009b
:203a2b0000000000000000000000000000000000000000000000000000000000000000007b
:0e3a4b0000000000000000000000000000006d
:203a590000000000000000000000000000000000000000000000000000000000000000004d
:0e3a790000000000000000000000000000003f
:203a870000000000000000000000000000000000000000000000000000000000000000001f
:0e3aa700000000000000000000000000000011
:203ab5000000000000000000000000000000000000000000000000000000000000000000f1
:0e3ad5000000000000000000000000000000e3
:203ae3000000000000000000000000000000000000000000000000000000000000000000c3
:0e3b03000000000000000000000000000000b4
:203b1100000000000000000000000000000000000000000000000000000000000000000094
:0e3b3100000000000000000000000000000086
:203b3f00000000000000000000000000000000000000000000000000000000000000000066
:0e3b5f00000000000000000000000000000058
:203b6d00000000000000000000000000000000000000000000000000000000000000000038
:0e3b8d0000000000000000000000000000002a
:203b9b0000000000000000000000000000000000000000000000000000000000000000000a
:0e3bbb000000000000000000000000000000fc
:203bc9000000000000000000000000000000000000000000000000000000000000000000dc
:0e3be9000000000000000000000000000000ce
:203bf7000000000000000000000000000000000000000000000000000000000000000000ae
:0e3c170000000000000000000000000000009f
:203c250000000000000000000000000000000000000000000000000000000000000000007f
:0e3c4500000000000000000000000000000071
:203c5300000000000000000000000000000000000000000000000000000000000000000051
:0e3c7300000000000000000000000000000043
:203c8100000000000000000000000000000000000000000000000000000000000000000023
:0e3ca100000000000000000000000000000015
:203caf000000000000000000000000000000000000000000000000000000000000000000f5
:0e3ccf000000000000000000000000000000e7
:203cdd00000000000000000000000000000000000000000000000000000004001a000000a9
:0e3cfd000000152266800000c284f000000066
:203d0b000000000000000000000000000000000000000000000000000000000350d0000075
:0e3d2b0000000d2540000010a800e000000080
:203d390000000000000000000000000000000000000000000000000000000c3c4e000001d3
:0e3d5900c0001b6200000000c284f000001ccd
:203d670000000000000000000000000000000000000000000000000000000bc00000000071
:0e3d87000000057140000000a800c000000010
:203d950000000000000000000000000000000000000000000000000000000c3c4ad00000ac
:0e3db5000400172560400000c284b9800000a1
:203dc30000000000000000000000000000000000000000000000000000000bc010180000ed
:0e3de3000800007002800000a801e10000004e
:203df10000000000000000000000000000000000000000000000000000000c3c4e0180009b
:0e3e110000010dfd66c00000c284b81800005c
:203e1f0000000000000000000000000000000000000000000000000000000bc010d00000d8
:0e3e3f0000000bbc02800000a801c1000000c2
:203e4d0000000000000000000000000000000000000000000000000000000c3c5e01c000ee
:0e3e6d0000004fb802800000c285f000000087
:203e7b0000000000000000000000000000000000000000000000000000000bc0000100005b
:0e3e9b000000057c06c00000a800e00000004a
:203ea90000000000000000000000000000000000000000000000000000000c3c5a00000057
:0e3ec9000000000140400000c285b00a000069
:203ed70000000000000000000000000000000000000000000000000000000bc00000000000
:0e3ef7000000000022000000a800c000000033
:203f050000000000000000000000000000000000000000000000000000000ebc5e198000db
:0e3f25000000000140400000c285b0190000fd
:203f330000000000000000000000000000000000000000000000000000000fe8190000005e
:0e3f53000000000362000000a801e00800006a
:203f610000000000000000000000000000000000000000000000000000000ebc5e98100070
:0e3f8100c000000002800000c285f18b1c0c05
:203f8f0000000000000000000000000000000000000000000000000000000fe81c1080006f
:0e3faf000000000346c00000a801c00800008a
:203fbd0000000000000000000000000000040a01ca1800000000000000000ebc4e000400d7
:0e3fdd00002f0fbdc0000000c284f0004000a5
:203feb0000000000000000000000000000000b82cc9000000000000004008fe80d00000045
:0e400b00202b0df160000008a800e00000006e
:204019000000000000000000000000000000000000000001c000000000000ebc4e000001ad
:0e403900c040a3e800000700c284f000001c95
:2040470000000000000000000000000000000000000000000000000000000fe80f00000053
:0e406700000000f000000000a800c0000400ef
:20407500000000000000000000000000000000000078100080000000000008284e1800008d
:0e40950000020905e0102200c284b98000007c
:2040a3000000000000000000000000000000000000088000c0000000000248281000000033
:0e40c30000810db422c00300a801e10000003e
:2040d10000000000000000000000000000000908dc0000000000000000000bc140000000d6
:0e40f100000af7f5e2000000c284b8180000d3
:2040ff00000000000000000000000000000208166e0000000000000000000fc02000000024
:0e411f000805a07344000000a801c1000000c4
:20412d000000000000000000000000000000000000000000000000000200000000800000f0
:0e414d001045f3e802000000c285f00000807b
:20415b000000000000002000000000000000000000f0e00000000000000000000010000044
:0e417b000805f041c4000000a800e0000000ac
:20418900000000000000000000000000000000000000100000000000050000000000000001
:0e41a900000ef90207400000c285b19a000026
:2041b700000000000000000000000000000000000000c00000000000020000000000000026
:0e41d700000df3a8c7c00000a800c0000c0037
:2041e50000000000000000000000000000020a01de0010000000000000000abdee819000f9
:0e4205000005072a00000000c285b019000065
:2042130000000000000000000000000000000b82d900f0000000000000000fd43b10800087
:0e42330008050036c2c00000a801e008000027
:204241000000000000000000000000000000000000800000c000000000000000008000009d
:0e426100c8018582020003008a24101b000c95
:20426f0000000000000000000000000000000000001000000000000000000000001000000f
:0e428f0000024729c0000000850cd008000086
:02429d0000001f
:03429f007200901a
:0242a200110306
:0242a400010116
:2042a6000000000000000000020000000000000800000000020000000000000800000000e4
:0e42c60000002000000000000080000000004a
:2042d4000000000000000000010000000000000400000000010000000000000400000000c0
:0e42f40000001000000000000040000000006c
:2043020000000000000000000000000000000000000000000000000000000000000000009b
:0e43220000000000000000000000000000008d
:2043300000000000000000000000000000000000000000000000000000000000000000006d
:0e43500000000000000000000000000000005f
:20435e0000000000000000000000000000000000000000000000000000000000000000003f
:0e437e00000000000000000000000000000031
:20438c00000000000000000000000000000000000000000000000000000000000000000011
:0e43ac00000000000000000000000000000003
:2043ba000000000000000000000000000000000000000000000000000000000000000000e3
:0e43da000000000000000000000000000000d5
:2043e8000000000000000000000000000000000000000000000000000000000000000000b5
:0e4408000000000000000000000000000000a6
:2044160000000000000000000000000000000000000000000000000000000008020000007c
:0e4436000000000000000000008020000000d8
:20444400000000000000000000000000000000000000000000000000000000000000000058
:0e44640000000000000000000000000000004a
:2044720000000000000000000000000000000000000000000000000000000000000000002a
:0e44920000000000000000000000000000001c
:2044a0000000000000000000000000000000000000000000000000000000000000000000fc
:0e44c0000000000000000000000000000000ee
:2044ce000000000000000000000000000000000000000000000000000000000000000008c6
:0e44ee00000000000000000000000000008040
:2044fc00000000000000000000000000000000000000000000000000000000000000000898
:0e451c00000000000000000000000000008011
:20452a0000000000000000000000000000000000000000000000000000000000020000006f
:0e454a00000000000000000000002000000043
:20455800000000000000000000000000000000000000000000000000000000000000000043
:0e457800000000000000000000000000000035
:204586000030c0000000000000000000000000000000000000000000000000000000000025
:0e45a600000000000000000000000000000007
:2045b4001030c00000000000000000000000000000000000000000000000000000000000e7
:0e45d4000000000000000000000000000000d9
:2045e2000030c00000000000000000000000000000000000000000000000000000000000c9
:0e4602000000000000000000000000000000aa
:204610001030c000000000000000000000000000000000000000000000000000000000008a
:0e46300000000000000000000000000000007c
:20463e000030c000000000000000000000000000000000000000000000000000000000006c
:0e465e0000000000000000000000000000004e
:20466c001030c000000000000000000000000000000000000000000000000000000000002e
:0e468c00000000000000000000000000000020
:20469a000030c0000000000000000000000000000000000000000000000000000000000010
:0e46ba000000000000000000000000000000f2
:2046c8001030c00000000000000000000000000000000000000000000000000000000000d2
:0e46e8000000000000000000000000000000c4
:2046f6000030c00000000000000000000000000000000000000000000000000000000000b4
:0e471600000000000000000000000000000095
:204724001030c0000000000000000000000000000000000000000000000000000000000075
:0e474400000000000000000000000000000067
:204752000030c0000000000000000000000000000000000000000000000000000000000057
:0e477200000000000000000000000000000039
:204780001030c0000000000000000000000000000000000000000000000000000000000019
:0e47a00000000000000000000000000000000b
:2047ae000030c00000000000000000000000000000000000000000000000000000000000fb
:0e47ce000000000000000000000000000000dd
:2047dc001030c00000000000000000000000000000000000000000000000000000000000bd
:0e47fc000000000000000000000000000000af
:20480a000030c000000000000000000000000000000000000000000000000000000000009e
:0e482a00000000000000000000000000000080
:204838001030c0000000000000000000000000000000000000000000000000000000000060
:0e485800000000000000000000000000000052
:204866000030c0000000000000000000000000000000000000000000000000000000000042
:0e488600000000000000000000000000000024
:204894001030c0000000000000000000000000000000000000000000000000000000000004
:0e48b4000000000000000000000000000000f6
:2048c2000030c00000000000000000000000000000000000000000000000000000000000e6
:0e48e2000000000000000000000000000000c8
:2048f0001030c00000000000000000000000000000000000000000000000000000000000a8
:0e491000000000000000000000000000000099
:20491e000030c0000000000000000000000000000000000000000000000000000000000089
:0e493e0000000000000000000000000000006b
:20494c001030c000000000000000000000000000000000000000000000000000000000004b
:0e496c0000000000000000000000000000003d
:20497a000030c000000000000000000000000000000000000000000000000000000000002d
:0e499a0000000000000000000000000000000f
:2049a8001030c00000000000000000000000000000000000000000000000000000000000ef
:0e49c8000000000000000000000000000000e1
:2049d6000030c00000000000000000000000000000000000000000000000000000000000d1
:0e49f6000000000000000000000000000000b3
:204a04001030c0000000000000000000000000000000000000000000000000000000000092
:0e4a2400000000000000000000000000000084
:204a32000030c0000000000000000000000000000000000000000000000000000000000074
:0e4a5200000000000000000000000000000056
:204a60001030c0000000000000000000000000000000000000000000000000000000000036
:0e4a8000000000000000000000000000000028
:204a8e000030c0000000000000000000000000000000000000000000000000000000000018
:0e4aae000000000000000000000000000000fa
:204abc001030c00000000000000000000000000000000000000000000000000000000000da
:0e4adc000000000000000000000000000000cc
:204aea000030c00000000000000000000000000000000000000000000000000000000000bc
:0e4b0a0000000000000000000000000000009d
:204b18001030c000000000000000000000000000000000000000000000000000000000007d
:0e4b380000000000000000000000000000006f
:204b46000030c000000000000000000000000000000000000000000000000000000000005f
:0e4b6600000000000000000000000000000041
:204b74001030c0000000000000000000000000000000000000000000000000000000000021
:0e4b9400000000000000000000000000000013
:204ba2000030c0000000000000000000000000000000000000000000000000000000000003
:0e4bc2000000000000000000000000000000e5
:204bd0001030c00000000000000000000000000000000000000000000000000000000000c5
:0e4bf0000000000000000000000000000000b7
:204bfe000030c00000000000000000000000000000000000000000000000000000000000a7
:0e4c1e00000000000000000000000000000088
:204c2c001030c0000000000000000000000000000000000000000000000000000000000068
:0e4c4c0000000000000000000000000000005a
:204c5a000030c000000000000000000000000000000000000000000000000000000000004a
:0e4c7a0000000000000000000000000000002c
:204c88001030c000000000000000000000000000000000000000000000000000000000000c
:0e4ca8000000000000000000000000000000fe
:204cb6000030c00000000000000000000000000000000000000000000000000000000000ee
:0e4cd6000000000000000000000000000000d0
:204ce4001030c00000000000000000000000000000000000000000000000000000000000b0
:0e4d04000000000000000000000000000000a1
:204d12000030c0000000000000000000000000000000000000000000000000000000000091
:0e4d3200000000000000000000000000000073
:204d40001030c0000000000000000000000000000000000000000000000000000000000053
:0e4d6000000000000000000000000000000045
:204d6e000030c0000000000000000000000000000000000000000000000000000000000035
:0e4d8e00000000000000000000000000000017
:204d9c001030c00000000000000000000000000000000000000000000000000000000000f7
:0e4dbc000000000000000000000000000000e9
:204dca000030c00000000000000000000000000000000000000000000000000000000000d9
:0e4dea000000000000000000000000000000bb
:204df8001030c000000000000000000000000000000000000000000000000000000000009b
:0e4e180000000000000000000000000000008c
:204e260000000000000000000000000000000000000000000000000000000000000000006c
:0e4e46000000000000008000000000000200dc
:204e540000000000000000000000000000000000000000000000000000000000000000003e
:0e4e7400000000000000000000000000000030
:204e8200000000000000000000000000000000000000000000000000000000000000000010
:0e4ea20000000000000000000000000d0000f5
:204eb0000000000000000000000000000000000000000000000000000000000000000000e2
:0e4ed0000000000000000000000000000000d4
:204ede000000000000000000000000000000000000000000000000000000000000000000b4
:0e4efe0000000000000000001680e000000030
:204f0c00000000000000000000000000000000000000000000000000000000000000000085
:0e4f2c000000000000000000a940000010007e
:204f3a00000000000000000000000000000000000000000000000000000000000000000057
:0e4f5a00000000000000000000000000000049
:204f6800000000000000000000000000000000000000000000000000000000000000000029
:0e4f880000000000000000000000000000001b
:204f96000000000000000000000000000000000000000000000000000000000000000000fb
:0e4fb6000000000000000000000000000000ed
:204fc4000000000000000000000000000000000000000000000000000000000000000000cd
:0e4fe4000000000000000000000000000000bf
:204ff20000000000000000000000000000000000000000000000000000000000000000009f
:0e5012000000f00000000000000000000000a0
:20502000000000000000000000000000000000000000000000000000000000000000000070
:0e5040000820f18000000000000000000000c9
:20504e00000000000000000000000000000000000000000000000000000000000000000042
:0e506e00000000000000000000000000000034
:20507c00000000000000000000000000000000000000000000000000000000000000000014
:0e509c00000000000680070000000000001c5d
:2050aa000000000000000000000000000000000000000000000000000000000000000000e6
:0e50ca000000000000000000000000000000d8
:2050d8000000000000000000000000000000000000000000000000000000000000000000b8
:0e50f8000000000000000000000000000000aa
:20510600000000000000000000000000000000000000002000000002000000000000002047
:0e51260000000fe0400080043fc2e010820055
:2051340000000000000000000000000000000000000000000000000000000000000000005b
:0e515400000807a2400003103f8de018000c79
:205162000000000000000000000000000000000000000020000000000000000000080020e5
:0e518200002850aa400080040014b00902006a
:205190000000000000000000000000000000000000000000000000000000000000300000cf
:0e51b000042087b7e60000000074c001000074
:2051be000000000000000000000000000000000000000000000000000000000000000000d1
:0e51de0000080fe0000000008280800000004a
:2051ec000000000000000000000000000000000000000000000000000000000000000000a3
:0e520c00000007a0000000109216900008801d
:20521a00000000000000000000000000000000000000000000000000000001680f000000fc
:0e523a00000aa0f8000000000282b90800007f
:2052480000000000000000000000000000000000000000000000000000000a9400000000a8
:0e526800000a5130668000000146081900005f
:20527600000000000000000000000000000000000000000000000000000001543908000082
:0e52960000260070000000009226900000002c
:2052a4000000000000000000000000000000000000000100000000000000029579100000c9
:0e52c400042a05a80700000082b4801800002c
:2052d2000000000000000000000000000000000000000000000000000000000000000000bc
:0e52f200000009bc00002300000000080000be
:2053000000000000000000000000000000000000000000000000000000000000000000008d
:0e53200000020724600013000000018100005d
:20532e000000000000000000000000000000000000000000000000000000403c0050800013
:0e534e000026003000000000920c90100000bd
:20535c000000000000000000000000000000000000000000000000000000483c60b8100184
:0e537c00c42a05b800000702908c833c001c78
:20538a00000000000000000000000000000000000000000000000000000000000000000003
:0e53aa00000009bee4000000a801808d000094
:2053b8000000000000000000000000000000000000000000000000000000000000000000d5
:0e53d80000004726e7800001829483810000d8
:2053e600000000000000000000000000000002a83900080000000000000008282c08b000a8
:0e540600000050c04000000483c000080000f9
:2054140000000000000000000000000000001295de78008000000000000309095d38000051
:0e543400c00051e80000030083dc0000000c03
:20544200000000000000000000000000000000000008000000000000000000980e98000004
:0e54620000002da4240000000000071e010021
:20547000000000000000000000000000000000000078000000000000000100f56a39e0002b
:0e54900000001905660000000000080e0080f4
:20549e00000000000000000000000000000000000000000000000000000002e81901e0000a
:0e54be000005f03e4000000000000500004028
:2054cc0000000000000000000000000000000000000000000000000000010069cc00e000aa
:0e54ec00000051be0000000000000d80000016
:2054fa00000000000000000000000000000000142f00000000000000000002a82f70000006
:0e551a000021cb60000040001a410008000094
:20552800000000000000000000000000000012bcc83000000000000000000295c90000003d
:0e55480000204b64028020011a5ce00000008d
:20555600000000000000000000000000000000000000000000000000000000702e50d00077
:0e5576002024a0f020000020882fe009000073
:20558400000000000000000000000000000000000000000000000000000102746f00100011
:0e55a40004208571e0002081b826b0010000cf
:2055b200000000000000000000000000000000000000000000000001020000e2ee00f00016
:0e55d200c0000de540000380896d910da00022
:2055e000000000000000000000000000000000000000000000000002850001d978180000ba
:0e560000c0008d2666000301903eb981400077
:20560e000000000000000000000000000000000000000000000000000000000000f000008c
:0e562e000064a073e200000000000500000010
:20563c00000000000000000000000000000000000000000000000000000000000001a0812c
:0e565c00c42085734040070000000000001cc1
:20566a00000000000000000000000000000000000001000000000000000000000008000017
:0e568a0000000de4000000000140c000000020
:20569800000000000000000000000000000000000039c00000000000000000000050a00009
:0e56b80000080d25600000003d55a000000018
:2056c60000000000000000000000000000000000000000000000000000000201cd000000f4
:0e56e60000000000000000000616000000009a
:2056f40000000000000000000000000000000000000000000000000000000000c8000010be
:0e571400c000000007000300061c8000000c0f
:20572200000000000000000000000000000000000000f80000000000000000142d70f000ce
:0e5742000000000042c700458404a0000000e3
:20575000000000000000000000000000000000000000140000000000000002bc5c19800072
:0e57700000000002060000a188160598000047
:20577e00000000000000000000000000000000000000000000000000100009800f00e10082
:0e579e0000000000000000008802a1000000d2
:2057ac0000000000000000000000000000000000000000000000000000010a80fa019000c7
:0e57cc000000000000000011b80fa80000004f
:2057da00000000000000000000000000000400055b0000000000000030000020e8f8e0003b
:0e57fa00082a003804007000000190008000b2
:2058080000000000000000000000000000000001c90000000000000000000000cef01000e8
:0e5828000020a13c0380700029408000000099
:20583600000000000000000000000000000000000000000000000000000009801f000a00a0
:0e58560000221970030000049826a00e000026
:2058640000000000000000000000000000000000005000080000000000010a80ee018400ce
:0e5884000034892800400000a40e0019200006
:20589200000000000000000000000000000000015b0000000000000000000000e8080000aa
:0e58b200d0221979402000048865d00a000039
:2058c00000000000000000000000000000004005c900a0000000000000000020ce780000b4
:0e58e0008034893c62800000909490080000a3
:2058ee00000000000000000000000000000000000000000400000000000009800f000000fe
:0e590e0001221531c00000809201000000004f
:20591c0000000000000000000000000000000000000000000000000000010a80ee000001f1
:0e593c00c034893960000791921dc000001c24
:20594a00000000000000000000000000000042015b0000000000000000000000e800f000c7
:0e596a00000a5168020000000025a10900009b
:2059780000000000000000000000000000000001c97800000000000000000040ce18100097
:0e5998000015a0280040000020149981000096
:2059a600000000000000000000000000000248001d00000000000000000009282d0804c050
:0e59c60000000003430000008281d0000100b9
:2059d40000000000000000000000000000021bc14b000000c0000000000308216f380000f7
:0e59f400c0000001e0000310840d9000008c44
:205a02000000000000000000000000000000000000000010000000000000000269180000f1
:0e5a2200000f003c0000002000159f00000057
:205a3000000000000000000000000000000000000000000000000000000000805911e0008c
:0e5a50000c8f4574000000000077c018008025
:205a5e00000000000000000000000000000000000000000000000000000009280d080000e2
:0e5a7e00000ff1e404000000bc00d10a00009b
:205a8c00000000000000000000000000000000000018000000000000000308216f3800000f
:0e5aac00000ef32007000000801da99a0000e4
:205aba000000000000000000000000000000000000000000000000000000008269000400dd
:0e5ada000000f00040000000a101e008000004
:205ae8000000000000000000000000000000000000018000000000000000000059018a0039
:0e5b08000020f782000000108296c581000088
:205b160000000000000000000000000000000000000000000000000000000b82d900000009
:0e5b36000004a3640200000001420008000009
:205b440000000000000000000000000000000000000000000000000000000a03cb198000d0
:0e5b640000000dfc064000000145a0190000e5
:205b7200000000000000000000000000000000000000000000000000000202a82b0000003c
:0e5b9200c02600b40200000087019000000051
:205ba000000000000000000000000000000000000031e0000000000000000295cc18000059
:0e5bc000c4290780004000108806c0000000c5
:205bce0000000000000000000000000000026a40dd0000000000000000000a401cf90000cf
:0e5bee0000066070000000000bc30d000000f8
:205bfc0000000000000000000000000000000b014b000001c000000000010a81de50800136
:0e5c1c00c40b65fd600007100bc7c0180c1c00
:205c2a0000000000000000000000000000000000000000000000000000000002697000007f
:0e5c4a000800a003640000222941c1000000f0
:205c5800000000000000000000000000000000000000000000000000000001005990000042
:0e5c78000000a7e9428000003d4ef800000049
:025c860000001c
:035c880072008027
:025c8b00110006
:035c8d0062002f83
:035c90008200008f
:025c930001030b
:065c950000000000000009
:065c9b0000000000000003
:065ca100000000000000fd
:065ca700000000000000f7
:065cad00000000000000f1
:065cb300000000000000eb
:065cb900000000000000e5
:065cbf00000000000000df
:065cc500000000000000d9
:065ccb00000000000000d3
:065cd100000000000000cd
:065cd700000000000000c7
:065cdd00000000000000c1
:065ce300000000000000bb
:065ce900000000000000b5
:065cef00000000000000af
:065cf500000000000000a9
:065cfb00000000000000a3
:065d01000000000000009c
:065d070000000000000096
:065d0d0000000000000090
:065d13000000000000008a
:065d190000000000000084
:065d1f000000000000007e
:065d250000000000000078
:065d2b0000000000000072
:065d31000000000000006c
:065d370000000000000066
:065d3d0000000000000060
:065d43000000000000005a
:065d490000000000000054
:065d4f000000000000004e
:065d550000000000000048
:065d5b0000000000000042
:065d61000000000000003c
:065d670000000000000036
:065d6d0000000000000030
:065d73000000000000002a
:065d790000000000000024
:065d7f000000000000001e
:065d850000000000000018
:065d8b0000000000000012
:065d91000000000000000c
:065d970000000000000006
:065d9d0000000000000000
:065da300000000000000fa
:065da900000000000000f4
:065daf00000000000000ee
:065db500000000000000e8
:065dbb00000000000000e2
:065dc100000000000000dc
:065dc700000000000000d6
:065dcd00000000000000d0
:065dd300000000000000ca
:065dd900000000000000c4
:065ddf00000000000000be
:065de500000000000000b8
:065deb00000000000000b2
:065df100000000000000ac
:065df700000000000000a6
:065dfd00000000000000a0
:065e030000000000000099
:065e090000000000000093
:065e0f000000000000008d
:065e150000000000000087
:065e1b0000000000000081
:065e21000000000000007b
:065e270000000000000075
:065e2d000000000000006f
:065e330000000000000069
:065e390000000000000063
:065e3f000000000000005d
:065e450000000000000057
:065e4b0000000000000051
:065e51000000000000004b
:065e570000000000000045
:065e5d000000000000003f
:065e630000000000000039
:065e690000000000000033
:065e6f000000000000002d
:065e750000000000000027
:065e7b0000000000000021
:065e81000000000000001b
:065e870000000000000015
:065e8d000000000000000f
:065e930000000000000009
:065e990000000000000003
:065e9f00000000000000fd
:065ea500000000000000f7
:065eab00000000000000f1
:065eb100000000000000eb
:065eb700000000000000e5
:065ebd00000000000000df
:065ec300000000000000d9
:065ec900000000000000d3
:065ecf00000000000000cd
:065ed500000000000000c7
:065edb00000000000000c1
:065ee100000000000000bb
:065ee700000000000000b5
:065eed00000000000000af
:065ef300000000000000a9
:065ef900000000000000a3
:065eff000000000000009d
:065f050000000000000096
:065f0b0000000000000090
:065f11000000000000008a
:065f170000000000000084
:065f1d000000000000007e
:065f230000000000000078
:065f290000000000000072
:065f2f000000000000006c
:065f350000000000000066
:065f3b0000000000000060
:065f41000000000000005a
:065f470000000000000054
:065f4d000000000000004e
:065f530000000000000048
:065f590000000000000042
:065f5f000000000000003c
:065f650000000000000036
:065f6b0000000000000030
:065f71000000000000002a
:065f770000000000000024
:065f7d000000000000001e
:065f830000000000000018
:065f890000000000000012
:065f8f000000000000000c
:025f950000000a
:035f970082008005
:025f9a00010301
:065f9c00000000000000ff
:065fa200000000000000f9
:065fa800000000000000f3
:065fae00000000000000ed
:065fb400000000000000e7
:065fba00000000000000e1
:065fc000000000000000db
:065fc600000000000000d5
:065fcc00000000000000cf
:065fd200000000000000c9
:065fd800000000000000c3
:065fde00000000000000bd
:065fe400000000000000b7
:065fea00000000000000b1
:065ff000000000000000ab
:065ff600000000000000a5
:065ffc000000000000009f
:0660020000000000000098
:0660080000000000000092
:06600e000000000000008c
:0660140000000000000086
:06601a0000000000000080
:066020000000000000007a
:0660260000000000000074
:06602c000000000000006e
:0660320000000000000068
:0660380000000000000062
:06603e000000000000005c
:0660440000000000000056
:06604a0000000000000050
:066050000000000000004a
:0660560000000000000044
:06605c000000000000003e
