:02000000ff00ff
:080002004c6174746963650030
:17000a00694345637562653220323032302e31322e32373934330071
:16002100506172743a206943453430554c314b2d434d33364100ff
:1a003700446174653a204d6179203120323032362031383a33313a303800ac
:0200510000ffae
:040053007eaa997e6a
:02005700510056
:0200590001059f
:03005b00920020f0
:03005e0062016fcd
:030061008200001a
:03006400720070b7
:02006700110086
:02006900010193
:20006b000000000000000000000000100000000000004000020000000000000000004000e3
:0e008b0000000000010000080000000000005e
:20009900000000000000000000000020000000000000800000000000020000000000800025
:0e00b90000000000020000000000000800002f
:2000c700000000000000000000000000000000000000000001000000000000000000000018
:0e00e700000000000000000400000000000007
:2000f5000000000000000000000000000000000000000000000000000100000000000000ea
:0e0115000000000000000000000000040000d8
:200123000000000000000000000000000000000000000000020000000400000000000000b6
:0e014300000000000000000800800020000006
:20015100000000000000000000000000000000000000000000003400040000000000000056
:0e017100000000000000000000f02030000040
:20017f00000000000000000000000000000000000000000000000000000000000000000060
:0e019f00000000000000000000000000000052
:2001ad00000000000000000000000000000000000000000000000000000000000000000032
:0e01cd00000000000000000000000000000024
:2001db000000000000000000000000000000000000000000000000080000000000000000fc
:0e01fb0000000000000000000038200000009e
:200209000000000000000000000000000000000000000000000000000000000000000000d5
:0e0229000000000000000000000000000000c7
:200237000000000000000000000000000000000000000000000000000200000001000000a4
:0e025700000000040000000000000004000091
:20026500000000000000000000000010000000000000000000000e00030000000000000058
:0e02850000000000000000000000000c00005f
:2002930000000000000000000000000000000000000000000000000000000000000000004b
:0e02b300000000080000000000001000000025
:2002c10000000000000000000000000000000000000000000000000000000000000000001d
:0e02e10000000004000000000000000000000b
:2002ef000000000000000000000000000000000000000000000000000000000000000000ef
:0e030f000000000000000000000000000000e0
:20031d00000000000000000000e000000000000000000000000000000000000000000000e0
:0e033d000000000400000000000000000000ae
:20034b00010000000c3020000000033c0400000000000000000000000000000000000000f2
:0e036b0000000000000000000000200a520008
:20037900010000000c3000020000003c0000000000000000000000000000000000000000e9
:0e039900000000000000000000000405a000ad
:2003a700000000000c302000000000000000000000000000000000000000000000000000da
:0e03c700002800000000000000000000000000
:2003d500000000000c300000000000000000000000000000000000000000000000000000cc
:0e03f5000000000000000000004000000000ba
:20040300000000000c30200000000000000000000000000008040000000000000000000071
:0e0423000000000000000000000000000000cb
:20043100000000000c3000000000000000000000000000000002000000000000000000006d
:0e04510000000000000000000000000000009d
:20045f00000000000c30200000000000000000000000000000000000000000000000000021
:0e047f0000000000000000c0000000000000af
:20048d00000000000c30000000000000000000000000000000000000000000000000000013
:0e04ad000000000000000080000000000000c1
:2004bb00000000000c30200001800000000000000000000000000000000000000000000044
:0e04db00000000000000000000000000000013
:2004e900000000000c30000000800000000000000000000000000000000000000000000037
:0e0509000000000000000000c0000000000024
:20051700000000000c30200000000000000000000000000000000000000000000000000068
:0e0537000000000000000000000000000000b6
:20054500000000000c3000000000000000000000000000000000000000000000000000005a
:0e056500000000000000000000000000000088
:20057300000000000c3020000000000000000000000000000000000000000000000000000c
:0e05930000000000000000000000000000005a
:2005a100000000000c300000000000000000000000000000000000000000000000000000fe
:0e05c10000000000000000000000000000002c
:2005cf00000000000c302000000000000000000000000000000000000000000000000000b0
:0e05ef000000000000000000000000000000fe
:2005fd00000000000c300000000000000000000000000000000000000000000000000000a2
:0e061d000000000000000000000000000000cf
:20062b00000000000c30200000000000000000000000000000000000000000000000000053
:0e064b000000000000000000000000000000a1
:200659000001c0000c30000000000000000000000000000000000000000000000000000084
:0e067900000000000000000000000000000073
:20068700000000040c302000000000000000000000000000000000000000000000000000f3
:0e06a700000000000000000000000000000045
:2006b500000000000c300000000000000000000000000000000000000000000000000000e9
:0e06d500000000000000000000000000000017
:2006e300000000000c3020000000000000000000000000000000000000000000000000009b
:0e0703000000000000000000000000000000e8
:20071100000000000c3000000000000000000000000000000000000000000000000000008c
:0e0731000000000000000000000000000000ba
:20073f00000000000c3020000000000000000000000000000000000000000000000000003e
:0e075f0000000000000000000000000000008c
:20076d00000000000c30000000000000000000000000000000000000000000000000000030
:0e078d0000000000000000000000000000005e
:20079b00000000000c302000000000000000000000000000000000000000000000000000e2
:0e07bb00000000000000000000000000000030
:2007c900000000000c300000000000000000000000000000000000000000000000000000d4
:0e07e900000000000000000000000000000002
:2007f700000000000c30200000000000000000000000000000000000000000000000000086
:0e0817000000000000000001000000000000d2
:20082500000000000c30000000000000000000000000000000000000000000000000000077
:0e0845000000000000000000000000000000a5
:20085300000000000c30200000000000000000000000000000000000000000000000000029
:0e087300000000000000000000000000000077
:20088100000000000c3000000000000000000000000000000000000000000000000000001b
:0e08a100000000000000000000000000000049
:2008af00000000000c302000000000000000000000000000000000000000000000000000cd
:0e08cf0000000000000000000000000000001b
:2008dd00000000000c300000000000000000000000000000000000000000000000000000bf
:0e08fd000000000000000000000000000000ed
:20090b00000000000c30200000000000000000000000000000000000000000000000000070
:0e092b000000000000000000000000000000be
:20093900000000000c30000000000000000000000000000000000000000000000000000062
:0e095900000000000000000000000000000090
:20096700010000000c30200000000000000000000000000000000000000000000000000013
:0e098700000000000000000000000000000062
:20099500000000000c30000000000000000000000000000000000000000000000000000006
:0e09b500000000000000000000000000000034
:2009c300001000000c302000000000000000000000000000000000000000000000000000a8
:0e09e300000000000000000000000000000006
:2009f100000000000c300000000000000000000000000000000000000000000000000000aa
:0e0a11000000000000000000000000000000d7
:200a1f00000000000c3020000000000000000000000000000000000000000000000000005b
:0e0a3f000000000000000000000000000000a9
:200a4d00000000000c3000000000000000000000000000000000000000000000000000004d
:0e0a6d0000000000000000000000000000007b
:200a7b00000000000c30200000000000000000000000ff30000000000000000000000000d0
:0e0a9b0000000000000000000000000000004d
:200aa900000000000c30000000000000000000000000ff00000000000000014000000000b1
:0e0ac90000000000000000000000000000001f
:200ad700000000000c302000000000000000000000000000000000000000000000000000a3
:0e0af7000000000000000000000000000000f1
:200b0500000000000c30000000000000000000000000000000000000000000000000000094
:0e0b25000000000000000000000000000000c2
:200b3300000000000c30200000000000000000000000000000000000000000000000000046
:0e0b5300000000000000000000000000000094
:200b6100000000000c30000000000000000000000000000000000000000010000000000028
:0e0b8100004000000000000100000000000025
:200b8f00000000000c302000000000000000000000000000000000000000000000000000ea
:0e0baf00000000000000000000000000000038
:200bbd00000000000c300000000000000000000000000000000000000000100000000000cc
:0e0bdd000040000000000001000000000000c9
:200beb000000000000000000000000000000000000000000000000000000000000000000ea
:0e0c0b000000000000000000000000000000db
:200c19000000000000000000000000000000000000000000000000000000000000000000bb
:0e0c39000000000000000000000000000000ad
:200c470000000000000000000000000000000000000000000000000000000000000000008d
:0e0c670000000000000000000000000000007f
:200c750000000000000000000000000000000000000000000000000000000000000000005f
:0e0c9500000000000000000000000000000051
:200ca300000000000000000000000000000000000000000000000000000000000000000031
:0e0cc300000000000000000000000000000023
:200cd100000000000000000000000000000000000000000000000000000000000000000003
:0e0cf1000000000000000000000000000000f5
:200cff000000000000000000000000000000000000000000000000000000000000000000d5
:0e0d1f000000000000000000000000000000c6
:200d2d000000000000000000000000000000000000000000000000000000000000000000a6
:0e0d4d00000000000000000000000000000098
:200d5b00000000000000000000000000000000000000000000000000000000000000000078
:0e0d7b0000000000000000000000000000006a
:200d890000000000000000000000000000000000000000000000000000000000000000004a
:0e0da9000000000000000000400000000000fc
:200db70000000000000000000000000000000000000000000000000000000000000000001c
:0e0dd70000000000000000000000000000000e
:200de5000000000000000000000000000000000000000000000000000000000000000000ee
:0e0e05000000000000000000000000000000df
:200e13000000000000000000000000000000000000000000000000000000000000000000bf
:0e0e33000000000000000000000000000000b1
:200e4100000000000000000000000000000000000000000000000000000000000000000091
:0e0e6100000000000000000000000000000083
:200e6f00000000000000000000000000000000000000000000000000000000000000000063
:0e0e8f00000000000000000000000000000055
:200e9d00000000000000000000000000000000000000000000000000000000000000000035
:0e0ebd00000000000000000000000000000027
:200ecb00000000000000000000000000000000000000000000050000000000000000000002
:0e0eeb000000000000000000000000000000f9
:200ef9000000000000000000000000000000000000000000000000000000000000000000d9
:0e0f19000000000000000000000000000000ca
:200f27000000000000000000000000000000000000000000000000000000000000000000aa
:0e0f470000000000000000000000000000009c
:200f550000000000000000000000000000000000000000000000000000000000000000007c
:0e0f750000000000000000000000000000006e
:200f830000000000000000000000000000000000000000000000000000000000000000004e
:0e0fa300000000000000000000000000000040
:200fb100000000000000000000000000000000000000000000000000000000000000000020
:0e0fd100000000000000000000000000000012
:200fdf000000000000000000000000000000000000000000000000000000000000000000f2
:0e0fff000000000000000000000000000000e4
:20100d000000000000000000000000000000000000000000000000000000000000000000c3
:0e102d000000000000000000000000000000b5
:20103b00000000000000000000000000000000000000000000000000000000000000000095
:0e105b00000000000000000000000000000087
:20106900000000000000000000000000000000000000000000000000000000000000000067
:0e108900000000000000000000000000000059
:20109700000000000000000000000000000000000000000000000000000000000000000039
:0e10b70000000000000000000000000000002b
:2010c50000000000000000000000000000000000000000000000000000000000000000000b
:0e10e5000000000000000000000000000000fd
:2010f3000000000000000000000000000000000000000000000000000000000000000000dd
:0e1113000000000000000000000000000000ce
:201121000000000000000000000000000000000000000000000000000000000000000000ae
:0e1141000000000000000000000000000000a0
:20114f00000000000000000000000000000000000000000000000000000000000000000080
:0e116f00000000000000000000000000000072
:20117d00000000000000000000000000000000000000000000000000000000000000000052
:0e119d00000000000000000000000000000044
:2011ab0000000000000000000000000000000000000000000000000000000034035fa140ad
:0e11cb0000000000000000000007cec5e0009c
:2011d9000000000000000000000000000000000000000000000000000000000603cba7403b
:0e11f900000000b000000000000225f54000dc
:20120700000000000000000000000000000000000000000000000000000e00202800000071
:0e12270038308000000000e00260178bc0200d
:20123500000000000000000000000000000000000000000000000000000000044000000055
:0e125500000010000000000000402c064000c9
:20126300000000000000000000000000000000000000000000000000000c0000637ea1409d
:0e128300100000100000004400039e9a74004a
:201291000000000000000000000000000000000000000000000000000004003403c8a74053
:0e12b100100000a0000000c0000425c52400ad
:2012bf000000000000000000000000000000000000000000000000000000000063ffe54088
:0e12df00000018000000000000600efe240059
:2012ed000000000000000000000000000000000000000000000000000000003401dc85400b
:0e130d000000000000000000000227bf0400e6
:20131b00000000000000000000000000000000000000000000000000000000003a7fa14018
:0e133b0000000003aa8500000162adfc140052
:20134900000000000000000000000000000000000000000000000000000000002beda74085
:0e136900000000bbfde9000000074c8cb40042
:2013770000000000000000000000000000000000000000000000000000000004040000004e
:0e139700000050e9bf1d000003466fca54005d
:2013a500000000000000000000000000000000000000000000000000000000022000000006
:0e13c5000000080b7305000003e305c564007b
:2013d3000000000000000000000000000000000000000000000000000000000002dea14039
:0e13f300000000c000000000000605fe2400ff
:201401000000000000000000000000000000000000000000000000000000000003eba740f6
:0e142100000001000000000000002fcf0400ba
:20142f00000000000000000000000000000000000000000000000000000c003c23f8c34037
:0e144f00300000086a8001c000004edc14006e
:20145d000000000000000000000000000000000000000000000000000000001c41e8e24008
:0e147d000000000b0140000002c20ddc7400f4
:02148b0000005f
:03148d007200905a
:02149000110148
:02149200010156
:201494000000000000000000000000100000000000004000000000000100000000004000a7
:0e14b400000000000100000000000004000025
:2014c2000000000000000000000000200000000000008000000000000200000000008000e8
:0e14e2000000000002000000000000080000f2
:2014f0000000000000000000000000000000000000000000000000000000000000000000dc
:0e1510000000000000000000000000000000cd
:20151e000000000000000000000000000000000000000000000000000000000000000000ad
:0e153e0000000000000000000000000000009f
:20154c0000000000000000000000000000000000000000000000000000000000000000007f
:0e156c00000000000000000000000000000071
:20157a00000000000000000000000000000000000000000000000000000000000000000051
:0e159a00000000000000000000000000000043
:2015a800000000000000000000000000000000000000000000000000000000000000000023
:0e15c800000000000000000000900000000085
:2015d6000000000000000000000000000000000000000000000000000000000000000000f5
:0e15f600000000000000000000800000000067
:201604000000000000000000000000000000000000000000000000000000000000000000c6
:0e1624000000000000000000000000000000b8
:20163200000000000000000000000000000000000000000000000000000000000000000098
:0e16520000000000000000000000000000008a
:2016600000000000000000000000000000000000000000000000000000000000000000006a
:0e168000000000000000000000000008000054
:20168e00000000000000000000000000000000000000000000000000030000000000000039
:0e16ae0000000000000000000000000400002a
:2016bc00000000000000000000000000000000000000000000001e000000000000000000f0
:0e16dc00000000000000000000000000000000
:2016ea000000000000000000000000000000000000000000000000000000000000000000e0
:0e170a000000000000000000000000000000d1
:201718000000000000000000000000000000000000000000000000000000000000000000b1
:0e1738000000000000000000000000000000a3
:20174600000000000000000000000000000000000000000000000000000000000000000083
:0e176600000000000000000000000000000075
:20177400000000000c30000000000000000000000000000000000000000000000000000019
:0e179400000000000000000000000000000047
:2017a200000000000c302000000000000000000000000000000000000000000000000000cb
:0e17c200000000000000000000000000000019
:2017d000000000000c300000000000000000000000000000000000000000000000000000bd
:0e17f0000000000000000000000000000000eb
:2017fe00000000000c3020000000000000000000000000000000000000000000000000006f
:0e181e000000000000000000000000000000bc
:20182c00000000340c3000000000000000000000000000000000000000000000000000002c
:0e184c0000000000000000000000000000008e
:20185a00000000200c302000000000000000000000000000000000000000000000000000f2
:0e187a00000000000000000000000000000060
:20188800000000000c30000000000000000000000000000000000000000000000000000004
:0e18a800000000000000000000000000000032
:2018b600000000000c302000000000000000000000000000000000000000000000000000b6
:0e18d600000000000000000000000000000004
:2018e400000003400c30000000000000000000000000000000000000000000000000000065
:0e19040000000000000000c000000000000015
:20191200000000400c30200000000000000000000000000000000000000000000000000019
:0e193200000000000000004000000000000067
:20194000000000000c3000000000000000000000000000000000000000000000000000004b
:0e196000000000000000000000000000000079
:20196e00000000000c302000000000000000000000000000000000000000000000000000fd
:0e198e0000000000000000000000000000004b
:20199c00000000000c300000000000000000000000000000000000000000000000000000ef
:0e19bc000000000000000000004000000000dd
:2019ca00000000000c302000000000000000000000000000000000000000000000000000a1
:0e19ea000000000000000000000000000000ef
:2019f800000000000c30000000000000000000000000000000000000000000000000000093
:0e1a180000000000000000000000040a500062
:201a2600000000000c30200000000000000000000000000000000000000000000000000044
:0e1a4600000000000000000000002005a000cd
:201a5400000000000c30000000000000000000000000000000020000000000000000000034
:0e1a7400000000000000000000000000000064
:201a8200000000000c302000000000000000000000000000000500000000000000000000e3
:0e1aa200000000000000000000000000000036
:201ab000000000000c300000000000000000000000000000000000000000000000000000da
:0e1ad000000000000000000000000000000008
:201ade00000000000c3020000000000000000000000000000000000000000000000000008c
:0e1afe000000000000000000000000000000da
:201b0c00000000000c3000000000000000000000000000000000000000000000000000007d
:0e1b2c000000000000000000000000000000ab
:201b3a00000000000c3020000000000000000000000000000000000000000000000000002f
:0e1b5a0000000000000000000000000000007d
:201b6800000000000c30000000000000000000000000000000000000000000000000000021
:0e1b880000000000000000000000000000004f
:201b9600000000000c302000000000000000000000000000000000000000000000000000d3
:0e1bb600000000000000000000000000000021
:201bc400000000000c300000000000000000000000000000000000000000000000000000c5
:0e1be4000000000000000000000000000000f3
:201bf200000000000c30200000000000000000000000000000000000000000000000000077
:0e1c12000000000000000000000000000000c4
:201c2000000000000c30000000000000000000000000000000000000000000000000000068
:0e1c4000000000000000000000000000000096
:201c4e00000000000c3020000000000000000000000000000000000000000000000000001a
:0e1c6e00000000000000000000000000000068
:201c7c00000000000c3000000000000000000000000000000000000000000000000000000c
:0e1c9c0000000000000000000000000000003a
:201caa00000000000c302000000000000000000000000000000000000000000000000000be
:0e1cca0000000000000000000000000000000c
:201cd800000000000c300000000000000000000000000000000000000000000000000000b0
:0e1cf8000000000000000000000000000000de
:201d0600000000000c30200000000000000000000000000000000000000000000000000061
:0e1d26000000000000000000000000000000af
:201d3400000000000c30000000000000000000000000000000000000000000000000000053
:0e1d5400000000000000000000000000000081
:201d6200000000000c30200000000000000000000000000000000000000000000000000005
:0e1d820000000000000000c000000000000093
:201d9000000000000c300000000000000000000000000000000000000000000000000000f7
:0e1db0000000000000000000004200000000e3
:201dbe00000000000c302000000000000000000000000000000000000000000000000000a9
:0e1dde00000000000000000002604000000055
:201dec00000000000c3000000000000000000000000000000000000000000000000000009b
:0e1e0c000000000000000000000000000000c8
:201e1a00000000000c3020000000000000000000000000000000000000000000000000004c
:0e1e3a0000000000000000000000000000009a
:201e4800000000000c3000000000000000000000000000000000000000000000000000003e
:0e1e680000000000000000000002000000006a
:201e7600000000000c302000000000000000000000000000000000000000000000000000f0
:0e1e96000000000000000000000040000000fe
:201ea400000000000c300000000000000000000000000000000000000000000000000000e2
:0e1ec400000000000000000000000000000010
:201ed200000000000c30200000000000000000000000000000000000000000000000000094
:0e1ef2000000000000000000000000000000e2
:201f0000000000000c30000000000000000000000000000000000000000000000000000085
:0e1f20000000000000000000000002050400a8
:201f2e00000000000c30200000000000000000000000000000000000000000000000000037
:0e1f4e00000000000000000000001c85048060
:201f5c00000000000c30000000000000000000000000000000000000000000000000000029
:0e1f7c00000000000000000000003c05fc001a
:201f8a00000000000c302000000000000000000000000000000000000000000000000000db
:0e1faa0000000000000000e000001c8f5c0042
:201fb800000000000c300000000000000000000000000000000000000000000000000000cd
:0e1fd800000000000000000000002c05fc408e
:201fe600000000000c3020000000000000000000000000000000000000000000000000007f
:0e200600000000000000000000001c8f5c00c5
:202014000000000000000000000000000000000000000000000000000000000000000000ac
:0e203400004000000000000100400605fc0016
:2020420000000000000000000000000000000000000000000000000000000000000000007e
:0e20620030000000000000c002661e8f5c000f
:20207000000000000000000000000000000000000000000000000000000000000000000050
:0e209000004000800000000100022605fc0058
:20209e00000000000000000000000000000000000000000000000000000000000000000022
:0e20be0000000010000000010060568f5c0062
:2020cc000000000000000000000000000000000000000000000000000000000000000000f4
:0e20ec0000000000003f000000000000f400b3
:2020fa000000000000000000000000000000000000000000000000000000000000000000c6
:0e211a0000000000683d000000001e8f0c0059
:20212800000000000000000000000000000000000000000000000000000000000000000097
:0e214800000000a00000000000000000f400f5
:20215600000000000000000000000000000000000000000000000000000000000000000069
:0e217600000000000000000000001e8f0c00a2
:2021840000000000000000000000000000000000000000000000000000000000000000003b
:0e21a400000000000000000000020200f40035
:2021b2000a0000000000000000000000000000000000000000000000000000000000000003
:0e21d20000001800000000000160548f0c0097
:2021e0000000000000000000000000000000000000000000000000000000000000000000df
:0e2200000000000577af000000028200f4002d
:20220e000000000000000000000000000000000000000000000000000000000000000000b0
:0e222e00000000083b5d000000065c8f0c0005
:20223c00000000000000000000000000000000000000000000000000000000000000000082
:0e225c00000000000000000000000000f40080
:20226a00000000000000000000000000000000000000000000000000000000000000000054
:0e228a0038000000000000e000001c8f0c0077
:20229800000000000000000000000000000000000000000000000000000000000000000026
:0e22b80000000000000000000002c2a00000b4
:2022c6000000000000000000000000000000000000000000000000000000000000000000f8
:0e22e600000000000000000001c014100800fd
:2022f400010000000000000400000000000010000000000000000000000010000000a00005
:0e231400004050000000000100000005f01025
:2023220000000000000000000000000000000000000000000000000000000000007aa00081
:0e234200300080000000000000001ca5f0002c
:20235000010000000000000400000000000000042000000000000000000010000000000034
:0e2370000040000003c00001024014ee70089f
:20237e000000000000000000000000000000102604000000000000000000001600000000ef
:0e239e00000018007bc1000003e0000db00835
:2023ac000000000000000000000000000000000000000000000000000000000420000000ed
:0e23cc000000000003c100000000000f5010d0
:2023da000000000000000000000000000000000000000000000000000000000000000000e3
:0e23fa000000000063c1000001401caf50084d
:2024080000000000000000000000000000000000000000000000000000000000280000008c
:0e24280000000000000000000000000f001087
:20243600000000000000000000000000000000000000000000000000000000000400000082
:0e2456000000000000000000000001cf0400a4
:20246400000000000000000000000000000000000000000000000000000000020020fa0834
:0e2484000000f1000000000001401e00f0000a
:202492000000000000000000000000000000000000000000000000000000001600cefa004c
:0e24b20000008180000000000000048f000088
:2024c000000000000000000000000000000000000020550000000000000000000000000087
:0e24e0000000000dbbc1000000034099600029
:2024ee00000000000000000000000000000c000001c855480000000000000000000000005c
:0e250e0000000009e9c58000016046896800f0
:20251c000000000000000000000000000000000000000f00000000000000002c0010a000b4
:0e253c000000900041550000000002a9600060
:20254a00000000000000000000000000000e000001c8f0c8000000000000002000fca00026
:0e256a00780001a76955a0e0014004996800bf
:202578000000000000000000000000000000000000000f0c00000000000000000000000028
:0e259800000000000000000000028290000021
:2025a6000000000000000000000000000000000001c8f0c00000000000000000000000009c
:0e25c6000000000000000000000014000800eb
:2025d4000000000000000000000894000000000400200f0800000000000000002010f040b0
:0e25f40000001003e29d00000022fc02508057
:20260200c0000000000003000181de200480002061e8f0c000000000000c00000408f04090
:0e262200302801adf69180c008e03ec00024d3
:2026300000000015d8140000000f7b400000000400200f0000000000000000000000f0405c
:0e2650000000000134c52000000204a20000ba
:20265e00000000059634100000019320000000260168f0c00000000000000000000cf0404e
:0e267e00000000082cc9020000066cb000002d
:20268c0000000200000000000000f600d000000000000f0000000000000000040010f04013
:0e26ac000000008383ed200000003f9a140020
:2026ba0000000040000000000000124190000a000168f0c00000000000000026001af0404a
:0e26da0000001819e1d12c000000148b5400f0
:2026e8000000000000000000000f1e400000000000000f0001000000000000003800f048e5
:0e270800000000ab2e00200000422faa14009b
:20271600000000000000000001817ec94400000001e8f0c00000000000000006001cf040ab
:0e273600000058b9f400200003e6548a740035
:202744000000000000000000000a9402d000000020200f0000000000000000000000f04086
:0e2764000000900343c0000000002502b400f6
:20277200000000000000000005001201108000060548f0c00000000000000000601cf048e8
:0e27920000008181fa800000006000e17420e8
:2027a0000000200000000000000873508000000020200f0000000000000400040000f04027
:0e27c000000030010275000001629e00400022
:2027ce00000160000000000800018020400c00006548f0c000000000000c0020000af040d2
:0e27ee000000018fb19988000342bec0c020d8
:2027fc000000040000000000000a3402d000000000000f00000000000000001c0000f0404e
:0e281c000000f8c38280a000004014000000fd
:20282a00e000060000000380018b1201108e000001c8f0c000000000000e00000018f04019
:0e284a003800d00be3c040e0020017802020d1
:202858000000000000000000030b0c280000000000000f0400000000000000002010f040ab
:0e2878000000000b6e8500000002c100a000f1
:202886000000c00000000000001952280000000001c8f0c00000000000000000041ef04014
:0e28a60000000005b2d50000014684c0a0006d
:2028b4000000000000000000050ab66e9000000400200f0000000000000000042be00a40b5
:0e28d4000000008f83d500000000000000000f
:2028e2000000000000000300051a865d5000002061e8f0c000000000000c003400fea54045
:0e2902003000001da81501c0000000000000fc
:202910000000000000000000090a04280000000400200f1000000000000000043ddaa74023
:0e2930008000008542a90000040000000000a5
:20293e000000000000000000051a3f28000000260168f0c00000000000000020027fa14032
:0e295e00000050f079550100006000000000fc
:20296c000000000000000000050094315000000000200f000000000000000c002a6e4a40d4
:0e298c000000000302a900000000000000008f
:20299a0000000000000000000998de19508000000048f0d0000000000000000002ffe54087
:0e29ba00003018082955000000000000000041
:2029c80000000000000000000500dc000000000000000f00000000000000080021fba740f4
:0e29e800000000853fc1000003440e00f00017
:2029f6000000000000000000078a9f280000000001e8f0c00000000000000006075ea14084
:0e2a160000000013e9c500080002948f0000c4
:202a24000000000000000000000017000000000020200f000000000000000000295f7a40ea
:0e2a440000001003bf950400002000b96000e0
:202a52000000000000000000019e3ba0000000000548f0c0000000000000000661eda140b8
:0e2a72000000818d2895000001401689680043
:202a800000000000000000000019fa000000000020200f0000000000000400342dd9c14095
:0e2aa0000005000b026904000002c2896000fc
:202aae0000000000000000000008d3e0000c00006548f0c0000000000004000062dfc74098
:0e2ace0000021980719508000000149968003c
:202adc000000000000000000091df3400000000000000f0100000000000000026c6e4a400b
:0e2afc00000000004028400007402cbb641082
:202b0a000000000000000380000f7320000e000001c8f0c000000000000e001428fee54092
:0e2b2a0038000007202880e000001c886c00a6
:202b3800000400000000000000807ac0000000002c000f04000000000000000225fba74077
:0e2b5800000000bd3400010000040200002057
:202b660000000000000000000580ffa00000000005c8f0c00000000000000014077fa14033
:0e2b860000000003ea000000080284000800be
:202b94000000000000000000051000000000000400200f0000000000000000000010f04099
:0e2bb40000000000000000000002c000000051
:202bc2000000000000000300080800000000002061e8f0c000000000000c0000001cf0406f
:0e2be20030001800000000c00142800000001a
:202bf0000000000000000000050a00000000000400200f00000000000000000000405a40a9
:0e2c10000000b0eb630d800001401709c0000a
:202c1e00000000000000000005810000000000260168f0c000000000000000800200a54169
:0e2c3e0000009809f58d00000162268ac02072
:202c4c0000c0000000000000000a00000000000000000f0000000000000000003010f0401f
:0e2c6c000000019d0395000001422581c0007b
:202c7a000000000000000000059b0000000000000168f0c00000000000000000040cf04041
:0e2c9a00000001cfa895880000005d96e000c4
:202ca8000000000000000000050ab0000000000000000f0000000000000000002000f040ee
:0e2cc80000000000c280000001c3bf09c00070
:202cd6000000000000000000081abfa00080000001e8f0c00000000000000006040af04000
:0e2cf60000000001a28000000006ac8ac02091
:202d040000000000000000000000f3400000000020200f0000000000000000040000000029
:0e2d2400000000b9a769200000402481c00013
:202d3200000000000000000000007320000000060548f0c00000000000000020600000006b
:0e2d520000000001ac95000003e005d6e00093
:202d600000000000000000000d18f7400000000020200f0000000000000400040000f04070
:0e2d80000000080083d400c000200c03458032
:202d8e000000000000000000018bf720000c00006548f0c00000000000040020001af040ab
:0e2dae00000050073bd400c0004005ab94204d
:202dbc0000000000000000000100d0397000000000000f000000000000000c1c0010f04006
:0e2ddc00000071b73ca101000002bf07e0003b
:202dea00000000000000038008005609588e000001c8f0c000000000000e0020001af04008
:0e2e0a003800f8a0385100e00162adc0a020f1
:202e18000000000000000000008b92c00000000000000f0200000000000000003800f04044
:0e2e3800000000000000000002401ea0b000dc
:202e46000000000000000000050012a00000000001c8f0c00000000000000000000cf04000
:0e2e660000000180000000000146a4eab00058
:022e740000005c
:032e760072007077
:022e7900110244
:022e7b00010153
:202e7d00000000000000000002000000000000080000000002000000000000080000000021
:0e2e9d00000020000000000000800000000087
:202eab000000000000000000010000000000000400000000010000000000000400000000fd
:0e2ecb000000100000000000004000000000a9
:202ed9000000000000000000000000000000000000000000000000000000000000000000d9
:0e2ef9000000000000000000000000000000cb
:202f07000000000000000000000000000000000000000000000000000000000000000000aa
:0e2f270000000000000000000000000000009c
:202f350000000000000000000000000000000000000000000000000000000000000000007c
:0e2f550000000000000000000000000000006e
:202f630000000000000000000000000000000000000000000000000000000000000000004e
:0e2f8300000000000000000000000000000040
:202f9100000000000000000000000000000000000000000000000000000000000000000020
:0e2fb100000000000e00000000000000000004
:202fbf000000000000000000000000000000000000000000000000000000000000000000f2
:0e2fdf000000000001000000000000000000e3
:202fed000000000000000000000000000000000000000000000000000000000000000000c4
:0e300d00000000000000000000802000000015
:20301b00000000000000000000000000000000000000000000000000000000000000000095
:0e303b00000000000000000000000000000087
:20304900000000000000000000000000000000000000000000000000000000000000000067
:0e306900000010000000000000000000000049
:20307700000000000000000000000000000000000000000000000000000000000000000039
:0e30970000002000000000000000000000000b
:2030a50000000000000000000000000000000000000000000000000000000000000000000b
:0e30c5000000000800000000000000000000f5
:2030d3000000000000000000000000000000000000000000000000000000000000000000dd
:0e30f30000000000000000000000000000804f
:203101000000000000000000000000000000000000000000000000000000000000000000ae
:0e312100000000000000000000002000008000
:20312f00000000000000000000000000000000000000000000000000000000000000000080
:0e314f0000000004000000000000000000006e
:20315d001030c0000002000000000000000000000000000000000000000000000000000050
:0e317d00000000000000000000000000000044
:20318b000030c0000000000000000000000000000000000000000000000000000000000034
:0e31ab00000000000000000000000000000016
:2031b9001030c00000000000000000000000000000000000000000000000000000000000f6
:0e31d9000000000000000000000000000000e8
:2031e7000030c00000000000000000000000000000000000000000000000000000000000d8
:0e3207000000000000000000000000000000b9
:203215001030c0000000000000000000000000000000000000000000000000000000000099
:0e32350000000000000000000000000000008b
:203243000030c000000000000000000000000000000000000000000000000000000000007b
:0e32630000000000000000000000000000005d
:203271001030c000000000000000000000000000000000000000000000000000000000003d
:0e32910000000000000000000000000000200f
:20329f000030c000000000000000000000000000000000000000000000000000000000001f
:0e32bf00000000000000000000000000000001
:2032cd001030c00000000000000000000000000000000000000000000000000000000000e1
:0e32ed000000000000000000000000000000d3
:2032fb000030c00000000000000000000000000000000000000000000000000000000000c3
:0e331b000000000000000000000000000000a4
:203329001030c0000000000000000000000000000000000000000000000000000000000084
:0e334900000000000000000000000000000076
:203357000030c0000000000000000000000000000000000000000000000000000000000066
:0e337700000000000000000000000000000048
:203385001030c0000000000000000000000000000000000000000000000000000000000028
:0e33a50000000000000000000000000000001a
:2033b3000030c000000000000000000000000000000000000000000000000000000000000a
:0e33d3000000000000000000000000000000ec
:2033e1001030c00000000000000000000000000000000000000000000000000000000000cc
:0e3401000000000000000000000000000000bd
:20340f000030c00000000000000000000000000000000000000000000000000000000000ad
:0e342f0000000000000000000000000000008f
:20343d001030c1a000000000000000000000000000000000000000000000000000000000ce
:0e345d00000000000000000000000000000061
:20346b000030c0000000000000000000000000000000000000000000000000000000000051
:0e348b00000000000000000000000000000033
:203499001030c0000000000000000000000000000000000000000000000000000000000013
:0e34b900000000000000000000000000000005
:2034c7000030c00000000000000000000000000000000000000000000000000000000000f5
:0e34e7000000000000000000000000000000d7
:2034f5001030c00000000000000000000000000000000000000000000000000000000000b7
:0e3515000000000000000000000000000000a8
:203523000030c0000000000000000000000000000000000000000000000000000000000098
:0e35430000000000000000000000000000007a
:203551001030c000000000000000000000000000000000000000000000000000000000005a
:0e35710000000000000000000000000000004c
:20357f000030c0000e0000000000000000000000000000000000000000000000000000002e
:0e359f0000000000000000000000000000001e
:2035ad001030c00000000000000000000000000000000000000000000000000000000000fe
:0e35cd000000000000000000000000000000f0
:2035db000030c00000000000000000000000000000000000000000000000000000000000e0
:0e35fb000000000000000000000000000000c2
:203609001030c00000000000000000000000000000000000000000000000000000000000a1
:0e362900000000000000000000000000000093
:203637000030c0000000000000000000000000000000000000000000000000000000000083
:0e365700000000000000000000000000000065
:203665001030c0000000000000000000000000000000000000000000000000000000000045
:0e368500000000000000000000000000000037
:203693000030c0000000000000000000000000000000000000000000000000000000000027
:0e36b300000000000000000000000000000009
:2036c1001030c00000000000000000000000000000000000000000000000000000000000e9
:0e36e1000000000000000000000000000000db
:2036ef000030c00000000000000000000000000000000000000000000000000000000000cb
:0e370f000000000000000000000000000000ac
:20371d001030c000000000000000000000000000000000000000000000000000000000008c
:0e373d0000000000000000000000000000007e
:20374b000030c000000000000000000000000000000000000000000000000000000000006e
:0e376b00000000000000000000000000000050
:203779001030c0000000000000000000000000000000000000000000000000000000000030
:0e379900000000000000000000000000000022
:2037a7000030c0000000000000000000000000000000000000000000000000000000000012
:0e37c7000000000000000000000000000000f4
:2037d5001030c00000000000000000000000000000000000000000000000000000000000d4
:0e37f5000000000000000000000000000000c6
:203803000030c00000000000000000000000000000000000000000000000000000000000b5
:0e382300000000000000000000000000000097
:203831001030c0000000000000000000000000000000000000000000000000000000000077
:0e385100000000000000000000000000000069
:20385f000030c0000000000000000000000000000000000000000000000000000000000059
:0e387f0000000000000000000000000000003b
:20388d001030c00000000000000000000000000000000000000000000040000000000000db
:0e38ad000000000000200000000000000000ed
:2038bb000030c00000000000000000000000000000000000000000000000000000000000fd
:0e38db000000000000100000000000000000cf
:2038e9001030c00000000000000000000000000000000000000000000000000000000000bf
:0e3909000000000000000000000000000000b0
:203917000030c00000000000000000000000000000000000000000000000000000000000a0
:0e393700000000000000000000000000000082
:203945001030c0000000400000000000000000000000000000000000000000000000000022
:0e396500000000000000000000000000000054
:203973000030c00000008000000000000000000000000000000000000000000000000000c4
:0e399300000000000000000000000000000026
:2039a1001030c0000000000000000000000000000000000000000000000000000000000006
:0e39c1000000000000000000000000000000f8
:2039cf000030c00000000000000000000000000000000000000000000000000000000000e8
:0e39ef000000000000000000000000000000ca
:2039fd000000000000000000000000000000000000000000000000000000000000000000aa
:0e3a1d0000000000000000000000000000009b
:203a2b0000000000000000000000000000000000000000000000000000000000000000007b
:0e403900000000000000000017cdc0000000d5
:20404700000000000000000000000000000000000000000000000000000000000000000059
:0e406700000000000000000017c20000000072
:2040750000000000000000000000000000000000000000000000000000000000000000002b
:0e40950000000000000000000000000000001d
:2040a3000000000000000000000000000000000000000000000000000000000000000000fd
:0e40c3000000000000000000000000000000ef
:2040d1000000000000000000000000000000000000000000000000000000000000000000cf
:0e40f10000000000000000012bcdc000000008
:2040ff000000000000000000000000000000000000000000000000000000000000000000a1
:0e411f0000000000000000002bc200000000a5
:20412d00000000000000000000000000000000000000000000000000000000000000000072
:0e414d00000000000000000000000000010063
:20415b00000000000000000000000000000000000000000000000000000000000000000044
:0e417b000000000000000000000003000080b3
:20418900000000000000000000000000000000000000000000000000000000000000000016
:0e41a900000000000000000000000000000008
:2041b7000000000000000000000000000000000000000000000000000000000000000000e8
:0e41d7000000000000000000000000080000d2
:2041e5000000000000000000000000000000000000000000000000000000000000000000ba
:0e4205000000000000000000000000000000ab
:2042130000000000000000000000000000000000000000000000000000000000000000008b
:0e42330000000000000000000000000000007d
:2042410000000000000000000000000000000000000000000000000000000000000000005d
:0e4261000000000000000000000000000080cf
:20426f0000000000000000000000000000000000000000000000000000000000000000002f
:0e428f000000000000000000000000000140e0
:02429d0000001f
:03429f007200901a
:0242a200110306
:0242a400010116
:2042a6000000000000000000020000000000000800000000020000000000000800000000e4
:0e42c60000002000000000000080000000004a
:2042d4000000000000000000010000000000000400000000010000000000000400000000c0
:0e42f40000001000000000000040000000006c
:2043020000000000000000000000000000000000000000000000000000000000000000009b
:0e43220000000000000000000000000000008d
:2043300000000000000000000000000000000000000000000000000000000000000000006d
:0e43500000000000000000000000000000005f
:20435e0000000000000000000000000000000000000000000000000000000000000000003f
:0e437e00000000000000000000000000000031
:20438c00000000000000000000000000000000000000000000000000000000000000000011
:0e43ac00000000000000000000000000000003
:2043ba000000000000000000000000000000000000000000000000000000000000000000e3
:0e43da000000000000000000000000000000d5
:2043e8000000000000000000000000000000000000000000000000000000000000000000b5
:0e4408000000000000000000000000000000a6
:2044160000000000000000000000000000000000000000000000000000000008020000007c
:0e4436000000000000000000008020000000d8
:20444400000000000000000000000000000000000000000000000000000000000000000058
:0e44640000000000000000000000000000004a
:2044720000000000000000000000000000000000000000000000000000000000000000002a
:0e44920000000000000000000000000000001c
:2044a0000000000000000000000000000000000000000000000000000000000000000000fc
:0e44c0000000000000000000000000000000ee
:2044ce000000000000000000000000000000000000000000000000000000000000000000ce
:0e44ee00000000000000000000000000008040
:2044fc00000000000000000000000000000000000000000000000000000000000000000898
:0e451c00000000000000000000000000008011
:20452a0000000000000000000000000000000000000000000000000000000000020000006f
:0e454a00000000000000000000002000000043
:204558000000000000000000000000000000000000000000000000000000000000800000c3
:0e457800000000000000000000000000000035
:204586000030c0000000000000000000000000000000000000000000000000000000000025
:0e45a600000000000000000000000000000007
:2045b4001030c00000000000000000000000000000000000000000000000000000000000e7
:0e45d4000000000000000000000000000000d9
:2045e2000030c00000000000000000000000000000000000000000000000000000000000c9
:0e4602000000000000000000000000000000aa
:204610001030c000000000000000000000000000000000000000000000000000000000008a
:0e46300000000000000000000000000000007c
:20463e000030c000000000000000000000000000000000000000000000000000000000006c
:0e465e0000000000000000000000000000004e
:20466c001030c000000000000000000000000000000000000000000000000000000000002e
:0e468c00000000000000000000000000000020
:20469a000030c0000000000000000000000000000000000000000000000000000000000010
:0e46ba000000000000000000000000000000f2
:2046c8001030c00000000000000000000000000000000000000000000000000000000000d2
:0e46e8000000000000000000000000000000c4
:2046f6000030c00000000000000000000000000000000000000000000000000000000000b4
:0e471600000000000000000000000000000095
:204724001030c0000000000000000000000000000000000000000000000000000000000075
:0e474400000000000000000000000000000067
:204752000030c0000000000000000000000000000000000000000000000000000000000057
:0e477200000000000000000000000000000039
:204780001030c0000000000000000000000000000000000000000000000000000000000019
:0e47a00000000000000000000000000000000b
:2047ae000030c00000000000000000000000000000000000000000000000000000000000fb
:0e47ce000000000000000000000000000000dd
:2047dc001030c00000000000000000000000000000000000000000000000000000000000bd
:0e47fc000000000000000000000000000000af
:20480a000030c000000000000000000000000000000000000000000000000000000000009e
:0e482a00000000000000000000000000000080
:204838001030c0000000000000000000000000000000000000000000000000000000000060
:0e485800000000000000000000000000000052
:204866000030c0000000000000000000000000000000000000000000000000000000000042
:0e488600000000000000000000000000000024
:204894001030c0000000000000000000000000000000000000000000000000000000000004
:0e48b4000000000000000000000000000000f6
:2048c2000030c00000000000000000000000000000000000000000000000000000000000e6
:0e48e2000000000000000000000000000000c8
:2048f0001030c00000000000000000000000000000000000000000000000000000000000a8
:0e491000000000000000000000000000000099
:20491e000030c0000000000000000000000000000000000000000000000000000000000089
:0e493e0000000000000000000000000000006b
:20494c001030c000000000000000000000000000000000000000000000000000000000004b
:0e496c0000000000000000000000000000003d
:20497a000030c000000000000000000000000000000000000000000000000000000000002d
:0e499a0000000000000000000000000000000f
:2049a8001030c00000000000000000000000000000000000000000000000000000000000ef
:0e49c8000000000000000000000000000000e1
:2049d6000030c00000000000000000000000000000000000000000000000000000000000d1
:0e49f600000000000000000000000000800033
:204a04001030c0000000000000000000000000000000000000000000000000000000000092
:0e4a2400000000000000000000000000000084
:204a32000030c0000000000000000000000000000000000000000000000000000000000074
:0e4a5200000000000000000000000000000056
:204a60001030c0000000000000000000000000000000000000000000000000000000000036
:0e4a8000000000000000000000000000000028
:204a8e000030c0000000000000000000000000000000000000000000000000000000000018
:0e4aae000000000000000000000000000000fa
:204abc001030c00000000000000000000000000000000000000000000000000000000000da
:0e4adc000000000000000000000000000000cc
:204aea000030c00000000000000000000000000000000000000000000000000000000000bc
:0e4b0a0000000000000000000000000000009d
:204b18001030c0000000000000000000000000000000000000000000000000000000000479
:0e4b380000000000000000000000000000006f
:204b46000030c000000000000000000000000000000000000000000000000000000000005f
:0e4b6600000000000000000000000000000041
:204b74001030c0000000000000000000000000000000000000000000000000000000000021
:0e4b9400000000000000000000000000000013
:204ba2000030c0000000000000000000000000000000000000000000000000000000000003
:0e4bc2000000000000000000000000000000e5
:204bd0001030c00000000000000000000000000000000000000000000000000000000000c5
:0e4bf0000000000000000000000000000000b7
:204bfe000030c00000000000000000000000000000000000000000000000000000000000a7
:0e4c1e00000000000000000000000000000088
:204c2c001030c0000000000000000000000000000000000000000000000000000000000068
:0e4c4c0000000000000000000000000000005a
:204c5a000030c000000000000000000000000000000000000000000000000000000000004a
:0e4c7a0000000000000000000000000000002c
:204c88001030c000000000000000000000000000000000000000000000000000000000000c
:0e4ca8000000000000000000000000000000fe
:204cb6000030c00000000000000000000000000000000000000000000000000000000000ee
:0e4cd6000000000000000000000000000000d0
:204ce4001030c00000000000000000000000000000000000000000000000000000000000b0
:0e4d04000000000000000000000000000000a1
:204d12000030c0000000000000000000000000000000000000000000000000000000000091
:0e4d3200000000000000000000000000000073
:204d40001030c0000000000000000000000000000000000000000000000000000000000053
:0e4d6000000000000000000000000000000045
:204d6e000030c0000000000000000000000000000000000000000000000000000000000035
:0e4d8e00000000000000000000000000000017
:204d9c001030c00000000000000000000000000000000000000000000000000000000000f7
:0e4dbc000000000000000000000000000000e9
:204dca000030c00000000000000000000000000000000000000000000000000000000000d9
:0e4dea000000000000000000000000000000bb
:204df8001030c000000000000000000000000000000000000000000000000000000000009b
:0e4e180000000000000000000000002000006c
:204e260000000000000000000000000000000000000000000000000000000000000000006c
:0e4e460000000000000000000000000002005c
:204e540000000000000000000000000000000000000000000000000000000000000000003e
:0e4e7400000000000000000000000000000030
:204e8200000000000000000000000000000000000000000000000000000000000000000010
:0e4ea20000000000000000000000000d0000f5
:204eb0000000000000000000000000000000000000000000000000000000000000000000e2
:0e4ed0000000000000000000000000000000d4
:204ede000000000000000000000000000000000000000000000000000000000000000000b4
:0e4efe0000000000000000001680e000000030
:204f0c00000000000000000000000000000000000000000000000000000000000000000085
:0e4f2c000000000000000000a940000000008e
:204f3a00000000000000000000000000000000000000000000000000000000000000000057
:0e4f5a00000000000000000000000000000049
:204f6800000000000000000000000000000000000000000000000000000000000000000029
:0e4f880000000000000000000000000000001b
:204f96000000000000000000000000000000000000000000000000000000000000000000fb
:0e4fb6000000000000000000000000000000ed
:204fc4000000000000000000000000000000000000000000000000000000000000000000cd
:0e4fe4000000000000000000000000000000bf
:204ff20000000000000000000000000000000000000000000000000000000000000000009f
:0e501200000000000000000000000000000090
:20502000000000000000000000000000000000000000000000000000000000000000000070
:0e504000000000000000000000000000000062
:20504e00000000000000000000000000000000000000000000000000000000000000000042
:0e506e00000000000000000000000000000034
:20507c00000000000000000000000000000000000000000000000000000000000000000014
:0e509c00000000000000000000000000001cea
:2050aa000000000000000000000000000000000000000000000000000000000000000000e6
:0e50ca000000000000000000000000000000d8
:2050d8000000000000000000000000000000000000000000000000000000000000000000b8
:0e50f8000000000000000000000000000000aa
:20510600000000000000000000000000000000000000000000000000000000000000000089
:0e512600000000000000800000000080020079
:2051340000000000000000000000000000000000000000000000000000000000000000005b
:0e515400000000000000000000000180000cc0
:2051620000000000000000000000000000000000000000000000000000000000000000002d
:0e5182000000f000000000000000000002002d
:205190000000000000000000000000000000000000000000000000000000000000000000ff
:0e51b0000020f380000000000000000000005e
:2051be000000000000000000000000000000000000000000000000000000000000000000d1
:0e51de000000000004000000000000000000bf
:2051ec000000000000000000000000000000000000000000000000000000000000000000a3
:0e520c00000000000200000000000000000092
:20521a00000000000000000000000000000000000000000000000000000000000000000074
:0e523a00000000000000000000000f00000057
:20524800000000000000000000000000000000000000000000000000000000000000000046
:0e526800000000000000000000000818000018
:20527600000000000000000000000000000000000000000000000000000000000000000018
:0e52960000000000000000000000000000000a
:2052a4000000000000000000000000000000000000000000000000000000000000000000ea
:0e52c4000000000000000000000000000000dc
:2052d2000000000000000000000000000000000000000000000000000000000000000000bc
:0e52f2000000000000000000000000000000ae
:2053000000000000000000000000000000000000000000000000000000000000000000008d
:0e53200000000000000000000000000000007f
:20532e0000000000000000000000000000000000000000000000000000000000000000005f
:0e534e00000000000000000097c3c000000037
:20535c00000000000000000000000000000000000000000000000000000000000000000031
:0e537c0000000000000007a6a81ec000001cd4
:20538a00000000000000000000000000000000000000000000000000000000000000000003
:0e53aa000000000000000000000000000000f5
:2053b8000000000000000000000000000000000000000000000000000000000000000000d5
:0e53d8000000000000000000000000000000c7
:2053e6000000000000000000000000000000000000000000000000000000000000000000a7
:0e540600000000000000000403c200000000cf
:20541400000000000000000000000000000000000000000000000000000000000000000078
:0e543400000000000000000083ce0000000019
:2054420000000000000000000000000000000000000000000000000000000000000000004a
:0e54620000000000000000000000000000003c
:2054700000000000000000000000000000000000000000000000000000000000000000001c
:0e54900000000000000000000000000000000e
:20549e000000000000000000000000000000000000000000000000000000000000000000ee
:0e54be000000000000000000000005000000db
:2054cc000000000000000000000000000000000000000000000000000000000000000000c0
:0e54ec000000000000000000000000000000b2
:2054fa00000000000000000000000000000000000000000000000000000000000000000092
:0e551a00000000000000000000000000000083
:20552800000000000000000000000000000000000000000000000000000000000000000063
:0e554800000000000000000000000000000055
:20555600000000000000000000000000000000000000000000000000000000000000000035
:0e557600000000000000000000000000000027
:20558400000000000000000000000000000000000000000000000000000000000000000007
:0e55a4000000000000000000000000000000f9
:2055b2000000000000000000000000000000000000000000000000000000000000000000d9
:0e55d2000000000000000000000000100000bb
:2055e0000000000000000000000000000000000000000000000000000000000000000000ab
:0e56000000000000000000000000000a000092
:20560e0000000000000000000000000000000000000000000000000000000000000000007c
:0e562e0000000000000000003e808000000030
:20563c0000000000000000000000000000000000000000000000000000000000000000004e
:0e565c0000000000000000003d540000001c93
:20566a00000000000000000000000000000000000000000000000000000000000000000020
:0e568a00000000000000000000000000000012
:205698000000000000000000000000000000000000000000000000000000000000000000f2
:0e56b8000000000000000000000000080000dc
:2056c6000000000000000000000000000000000000000000000000000000000000000000c4
:0e56e6000000000000000000b4ee91900000f3
:2056f400000000000000000000000000000000000000000000000000000000000000000096
:0e5714000000000000000000a0e69b9c000cbe
:20572200000000000000000000000000000000000000000000000000000000000000000067
:0e57420000000000000000048bc7e110000012
:20575000000000000000000000000000000000000000000000000000000000000000000039
:0e577000000000000000000081df880800003b
:20577e0000000000000000000000000000000000000000000000000000000000000000000b
:0e579e00000000000000000083e5b0100000d5
:2057ac000000000000000000000000000000000000000000000000000000000000000000dd
:0e57cc00000000000000000091f7a18e000018
:2057da000000000000000000000000000000000000000000000000000000000000000000af
:0e57fa0000000000000000008bdda700000092
:20580800000000000000000000000000000000000000000000000000000000000000000080
:0e582800000000000000000081f78018010061
:20583600000000000000000000000000000000000000000000000000000000000000000052
:0e5856000000000000000004b4e5900800000f
:20586400000000000000000000000000000000000000000000000000000000000000000024
:0e5884000000000000000000a0d59799000071
:205892000000000000000000000000000000000000000000000000000000000000000000f6
:0e58b20000000000000000008bd7e510000889
:2058c0000000000000000000000000000000000000000000000000000000000000000000c8
:0e58e000000000000000000081dd800a000cc6
:2058ee0000000000000000000000000000000000000000000000000000000000000000009a
:0e590e00000000000000000092a5cf80000005
:20591c0000000000000000000000000000000000000000000000000000000000000000006b
:0e593c000000000000000000b975ad00001c66
:20594a0000000000000000000000000000000000000000000000000000000000000000003d
:0e596a0000000000000000000d3c910800004d
:2059780000000000000000000000000000000000000000000000000000000000000000000f
:0e59980000000000000000001dadc9801800d6
:2059a6000000000000000000000000000000000000000000000000000000000000000000e1
:0e59c600000000000000000000000f0e0000b6
:2059d4000000000000000000000000000000000000000000000000000000000000000000b3
:0e59f400000000000000000000000801000c90
:205a0200000000000000000000000000000000000000000000000000000000000000000084
:0e5a2200000000000000000000000000000076
:205a3000000000000000000000000000000000000000000000000000000000000000000056
:0e5a5000000000000000000000000018000030
:205a5e00000000000000000000000000000000000000000000000000000000000000000028
:0e5a7e00000000000000000000000b8000008f
:205a8c000000000000000000000000000000000000000000000000000000000000000000fa
:0e5aac00000000000000000000000b80000061
:205aba000000000000000000000000000000000000000000000000000000000000000000cc
:0e5ada00000000000000000083eda0000000ae
:205ae80000000000000000000000000000000000000000000000000000000000000000009e
:0e5b0800000000000000000191f7e1800000a5
:205b160000000000000000000000000000000000000000000000000000000000000000006f
:0e5b360000000000000400009a81d01800005a
:205b4400000000000000000000000000000000000000000000000000000000000000000041
:0e5b64000000000000000010a957c00f000054
:205b7200000000000000000000000000000000000000000000000000000000000000000013
:0e5b920000000000000000803e820000800c39
:205ba0000000000000000000000000000000000000000000000000000000000000000000e5
:0e5bc00000000000000000003e8fe38a014854
:205bce000000000000000000000000000000000000000000000000000000000000000000b7
:0e5bee0000000000000150008be5f0004000b8
:205bfc00000000000000000000000000000000000000000000000000000000000000000089
:0e5c1c00000000000000200081ddd000001c10
:205c2a0000000000000000000000000000000000000000000000000000000000000000005a
:0e5c4a00000000000003000000000000000049
:205c580000000000000000000000000000000000000000000000000000000000000000002c
:0e5c7800000000000000000000000500000019
:025c860000001c
:035c880072008027
:025c8b00110006
:035c8d0062002f83
:035c90008200008f
:025c930001030b
:065c950000000000000009
:065c9b0000000000000003
:065ca100000000000000fd
:065ca700000000000000f7
:065cad00000000000000f1
:065cb300000000000000eb
:065cb900000000000000e5
:065cbf00000000000000df
:065cc500000000000000d9
:065ccb00000000000000d3
:065cd100000000000000cd
:065cd700000000000000c7
:065cdd00000000000000c1
:065ce300000000000000bb
:065ce900000000000000b5
:065cef00000000000000af
:065cf500000000000000a9
:065cfb00000000000000a3
:065d01000000000000009c
:065d070000000000000096
:065d0d0000000000000090
:065d13000000000000008a
:065d190000000000000084
:065d1f000000000000007e
:065d250000000000000078
:065d2b0000000000000072
:065d31000000000000006c
:065d370000000000000066
:065d3d0000000000000060
:065d43000000000000005a
:065d490000000000000054
:065d4f000000000000004e
:065d550000000000000048
:065d5b0000000000000042
:065d61000000000000003c
:065d670000000000000036
:065d6d0000000000000030
:065d73000000000000002a
:065d790000000000000024
:065d7f000000000000001e
:065d850000000000000018
:065d8b0000000000000012
:065d91000000000000000c
:065d970000000000000006
:065d9d0000000000000000
:065da300000000000000fa
:065da900000000000000f4
:065daf00000000000000ee
:065db500000000000000e8
:065dbb00000000000000e2
:065dc100000000000000dc
:065dc700000000000000d6
:065dcd00000000000000d0
:065dd300000000000000ca
:065dd900000000000000c4
:065ddf00000000000000be
:065de500000000000000b8
:065deb00000000000000b2
:065df100000000000000ac
:065df700000000000000a6
:065dfd00000000000000a0
:065e030000000000000099
:065e090000000000000093
:065e0f000000000000008d
:065e150000000000000087
:065e1b0000000000000081
:065e21000000000000007b
:065e270000000000000075
:065e2d000000000000006f
:065e330000000000000069
:065e390000000000000063
:065e3f000000000000005d
:065e450000000000000057
:065e4b0000000000000051
:065e51000000000000004b
:065e570000000000000045
:065e5d000000000000003f
:065e630000000000000039
:065e690000000000000033
:065e6f000000000000002d
:065e750000000000000027
:065e7b0000000000000021
:065e81000000000000001b
:065e870000000000000015
:065e8d000000000000000f
:065e930000000000000009
:065e990000000000000003
:065e9f00000000000000fd
:065ea500000000000000f7
:065eab00000000000000f1
:065eb100000000000000eb
:065eb700000000000000e5
:065ebd00000000000000df
:065ec300000000000000d9
:065ec900000000000000d3
:065ecf00000000000000cd
:065ed500000000000000c7
:065edb00000000000000c1
:065ee100000000000000bb
:065ee700000000000000b5
:065eed00000000000000af
:065ef300000000000000a9
:065ef900000000000000a3
:065eff000000000000009d
:065f050000000000000096
:065f0b0000000000000090
:065f11000000000000008a
:065f170000000000000084
:065f1d000000000000007e
:065f230000000000000078
:065f290000000000000072
:065f2f000000000000006c
:065f350000000000000066
:065f3b0000000000000060
:065f41000000000000005a
:065f470000000000000054
:065f4d000000000000004e
:065f530000000000000048
:065f590000000000000042
:065f5f000000000000003c
:065f650000000000000036
:065f6b0000000000000030
:065f71000000000000002a
:065f770000000000000024
:065f7d000000000000001e
:065f830000000000000018
:065f890000000000000012
:065f8f000000000000000c
:025f950000000a
:035f970082008005
:025f9a00010301
:065f9c00000000000000ff
:065fa200000000000000f9
:065fa800000000000000f3
:065fae00000000000000ed
:065fb400000000000000e7
:065fba00000000000000e1
:065fc000000000000000db
:065fc600000000000000d5
:065fcc00000000000000cf
:065fd200000000000000c9
:065fd800000000000000c3
:065fde00000000000000bd
:065fe400000000000000b7
:065fea00000000000000b1
:065ff000000000000000ab
:065ff600000000000000a5
:065ffc000000000000009f
:0660020000000000000098
:0660080000000000000092
:06600e000000000000008c
:0660140000000000000086
:06601a0000000000000080
:066020000000000000007a
:0660260000000000000074
:06602c000000000000006e
:0660320000000000000068
:0660380000000000000062
:06603e000000000000005c
:0660440000000000000056
:06604a0000000000000050
:066050000000000000004a
:0660560000000000000044
:06605c000000000000003e
:0660620000000000000038
:0660680000000000000032
:06606e000000000000002c
:0660740000000000000026
:06607a0000000000000020
:066080000000000000001a
:0660860000000000000014
:06608c000000000000000e
:0660920000000000000008
:0660980000000000000002
:06609e00000000000000fc
:0660a400000000000000f6
:0660aa00000000000000f0
:0660b000000000000000ea
:0660b600000000000000e4
:0660bc00000000000000de
:0660c200000000000000d8
:0660c800000000000000d2
:0660ce00000000000000cc
:0660d400000000000000c6
:0660da00000000000000c0
:0660e000000000000000ba
:0660e600000000000000b4
:0660ec00000000000000ae
:0660f200000000000000a8
:0660f800000000000000a2
:0660fe000000000000009c
:0661040000000000000095
:06610a000000000000008f
:0661100000000000000089
:0661160000000000000083
:06611c000000000000007d
:0661220000000000000077
:0661280000000000000071
:06612e000000000000006b
:0661340000000000000065
:06613a000000000000005f
:0661400000000000000059
:0661460000000000000053
:06614c000000000000004d
:0661520000000000000047
:0661580000000000000041
:06615e000000000000003b
:0661640000000000000035
:06616a000000000000002f
:0661700000000000000029
:0661760000000000000023
:06617c000000000000001d
:0661820000000000000017
:0661880000000000000011
:06618e000000000000000b
:0661940000000000000005
:06619a00000000000000ff
:0661a000000000000000f9
:0661a600000000000000f3
:0661ac00000000000000ed
:0661b200000000000000e7
:0661b800000000000000e1
:0661be00000000000000db
:0661c400000000000000d5
:0661ca00000000000000cf
:0661d000000000000000c9
:0661d600000000000000c3
:0661dc00000000000000bd
:0661e200000000000000b7
:0661e800000000000000b1
:0661ee00000000000000ab
:0661f400000000000000a5
:0661fa000000000000009f
:0662000000000000000098
:0662060000000000000092
:06620c000000000000008c
:0662120000000000000086
:0662180000000000000080
:06621e000000000000007a
:0662240000000000000074
:06622a000000000000006e
:0662300000000000000068
:0662360000000000000062
:06623c000000000000005c
:0662420000000000000056
:0662480000000000000050
:06624e000000000000004a
:0662540000000000000044
:06625a000000000000003e
:0662600000000000000038
:0662660000000000000032
:06626c000000000000002c
:0662720000000000000026
:0662780000000000000020
:06627e000000000000001a
:0662840000000000000014
:06628a000000000000000e
:0662900000000000000008
:0662960000000000000002
:02629c00000000
:02629e001101ec
:0362a00062003f5a
:0362a30082000076
:0262a6000103f2
:0862a8000000000000000000ee
:0862b0000000000000000000e6
:0862b8000000000000000000de
:0862c0000000000000000000d6
:0266a8000000f0
:0366aa00820080eb
:0266ad000103e7
:0866af000000000000000000e3
:0866b7000000000000000000db
:0866bf000000000000000000d3
:0866c7000000000000000000cb
:026aaf000000e5
:026ab1001102d0
:036ab30062002f4f
:036ab6008200005b
:026ab9000103d7
:066abb00000000000000d5
:066ac100000000000000cf
:066ac700000000000000c9
:066acd00000000000000c3
:066ad300000000000000bd
:066ad900000000000000b7
:066adf00000000000000b1
:066ae500000000000000ab
:066aeb00000000000000a5
:066af1000000000000009f
:066af70000000000000099
:066afd0000000000000093
:066b03000000000000008c
:066b090000000000000086
:066b0f0000000000000080
:066b15000000000000007a
:066b1b0000000000000074
:066b21000000000000006e
:066b270000000000000068
:066b2d0000000000000062
:066b33000000000000005c
:066b390000000000000056
:066b3f0000000000000050
:066b45000000000000004a
:066b4b0000000000000044
:066b51000000000000003e
:066b570000000000000038
:066b5d0000000000000032
:066b63000000000000002c
:066b690000000000000026
:066b6f0000000000000020
:066b75000000000000001a
:066b7b0000000000000014
:066b81000000000000000e
:066b870000000000000008
:066b8d0000000000000002
:066b9300000000000000fc
:066b9900000000000000f6
:066b9f00000000000000f0
:066ba500000000000000ea
:066bab00000000000000e4
:066bb100000000000000de
:066bb700000000000000d8
:066bbd00000000000000d2
:066bc300000000000000cc
:066bc900000000000000c6
