:02000000ff00ff
:080002004c6174746963650030
:17000a00694345637562653220323032302e31322e32373934330071
:16002100506172743a206943453430554c314b2d434d33364100ff
:1a003700446174653a204d6179203220323032362031343a31303a343200b4
:0200510000ffae
:040053007eaa997e6a
:02005700510056
:0200590001059f
:03005b00920020f0
:03005e0062016fcd
:030061008200001a
:03006400720070b7
:02006700110086
:02006900010193
:20006b000000000000000000000000100000000000004000020000000000000000004000e3
:0e008b0000000000010000080000000000005e
:20009900000000000000000000000020000000000000800000000000020000000000800025
:0e00b90000000000020000000000000800002f
:2000c700000000000000000000000000000000000000000001000000000000000000000018
:0e00e700000000000000000400000000000007
:2000f5000000000000000000000000000000000000000000000000000100000000000000ea
:0e0115000000000000000000000000040000d8
:200123000000000000000000000000000000000000000000020000000000000000000000ba
:0e014300000000000000000800000010000096
:20015100000000000000000000000000000000000000000000003400040000000000000056
:0e017100000000000000000000002010000050
:20017f0000000000000000000340000000000000000000000000000000000000000000001d
:0e019f00000000000000000000000000000052
:2001ad00000000000000000000000000000000000000000000000000000000000000000032
:0e01cd00000000000000000000000000000024
:2001db000000000000000000000000000000000000000000000000080000000000000000fc
:0e01fb0000000000000000000038200000009e
:200209000000000000000000000000000000000000000000000000000000000000000000d5
:0e0229000000000000000000000000000000c7
:20023700000000000000000000000020000000000000000000000000020000000100000084
:0e025700000000040000000000080004000089
:20026500000000000000000000000010000000000000000000000000030000000000000066
:0e02850000000000000000000030000c00002f
:2002930000000000000000000000000000000000000000000000000000000000000000004b
:0e02b300000000080000000000001000000025
:2002c10000000000000000000000000000000000000000000000000000000000000000001d
:0e02e10000000004000000000000000000000b
:2002ef000000000000000000000000000000000000000000000000000000000000000000ef
:0e030f000000000000000000000000000000e0
:20031d00000000000000000000000000000000000000000000000e000000000000000000b2
:0e033d00000000041800000000000000000096
:20034b00010000000c3020000000033c0400000000000000000000000000000000000000f2
:0e036b00000000000000000000000000000084
:20037900010000000c3000000000003c0000000000000000001800000000000000000000d3
:0e039900002000000000000000000000000036
:2003a700000000000c302000000000000000000000000000000000000000000000000000da
:0e03c700000000000000000000000000000028
:2003d500000000000c300000000000000000000000000000000000000000000000000000cc
:0e03f5000000000000000000004000000000ba
:20040300000000000c30200000000000000000000000000008000000000000000000000075
:0e0423000000000000000000000000000000cb
:20043100000000000c3000000000000000000000000000000000000000000000000000006f
:0e04510000000000000000000000000000009d
:20045f00000000000c30200000000000000000000000000000000000000000000000000021
:0e047f0000000000000000c0000000000000af
:20048d00000000000c30000000000000000000000000000000000000000000000000000013
:0e04ad000000000000000080000000000000c1
:2004bb00000000000c30200001800000000000000000000000000000000000000000000044
:0e04db00000000000000000000000000000013
:2004e900000000000c30000000800000000000000000000000000000000000000000000037
:0e0509000000000000000000c0000000000024
:20051700000000000c30200000000000000000000000000000000000000000000000000068
:0e0537000000000000000000000000000000b6
:20054500000000000c3000000000000000000000000000000000000000000000000000005a
:0e056500000000000000000000000000000088
:20057300000000000c3020000000000000000000000000000000000000000000000000000c
:0e05930000000000000000000000200a5000e0
:2005a100000000000c300000000000000000000000000000000000000000000000000000fe
:0e05c100000000000000000000000405a20081
:2005cf00000000000c302000000000000000000000000000000000000000000000000000b0
:0e05ef000000000000000000000000000000fe
:2005fd00000000000c300000000000000000000000000000000000000000000000000000a2
:0e061d000000000000000000000000000000cf
:20062b00000000000c30200000000000000000000000000000000000000000000000000053
:0e064b00000000000000000000400000000061
:20065900000000000c30000000000000000000000000000000000000000000000000000045
:0e067900000000000000000000200000000053
:200687000000001c0c302000000000000000000000000000000000000000000000000000db
:0e06a7000000000000000000000000ca000873
:2006b500000000020c300000000000000000000000000000000000000000000000000000e7
:0e06d50000000000000000000000050500000d
:2006e300000000000c3020000000000000000000000000000000000000000000000000009b
:0e0703000000000000000000000000000000e8
:20071100000000000c3000000000000000000000000000000000000000000000000000008c
:0e0731000000000000000000000000000000ba
:20073f00000000000c3020000000000000000000000000000000000000000000000000003e
:0e075f0000000000000000000000000000008c
:20076d00000000000c30000000000000000000000000000000000000000000000000000030
:0e078d0000000000000000000000000000005e
:20079b00000000000c302000000000000000000000000000000000000000000000000000e2
:0e07bb00000000000000000000000000000030
:2007c900000000000c300000000000000000000000000000000000000000000000000000d4
:0e07e9000000000000000000000300000000ff
:2007f700000000000c30200000000000000000000000000000000000000000000000000086
:0e0817000000000000000001000000000000d2
:20082500000000000c30000000000000000000000000000000000000000000000000000077
:0e0845000000000000000000000000000000a5
:20085300000002000c30200000000000000000000000000000000000000000000000000027
:0e087300000000000000000000000000000077
:20088100000004000c30000000000000000000000000000000000000000000000000000017
:0e08a100000000000000000000000000000049
:2008af00000000000c302000000000000000000000000000000000000000000000000000cd
:0e08cf0000000000000000000000000000001b
:2008dd00000000000c300000000000000000000000000000000000000000000000000000bf
:0e08fd000000000000000000000000000000ed
:20090b00000000000c30200000000000000000000000000000000000000000000000000070
:0e092b000000000000000000000017c054048f
:20093900000000000c30000000000000000000000000000000000000000000000000000062
:0e09590000000000000000000000000054003c
:20096700010000000c30200000000000000000000000000000000000000000000000000013
:0e09870000000000000000e00002a0c504080f
:20099500000000000c30000000000000000000000000000000000000000000000000000006
:0e09b500000000000000000000040c0a040016
:2009c300000000000c302000000000000000000000000000000000000000000000000000b8
:0e09e300000000000000004000068dc054001f
:2009f100000000000c300000000000000000000000000000000000000000000000000000aa
:0e0a110000000000000000c0000402005410ad
:200a1f00000000000c3020000000000000000000000000000000000000000000000000005b
:0e0a3f000000000000000000020621a50408cf
:200a4d00000000000c3000000000000000000000000000000000000000000000000000004d
:0e0a6d00000000000000000000400d0a040020
:200a7b00000000000c302000000000000000000000000000000000000000000000000000ff
:0e0a9b000000000000000000020607c054002a
:200aa900000000000c300000000000000000000000000000000000000000000000000000f1
:0e0ac900000000000000000000400200550088
:200ad700000000000c302000000000000000000000000000000000000000000000000000a3
:0e0af7000000000000000000004000000000b1
:200b0500000000000c30000000000000000000000000000000000000000000000000000094
:0e0b25000000000000000000002000000000a2
:200b3300000000000c30200000000000000000000000000000000000000000000000000046
:0e0b5300000000000000000000605dc05400c3
:200b6100000000000c30000000000000000000000000000000000000000000000000000038
:0e0b81000040000000000001000202005404c9
:200b8f00000000000c302000000000000000000000000000000000000000000000000000ea
:0e0baf0000000000000000c0000020e504105f
:200bbd00000000000c300000000000000000000000000000000000000000000000000000dc
:0e0bdd00004000000000000100000c0a0400af
:200beb000000000000000000000000000000000000000000000000000000000000000000ea
:0e0c0b000000000000000000000020c50408ea
:200c19000000000000000000000000000000000000000000000000000000000000000000bb
:0e0c390000000000000000000002640a040039
:200c470000000000000000000000000000000000000000000000000000000000000000008d
:0e0c670000000000000000e0020015805408ac
:200c750000000000000000000000000000000000000000000000000000000000000000005f
:0e0c950000000000000000000042c3005400f8
:200ca300000000000000000000000000000000000000000000000000000000000000000031
:0e0cc3000000000000000040020620a5040012
:200cd100000000000000000000000000000000000000000000000000000000000000000003
:0e0cf100000000f0000000400040240a04044f
:200cff000000000000000000000000000000000000000000000000000000000000000000d5
:0e0d1f00000000000000000001c0178054001a
:200d2d000000000000000000000000000000000000000000000000000000000000000000a6
:0e0d4d00000000000000000000000100541033
:200d5b00000000000000000000000000000000000000000000000000000000000000000078
:0e0d7b000000000000000000006021e5040000
:200d890000000000000000000000000000000000000000000000000000000000000000004a
:0e0da90000000000000000000000250a040405
:200db70000000000000000000000000000000000000000000000000000000000000000001c
:0e0dd700000500a0000000000000078054107e
:200de5000000000000000000000000000000000000000000000000000000000000000000ee
:0e0e0500000200000000000000000100540088
:200e13000000000000000000000000000000000000000000000000000000000000000000bf
:0e0e330001000003aabc0000000060e50410ee
:200e4100000000000000000000000000000000000000000000000000000000000000000091
:0e0e610000000000c2bc00000002250a0400d0
:200e6f00000000000000000000000000000000000000000000000000000000000000000063
:0e0e8f0000000000000000c000605f80540002
:200e9d00000000000000000000000000000000000000000000000000000000000000000035
:0e0ebd000000000000000000000201005410c0
:200ecb00000000000000000000000000000000000000000000000000000000000000000007
:0e0eeb000000019fee84000001665d9800008b
:200ef9000000000000000000000000000000000000000000000000000000000000000000d9
:0e0f1900000000ed6108000000021ff0000063
:200f27000000000000000000000000000000000000000000000000000000000000000000aa
:0e0f470038008009720008e00246dc80440099
:200f550000000000000000000000000000000000000000000000000000000000000000007c
:0e0f75000000100d830400000062859344808c
:200f830000000000000000000000000000000000000000000004000000000000000000004a
:0e0fa300000000100000000002620480040044
:200fb100000000000000000000000000000000000000000000000000000000000000000020
:0e0fd100000000e00000000002642500f48033
:200fdf000000000000000000000000000000000000000000000000000000000000000000f2
:0e0fff000000018731410000000277df300062
:20100d000000000000000000000000000000000000000000000000000000000000000000c3
:0e102d00000000a98029010000066fff2100cd
:20103b0000000000000000080000000000000000000000000000000000000000000000008d
:0e105b000000000df81d8000000220cd3020a6
:20106900000000000000001000000000000000000000000000000000000000000000000057
:0e1089000000d001e42100000804250e300014
:20109700000000000000000000000000000000000000000000000000000000000000000039
:0e10b7000000800000000000040674e8000045
:2010c50000000000000000000000000000000000000000000000000000000000000000000b
:0e10e5000000f00000000000080207e000001c
:2010f30000000000000000400000000000000000000000000000000000000000000000009d
:0e111300000001ad6be805000263d6a80028bd
:201121000000000000000000000000000000000000000000000000000000000000000000ae
:0e11410000000001c3fc000001c61600021ce5
:20114f00000000000000000000000000000000000000000000000000000000000000000080
:0e116f0030008015b82508c4000727815620df
:20117d00000000000000000000000000000000000000000000000000000000000000000052
:0e119d000000f0a0c025000a00062e01a400ec
:2011ab000000000000000000000000000000000000000000000000000000000000ec8000b8
:0e11cb0000008083f200000400e71e94240060
:2011d90000000000000000000000000000000000000000000000000000000000002a80004c
:0e11f9000000f191bc00000a004657ba040441
:201207000000000000000000000000000000000000000000000000000000000000000000c7
:0e12270000000180000000e0020066d4041008
:20123500000000000000000000000000000000000000000000000000000000000000000099
:0e125500000001a00000000001c3f4fa4400f4
:20126300000000000000000000000000000000000000000000000000000000060000000065
:0e12830000000189b968004001c69fb07400e8
:201291000000000000000000000000000000000000000000000000000000004200000000fb
:0e12b1000000010b83d401c003c0079024008d
:2012bf0000000000000000000000003fc020000000000000000000000000000000000000f0
:0e12df0000000001abe8000000662ff40600de
:2012ed0000000000000000000000003fc040000000000000000000000000000000000000a2
:0e130d0000000000c3e800000002b5fa440032
:20131b000000000000000000000000000000000000000000000000000000001e0000000094
:0e133b00000000000000000000005ea424007e
:20134900000000000000000000000000000000000000000000000000000000000000000084
:0e1369000000000000000000004216fa040020
:2013770000000000000000000000000000000000000000000000000000000000380000001e
:0e139700000070e000000000420064f404005a
:2013a5000000000000000000000000000000000000000000000000000000000040000000e8
:0e13c5000000009000000000004276fa440094
:2013d3000000000000000000000000000000000000000000000000000000000000000000fa
:0e13f300000081c13bd4040000c3a5b074000b
:201401000000000000000000000000000000000000000000000000000000000000000000cb
:0e1421000000b199c000000000202da01600b0
:20142f0000000000000000000000000000000000000000000000000000000000000000009d
:0e144f0000000000000000c400c26df40400a4
:20145d0000000000000000000000000000000000000000000000000000000000000000006f
:0e147d000000000000000000000276fa4400ab
:02148b0000005f
:03148d007200905a
:02149000110148
:02149200010156
:201494000000000000000000000000100000000000004000000000000100000000004000a7
:0e14b400000000000100000000000004000025
:2014c2000000000000000000000000200000000000008000000000000200000000008000e8
:0e14e2000000000002000000000000080000f2
:2014f0000000000000000000000000000000000000000000000000000000000000000000dc
:0e15100000000000000000000090000000003d
:20151e000000000000000000000000000000000000000000000000000000000000000000ad
:0e153e0000000000000000000080000000001f
:20154c0000000000000000000000000000000000000000000000000000000000000000007f
:0e156c00000000000000000000000000000071
:20157a00000000000000000000000000000000000000000000000000000000000000000051
:0e159a00000000000000000000000000000043
:2015a800000000000000000000000000000000000000000000000000000000000000000023
:0e15c800000000000000000000000000000015
:2015d6000000000000000000000000000000000000000000000000000000000000000000f5
:0e15f6000000000000000000000000000000e7
:201604000000000000000000000000000000000000000000000000000000000000000000c6
:0e1624000000000000000000000000000000b8
:20163200000000000000000000000000000000000000000000000000000000000000000098
:0e16520000000000000000000000000000008a
:2016600000000000000000000000000000000000000000000000000000000000000000006a
:0e16800000000000000000000000000c000050
:20168e0000000000000000000000000000000000000000000000000001000000000000003b
:0e16ae0000000000000000000000000400002a
:2016bc0000000000000000000000000000000000000000000000000000000000000000000e
:0e16dc00000000000000000000000000000000
:2016ea000000000000000000000000000000000000000000000000000000000000000000e0
:0e170a000000000000000000000000000000d1
:201718000000000000000000000000000000000000000000000000000000000000000000b1
:0e1738000000000000000000000000000000a3
:20174600000000000000000000000000000000000000000000000e00000000000000000075
:0e176600000000000000000000000000000075
:20177400000000000c30000000000000000000000000000000000000000000000000000019
:0e179400000000000000000000000000000047
:2017a200000000000c302000000000000000000000000000000000000000000000000000cb
:0e17c200000000000000000000000000000019
:2017d000000003000c300000000000000000000000000000000000000000000000000000ba
:0e17f0000000000000000000000000000000eb
:2017fe00000000000c3020000000000000000000000000000000000000000000000000006f
:0e181e000000000000000000000000000000bc
:20182c000000003c0c30000000000000000000000000000000000000000000000000000024
:0e184c0000000000000000000000000000008e
:20185a00000000000c30200000000000000000000000000000000000000000000000000012
:0e187a00000000000000000000000000000060
:20188800000000000c30000000000000000000000000000000000000000000000000000004
:0e18a80000000000000000000000040a5000d4
:2018b600000000000c302000000000000000000000000000000000000000000000000000b6
:0e18d600000000000000000000002005a0003f
:2018e400000000000c300000000000000000000000000000000000000000000000000000a8
:0e19040000000000000000c000000000000015
:20191200000000000c30200000000000000000000000000000000000000000000000000059
:0e193200000000000000004000000000000067
:20194000000000000c3000000000000000000000000000000000000000000000000000004b
:0e196000000000000000000000000000000079
:20196e00000000000c302000000000000000000000000000000000000000000000000000fd
:0e198e0000000000000000000000000000004b
:20199c00000000000c300000000000000000000000000000000000000000000000000000ef
:0e19bc000000000000000000004000000000dd
:2019ca00000000000c302000000000000000000000000000000000000000000000000000a1
:0e19ea000000000000000000000000000000ef
:2019f800000000000c30000000000000000000000000000000000000000000000000000093
:0e1a18000000000000000000000000000000c0
:201a2600000000000c30200000000000000000000000000000000000000000000000000044
:0e1a4600000000000000000000000000000092
:201a5400000000000c30000000000000000000000000000000000000000000000000000036
:0e1a7400000000000000000000000000000064
:201a8200000000000c302000000000000000000000000000000000000000000000000000e8
:0e1aa200000000000000000000000000000036
:201ab000000000000c300000000000000000000000000000000000000000000000000000da
:0e1ad000000000000000000000000000000008
:201ade00000000000c3020000000000000000000000000000000000000000000000000008c
:0e1afe000000000000000000000000000000da
:201b0c00000000000c3000000000000000000000000000000000000000000000000000007d
:0e1b2c000000000000000000000000000000ab
:201b3a00000000000c3020000000000000000000000000000000000000000000000000002f
:0e1b5a0000000000000000000000000000007d
:201b6800000000000c30000000000000000000000000000000000000000000000000000021
:0e1b880000000000000000000000000000004f
:201b9600000000000c302000000000000000000000000000000000000000000000000000d3
:0e1bb600000000000000000000000000000021
:201bc400000000000c300000000000000000000000000000000000000000000000000000c5
:0e1be4000000000000000000000000000000f3
:201bf200000000000c30200000000000000000000000000000000000000000000000000077
:0e1c12000000000000000000000000000000c4
:201c2000000000000c30000000000000000000000000000000000000000000000000000068
:0e1c4000000000000000000000000000000096
:201c4e00000000000c3020000000000000000000000000000000000000000000000000001a
:0e1c6e00000000000000000000000000000068
:201c7c00000000000c3000000000000000000000000000000000000000000000000000000c
:0e1c9c0000000000000000000000000000003a
:201caa00000000000c302000000000000000000000000000000000000000000000000000be
:0e1cca0000000000000000000000000000000c
:201cd800000000000c300000000000000000000000000000000000000000000000000000b0
:0e1cf8000000000000000000000000000000de
:201d0600000000000c30200000000000000000000000000000000000000000000000000061
:0e1d26000000000000000000000000000000af
:201d3400000000000c30000000000000000000000000000000000000000000000000000053
:0e1d5400000000000000000000000000000081
:201d6200000000000c30200000000000000000000000000000000000000000000000000005
:0e1d8200000000000000000000000000000053
:201d9000000000000c300000000000000000000000000000000000000000000000000000f7
:0e1db000000000000000000000000000000025
:201dbe00000000000c302000000000000000000000000000000000000000000000000000a9
:0e1dde000000000000000000000000000000f7
:201dec00000000000c3000000000000000000000000000000000000000000000000000009b
:0e1e0c000000000000000000000000000000c8
:201e1a00000000000c3020000000000000000000000000000000000000000000000000004c
:0e1e3a0000000000000000000000000000009a
:201e4800000000000c3000000000000000000000000000000000000000000000000000003e
:0e1e680000000000000000000000000000006c
:201e7600000000000c302000000000000000000000000000000000000000000000000000f0
:0e1e960000000000000000000000000000003e
:201ea400000000000c300000000000000000000000000000000000000000000000000000e2
:0e1ec400000000000000000000000000000010
:201ed200000000000c30200000000000000000000000000000000000000000000000000094
:0e1ef2000000000000000000000000000000e2
:201f0000000000000c30000000000000000000000000000000000000000000000000000085
:0e1f20000000000000000000000000000000b3
:201f2e00000000000c30200000000000000000000000000000000000000000000000000037
:0e1f4e00000000000000000000000000000085
:201f5c00000000000c30000000000000000000000000000000000000000000000000000029
:0e1f7c00000000000000000000000000000057
:201f8a00000000000c302000000000000000000000000000000000000000000000000000db
:0e1faa00000000000000000000000000000029
:201fb800000000000c300000000000000000000000000000000000000000000000000000cd
:0e1fd8000000000000000000000000000000fb
:201fe600000000000c3020000000000000000000000000000000000000000000000000007f
:0e2006000000000000000000000000000000cc
:202014000000000000000000000000000000000000000000000000000000000000000000ac
:0e20340000400000000000000000000000005e
:2020420000000000000000000000000000000000000000000000000000000000000000007e
:0e206200000000000000000000000000000070
:20207000000000000000000000000000000000000000000000000000000000000000000050
:0e209000000000000000000000000000000042
:20209e00000000000000000000000000000000000000000000000000000000000000000022
:0e20be00000000000000000100000000000013
:2020cc000000000000000000000000000000000000000000000000000000000000000000f4
:0e20ec000000000000000000000000000000e6
:2020fa000000000000000000000000000000000000000000000000000000000000000000c6
:0e211a000000000000000000000000000000b7
:20212800000000000000000000000000000000000000000000000000000000000000000097
:0e214800000000000000000000000000000089
:20215600000000000000000000000000000000000000000000000000000000000000000069
:0e21760000000000000000000000000000005b
:2021840000000000000000000000000000000000000000000000000000000000000000003b
:0e21a4000000b000000000000000000000007d
:2021b20000000000000000000000000000000000000000000000000000000000000000000d
:0e21d2000000000000000000000000000000ff
:2021e0000000000000000000000000000000000000000000000000000000000000000000df
:0e2200000000000003c02000000000000000ed
:20220e000000000000000000000000000000000000000000000000000000000000000000b0
:0e222e00000000006bc1000000000000000076
:20223c0000000000000000000000000000000000000000000038000000000000000000004a
:0e225c00000000000000000000000000000074
:20226a00000000000000000000000000000000000000000000000000000000000000000054
:0e228a0038000000000000000000000000000e
:20229800000000000000000000000000000000000000000000000000000000000000000026
:0e22b800000000000000000000000000000018
:2022c6000000000000000000000000000000000000000000000000000000000000000000f8
:0e22e6000000000000000000000000000000ea
:2022f4000000000000000000000000000000000000000000000000000000100000000000ba
:0e23140000400000000000010000000000007a
:2023220000000000000000000000000000000000000000000000000000000000000000009b
:0e23420000000000000000c0000000000000cd
:20235000000000000000000000000000000000000000000000000000000000042000000049
:0e23700000400000000000010000000000001e
:20237e00000000000000000000000000000000000000000000000000000010260400000005
:0e239e00000000000000000000000000000031
:2023ac00000000000000000000000000000000000000000000000000000000000000000011
:0e23cc000000000000000000014000000000c2
:2023da000000000000000000000000000000000000000000000000000000000000000000e3
:0e23fa000000000000000000020000000000d3
:202408000000000000000000000000000000000000000000000000000000000000000000b4
:0e2428000000000000000000000000000000a6
:20243600000000000000000000000000000000000000000000000000000000000000000086
:0e245600000000000000000000600000000018
:20246400000000000000000000000000000000000000000000000000000000000000000058
:0e24840000000000000000000000000000004a
:2024920000000000000000000000000000000000000000000000000000000000000000002a
:0e24b20000000000000000000000000000001c
:2024c000000000000000000000000000000000000000000000000000000000000020550087
:0e24e00000000001a800000000000000000045
:2024ee00000000000000000000000000000000000000000000000000000c000001c8554064
:0e250e0000005801e200200000000000000064
:20251c000000000000000000000000000000000000000000000000000000000000000f0090
:0e253c00000000000000000000028e0a0400f3
:20254a00000000000000000000000000000000000000000000000000000e000001c8f0c0ea
:0e256a00000070e0000000e0000287c0540096
:202578000000000000000000000000000000000000000000000000000000000000000f0430
:0e25980000005000000000000000020a0000d9
:2025a6000000000000000000000000000000000000000000000000000000000001c8f0c09c
:0e25c6000000800000000000000006ca0000b7
:2025d4000000000000000000000000000000000000000000000000000000000400200f00b4
:0e25f40080000000000000000342060c1400ee
:202602000000000000000000000000000000000000000000000000000000002061e8f0c09f
:0e26220000000000000000c0020057c014209d
:202630000000000000000000000000000000000000000000000000000000000400200f0057
:0e26500000000000000000000000020070000a
:20265e00000000000000000000000000000000000000000000000000000000260168f0c01d
:0e267e000000000000000000000005e07020d9
:20268c000000000000000000000000000000000000000000000000000000000000000f001f
:0e26ac00000070016c000200014007aff0005a
:2026ba00000000000000000000000000000000000000000000000000000000000168f0c0e7
:0e26da0000000009ae00000000601687f0004e
:2026e8000000000000000000000000000000000000000000000000000000000000000f00c3
:0e270800000000b0000000000000000f700094
:202716000000000000000000000000000000000000000000000000000000000001e8f0c00a
:0e273600000000000000000000000fef702007
:202744000000000000000000000000000000000000000000000000000000000020200f0026
:0e276400000000a00000000002c0160a500095
:20277200000000000000000000000000000000000000000000000000000000060548f0c044
:0e2792000000001000000000026634aaf004ef
:2027a0000000000000000000000000000000000000000000000000000000000020200f00ca
:0e27c000000050000000000400441690940039
:2027ce00000000000000000000000000000000000000000000000000000c00006548f0c082
:0e27ee00000081a0000000000343a5e01400dd
:2027fc000000000000000000000000000000000000000000000000000000000000000f00ae
:0e281c000000500003c000000000000000009b
:20282a00000000000000000000000000000000000000000000000000000e000001c8f0c007
:0e284a003800d80073c100e00000000000005c
:202858000000000000000000000000000000000000000000000000000000000000000f044d
:0e287800000000a93400020203620d8e04006d
:202886000000000000000000000000000000000000000000000000000000000001c8f0c0b9
:0e28a600000058112a000004014675e20400eb
:2028b4000000000000000000000000000000000000000000000000000000000400200f00d1
:0e28d400400000a0000000000002800f000085
:2028e2000000000000000000000000000000000000000000000000000000002061e8f0c0bd
:0e29020030000010000000c0000040ef040094
:202910000000000000000000000000000000000000000000000000000000000400200f0074
:0e2930004000508000000000002004b0f000c5
:20293e00000000000000000000000000000000000000000000000000000000260168f0c03a
:0e295e00000098100000000001462da050005f
:20296c000000000000000000000000000000000000000000000000000000000000000f003c
:0e298c00800000000000000000000503400075
:20299a00000000000000000000000000000000000000000000000000000000000168f0c004
:0e29ba0000005800000000000002868340204c
:2029c8000000000000000000000000000000000000000000000000000000000000000f01df
:0e29e800000078a3208502000000010f30805f
:2029f6000000000000000000000000000000000000000000000000000000000001e8f0c028
:0e2a16000000f01024490500006001cf3020c0
:202a24000000000000000000000000000000000000000000000000000000000020200f0043
:0e2a44000000f003be11000000400100500829
:202a5200000000000000000000000000000000000000000000000000000000060548f0c061
:0e2a720040000005244b000002061da050008d
:202a80000000000000000000000000000000000000000000000000000000000020200f00e7
:0e2aa00000000003b611000000028600b00026
:202aae00000000000000000000000000000000000000000000000000000c00006548f0c09f
:0e2ace0040000187204b00000166f5a070203b
:202adc000000000000000000000000000000000000000000000000000000000000000f00cb
:0e2afc00000070033211000001403ebff08068
:202b0a00000000000000000000000000000000000000000000000000000e000001c8f0c024
:0e2b2a0038000007244b00e0020034af7200b8
:202b38000000000000000000000000000000000000000000000000000000000000000f046a
:0e2b580000001000203c00000003c6f66000e4
:202b66000000000000000000000000000000000000000000000000000000000001c8f0c0d6
:0e2b860000008005b83e000001606ec6d00061
:202b94001000000000000000000000000000000000000000000000000000000400200f00de
:0e2bb4000000010000000000000006c0141028
:202bc2001000000000000000000000000000000000000000000000000000002061e8f0c0ca
:0e2be200300001c0000000c0004037e0740069
:202bf0000000000000000000000000000000000000000000000000000000000400200f0092
:0e2c1000000000000000000002c65d0054003d
:202c1e00000000000000000000000000000000000000000000000000000000260168f0c057
:0e2c3e000000700000000000e2067ce00400d0
:202c4c000000000000000000000000000000000000000000000000000000000000000f0059
:0e2c6c000000000000000000000206a074003e
:202c7a00000000000000000000000000000000000000000000000000000000000168f0c021
:0e2c9a00000000000000000000c075e0140003
:202ca8000000000000000000000000000000000000000000000000000000000000000f00fd
:0e2cc8000000d903a400000000001caa1400a4
:202cd6000000000000000000000000000000000000000000000000000000000001e8f0c045
:0e2cf60000005081b60000000063259024000d
:202d04000000000000000000000000000000000000000000000000000000000020200f0060
:0e2d24000000100140000000004004d07400c8
:202d3200000000000000000000000000000000000000000000000000000000060548f0c07e
:0e2d52000000d8017a000800006725e0140098
:202d60000000000000000000000000000000000000000000000000000000000020200f0004
:0e2d8000000058a1e80000c000401eda140058
:202d8e00000000000000000000000000000000000000000000000000000c00006548f0c0bc
:0e2dae00000211992e0000c00006259024009e
:202dbc000000000000000000000000000000000000000000000000000000000000000f00e8
:0e2ddc00000050abc3970000004004a074003c
:202dea00000000000000000000000000000000000000000000000000000e000001c8f0c042
:0e2e0a00380081b12895c8e002e027f01400de
:202e18000000000000000000000000000000000000000000000000000000000000000f0289
:0e2e3800000050f72800000000621c9a1400f1
:202e46000000000000000000000000000000000000000000000000000000000001c8f0c0f3
:0e2e66000000d9b56a00000002e76f8024006a
:022e740000005c
:032e760072007077
:022e7900110244
:022e7b00010153
:202e7d00000000000000000002000000000000080000000002000000000000080000000021
:0e2e9d00000020000000000000800000000087
:202eab000000000000000000010000000000000400000000010000000000000400000000fd
:0e2ecb00000010000b0000000040000000009e
:202ed9000000000000000000000000000000000000000000000000000000000000000000d9
:0e2ef9000000000000000000000000000000cb
:202f07000000000000000000000000000000000000000000000000000000000000000000aa
:0e2f270000000000000000000000000000009c
:202f350000000000000000000000000000000000000000000000000000000000000000007c
:0e2f550000000000000000000000000000006e
:202f630000000000000000000000000000000000000000000000000000000000000000004e
:0e2f8300000000000000000000000000000040
:202f9100000000000000000000000000000000000000000000000000000000000000000020
:0e2fb100000000000000000000000000000012
:202fbf000000000000000000000000000000000000000000000000000000000000000000f2
:0e2fdf000000000000000000000000000000e4
:202fed00000000000000000000000000000000008000000000000000000000000000000044
:0e300d00000000000000000000802000000015
:20301b00000000000000000000000000000000000000000000000000000000000000000095
:0e303b00000000000000000000000000000087
:20304900000000000000000000000000000000000000000000000000000000000000000067
:0e306900000030000000000000000000000029
:20307700000000000000000000000000000000000000000000000000000000000000000039
:0e3097000000300000000000000000000000fb
:2030a50000000000000000000000000000000000000000000000000000000000000000000b
:0e30c5000000000800000000000000000000f5
:2030d3000000000000000000000000000000000000000000000000000000000000000000dd
:0e30f30000000000000000000000000000804f
:203101000000000000000000000000000000000000000000000000000000000000000000ae
:0e312100000000000000000000002000008000
:20312f00000000000000000000000000000000000000000000000000000000000000000080
:0e314f0000000004000000000000000000006e
:20315d001030c0000002000000000000000000000000000000000000000000000000000050
:0e317d00000000000000000000000000000044
:20318b000030c0000000000000000000000000000000000000000000000000000000000034
:0e31ab00000000000000000000000000000016
:2031b9001030c00000000000000000000000000000000000000000000000000000000000f6
:0e31d9000000000000000000000000000000e8
:2031e7000030c00000000000000000000000000000000000000000000000000000000000d8
:0e3207000000000000000000000000000000b9
:203215001030c0000000000000000000000000000000000000000000000000000000000099
:0e32350000000000000000000000000000008b
:203243000030c000000000000000000000000000000000000000000000000000000000007b
:0e32630000000000000000000000000000005d
:203271001030c000000000000000000000000000000000000000000000000000000000003d
:0e32910000000000000000000000000000200f
:20329f000030c000000000000000000000000000000000000000000000000000000000001f
:0e32bf00000000000000000000000000000001
:2032cd001030c00000000000000000000000000000000000000000000000000000000000e1
:0e32ed000000000000000000000000000000d3
:2032fb000030c00000000000000000000000000000000000000000000000000000000000c3
:0e331b000000000000000000000000000000a4
:203329001030c0000000000000000000000000000000000000000000000000000000000084
:0e334900000000000000000000000000000076
:203357000030c0000000000000000000000000000000000000000000000000000000000066
:0e337700000000000000000000000000000048
:203385001030c0000000000000000000000000000000000000000000000000000000000028
:0e33a50000000000000000000000000000001a
:2033b3000030c000000000000000000000000000000000000000000000000000000000000a
:0e33d3000000000000000000000000000000ec
:2033e1001030c00000000000000000000000000000000000000000000000000000000000cc
:0e3401000000000000000000000000000000bd
:20340f000030c00000000000000000000000000000000000000000000000000000000000ad
:0e342f0000000000000000000000000000008f
:20343d001030c1e0000000000000000000000000000000000000000000000000000000008e
:0e345d00000000000000000000000000000061
:20346b000030c1000000000000000000000000000000000000000000000000000000000050
:0e348b00000000000000000000000000000033
:203499001030c0000000000000000000000000000000000000000000000000000000000013
:0e34b900000000000000000000000000000005
:2034c7000030c00000000000000000000000000000000000000000000000000000000000f5
:0e34e7000000000000000000000000000000d7
:2034f5001030c00000000000000000000000000000000000000000000000000000000000b7
:0e3515000000000000000000000000000000a8
:203523000030c0000000000000000000000000000000000000000000000000000000000098
:0e35430000000000000000000000000000007a
:203551001030c000000000000000000000000000000000000000000000000000000000005a
:0e35710000000000000000000000000000004c
:20357f000030c000000000000000000000000000000000000000000000000000000000003c
:0e359f0000000000000000000000000000001e
:2035ad001030c00000000000000000000000000000000000000000000000000000000000fe
:0e35cd000000000000000000000000000000f0
:2035db000030c00000000000000000000000000000000000000000000000000000000000e0
:0e35fb000000000000000000000000000000c2
:203609001030c00000000000000000000000000000000000000000000000000000000000a1
:0e362900000000000000000000000000000093
:203637000030c0000000000000000000000000000000000000000000000000000000000083
:0e365700000000000000000000000000000065
:203665001030c0000000000000000000000000000000000000000000000000000000000045
:0e368500000000000000000000000000000037
:203693000030c0000000000000000000000000000000000000000000000000000000000027
:0e36b300000000000000000000000000000009
:2036c1001030c00800000000000000000000000000000000000000000000000000000000e1
:0e36e1000000000000000000000000000000db
:2036ef000030c00d00000000000000000000000000000000000000000000000000000000be
:0e370f000000000000000000000000000000ac
:20371d001030c000000000000000000000000000000000000000000000000000000000008c
:0e373d000030a13c000000000036e10000005a
:20374b000030c000000000000000000000000000000000000000000000000000000000006e
:0e376b000c2a002c00050000006ca0000000dd
:203779001030c0000000000000000000000000000000000000000000000000000000000030
:0e3799000030a13d60000710a81ef901001cc1
:2037a7000030c00020000000000000000000000000000000000000000000000000000000f2
:0e37c700082a00240000002098009b880000c3
:2037d5001030c00000000000000000000000000000000000000000000000000000000000d4
:0e37f5000070a16c600000000036e188000c3e
:203803000030c00000000000000000000000000000000000000000000000000000000000b5
:0e382300002a002c00000000042ca000000869
:203831001030c0000000000000000000000000000000000000000000000000000000000077
:0e3851000070a12f66400010a81eb380a14099
:20385f000030c0000000000000000000000000000000000000000000000000000000000059
:0e387f00002a006443c000809801908e4080b3
:20388d001030c000000000000000000000000000000000000000000000000000000000001b
:0e38ad000030a17c000000009025900000007b
:2038bb000030c00000000000000000000000000000000000000000000000000000000000fd
:0e38db00002a002c00000000a147e1000000c0
:2038e9001030c00000000000000000000000000000000000000000000000000000000000bf
:0e3909000030a16c000000002957900c000057
:203917000030c00000000000000000000000000000000000000000000000000000000000a0
:0e393700002a0024000000801542cb10000082
:203945001030c0000000000000000000000000000000000000000000000000000000000062
:0e3965000030a16c064000233d5e10180000eb
:203973000030c0000000000000000000000000000000002000000000000000000000002004
:0e399300002a006c020580003e80e008020061
:2039a1001030c00000000000000000000000000000000000000000000000000000000010f6
:0e39c1000030a17c604003002bc7e01d000c0d
:2039cf000030c00000000000000000000000000000000020000000000000000000000020a8
:0e39ef00002a0064020080802bc2001d12001e
:2039fd000000000000000000000000000000000000000000000000000000000000000000aa
:0e3a1d000030a13c00000000006cf00e8000a4
:203a2b0000000000000000000000000000000000000000000000000000000000000000007b
:0e3a4b00022a003c0000000000248008000059
:203a590000000000000000000000000000000000000000000000000000000000000000004d
:0e3a79000030a13800000700001dbb81015c79
:203a870000000000000000000000000000000000000000000000000000000000000000001f
:0e3aa700002a003c0000000000bfe98900007a
:203ab5000000000000000000000000000000000000000000000000000000000000000000f1
:0e3ad5000030a12e60280000005781810148ba
:203ae3000000000000000000000000000000000000000000000000000000000000000000c3
:0e3b0300002a007c400000000007c00e000ced
:203b1100000000000000000000000000000000000000000000000000000000000000000094
:0e3b31000030a12a060000103bcee1980000f3
:203b3f00000000000000000000000000000000000000000000000000000000000000000066
:0e3b5f00002a007c4000000017c2a790000062
:203b6d00000000000000000000000000000000000000000000000000000000000000000038
:0e3b8d000030a17c00000000280ec39a00004a
:203b9b0000000000000000000000000000000000000000000000000000000000000000000a
:0e3bbb00002a003c000000812801008b000061
:203bc9000000000000000000000000000000000000000000000000000000000000000000dc
:0e3be9000030a16860000031b00e05980000a9
:203bf7000000000000000000000000000000000000000000000000000000000000000000ae
:0e3c1700002a003c00000004b0020d00000076
:203c250000000000000000000000000000000000000000000000000000000000000000007f
:0e3c45000030a16e06400000042ffd9f0140dc
:203c5300000000000000000000000000000000000000000000000000000000000000000051
:0e3c7300002a007ec2000000001fa50a00000b
:203c8100000000000000000000000000000000000000000000000000000000000000000023
:0e3ca1000020a17c6040032003ac881b000cb7
:203caf000000000000000000000000000000000000000000000000000000000000000000f5
:0e3ccf00002500742200000003e4850a0000b6
:203cdd00000000000000000000000000000000000000000000000000020004001810000099
:0e3cfd00002a0ff1c2c00000013e9988a0000d
:203d0b000000000000000000000000000000000000000000000000000000000350d800006d
:0e3d2b0000a6092e47800000002ccb100000df
:203d39000000000000000000000000000000083d60000001c000000000000c3c4e5000011d
:0e3d5900c00a53eb60400710a81da000001c1c
:203d67000000000000000000000000000000283c000000000000000000000bc00008000005
:0e3d8700000550e3c2800000a401c00000004f
:203d950000000000000000000000000000000000000000000000000000000c3c4ad00000ac
:0e3db50000076da060401200003e9000000c60
:203dc30000000000000000000000000000000000000000000000000000000bc010180000ed
:0e3de300000383e003800200022cc0001808d9
:203df100000000000000000000000000000000000001e0000000000000000c3c4e8180003a
:0e3e11000403d324e0000010a81da900000047
:203e1f0000000000000000000000000000000000000000000000000000000bc01010000098
:0e3e3f000001902760001000a4019100008097
:203e4d0000000000000000000000000000000000000000000000000000000c3c5e000000af
:0e3e6d0000076b78c61000002bc4d0180000b0
:203e7b0000000000000020000000000000000000000000000000000000000bc0000000003c
:0e3e9b0000038363630500000142f300000092
:203ea90000000000000000000000000000000000000000000000000000000c3c5a00000057
:0e3ec9000403d36206500000004fdf810000aa
:203ed70000000000000000000000000000000000000000000000000000000bc00000000000
:0e3ef700000260aac34020000005eb8d000011
:203f050000000000000000000000000000000000000000000000000000000ebc5a198000df
:0e3f250000027b04000000108217c00e600036
:203f330000000000000000000000000000000000000000000000000000000fe8190000005e
:0e3f53000001bbb800000000a143e0104000d8
:203f61000000000000000000000000000000000000000000c000000000000ebc5e181040f0
:0e3f8100c000000202c70300295e9380000cfe
:203f8f0000000000000000000000000000000000000000000000000000000fe81900800082
:0e3faf0000000000478100002a83b089000056
:203fbd0000000000000000000000000000000000000000000000000000000ebc4e000000cc
:0e3fdd00000101f4600010000036f100000049
:203feb0000000000000000000000000000000000000000000000000000008fe80d00000032
:0e400b0000000977400000000837f0001400a4
:2040190000000000000000000000000000000000000000000000000000000ebc4e0000016e
:0e403900c42a053802800710a80ee018001ceb
:2040470000000000000000000000000000000000000000000000000000000fe80f00000053
:0e406700002600b004000000a402c00000000b
:20407500000000000000000000000000000000000000000000000000000808284e1800008d
:0e409500000001f5e00003002944c50000080a
:2040a3000000000000000000000000000000000000000000000000000008082810000000b5
:0e40c30000020974200003002a82f080000c25
:2040d10000000000000000000000000000000000000000000000000000000bc140180000ab
:0e40f100042a057806000000b80ef500000055
:2040ff0000000000000000000000000000000000000000000000000000000fc020000000b2
:0e411f00002900e400000000a02edd8000005a
:20412d000000000000000000000000000000000000000000000000000000000000800000f2
:0e414d00000001f4e38000000236f1980080cb
:20415b00000000000000000000000000000000000000000000000000000000000010000034
:0e417b0000004974000000000037f000014011
:20418900000000000000000000000000000000000000000000000000000000000000000016
:0e41a900042a056940000010a80efd800000e9
:2041b7000000000000000000000000000000000000000000000000000000000000000000e8
:0e41d700002600b360000000a4028900000072
:2041e5000000000000000000000000000000000000000000000000000000000000819000a9
:0e420500000af1354600000000b6f188a00066
:204213000000000000000000000000000000000000000000000000000000000000108000fb
:0e4233000000a0e8200000000037f510000099
:2042410000000000000000000000000000000000000000000000000000000abd6a0000002c
:0e426100c0020ba5c0000350a80ef100000c17
:20426f0000000000000000000000000000000000000000000000000000000fe83f000000f9
:0e428f0000000be000000000a402f30000009d
:02429d0000001f
:03429f007200901a
:0242a200110306
:0242a400010116
:2042a6000000000000000000020000000000000800000000020000000000000800000000e4
:0e42c60000002000000000000080000000004a
:2042d4000000000000000000010000000000000400000000010000000000000400000000c0
:0e42f40000001000000000000040000000006c
:2043020000000000000000000000000000000000000000000000000000000000000000009b
:0e43220000000000000000000000000000008d
:2043300000000000000000000000000000000000000000000000000000000000000000006d
:0e43500000000000000000000000000000005f
:20435e0000000000000000000000000000000000000000000000000000000000000000003f
:0e437e00000000000000000000000000000031
:20438c00000000000000000000000000000000000000000000000000000000000000000011
:0e43ac00000000000000000000000000000003
:2043ba000000000000000000000000000000000000000000000000000000000000000000e3
:0e43da000000000000000000000000000000d5
:2043e8000000000000000000000000000000000000000000000000000000000000000000b5
:0e4408000000000000000000000000000000a6
:2044160000000000000000000000000000000000000000000000000000000008020000007c
:0e4436000000000000000000008020000000d8
:20444400000000000000000000000000000000000000000000000000000000000000000058
:0e44640000000000000000000000000000004a
:2044720000000000000000000000000000000000000000000000000000000000000000002a
:0e44920000000000000000000000000000809c
:2044a0000000000000000000000000000000000000000000000000000000000000000000fc
:0e44c0000000000000000000000000000000ee
:2044ce000000000000000000000000000000000000000000000000000000000000000008c6
:0e44ee000000000000000000000000000000c0
:2044fc00000000000000000000000000000000000000000000000000000000000000000898
:0e451c00000000000000000000000000008011
:20452a0000000000000000000000000000000000000000000000000000000000020000006f
:0e454a00000000000000000000002000000043
:20455800000000000000000000000000000000000000000000000000000000000000000043
:0e457800000000000000000000000000000035
:204586000030c0000000000000000000000000000000000000000000000000000000000025
:0e45a600000000000000000000000000000007
:2045b4001030c00000000000000000000000000000000000000000000000000000000000e7
:0e45d4000000000000000000000000000000d9
:2045e2000030c00000000000000000000000000000000000000000000000000000000000c9
:0e4602000000000000000000000000000000aa
:204610001030c000000000000000000000000000000000000000000000000000000000008a
:0e46300000000000000000000000000000007c
:20463e000030c000000000000000000000000000000000000000000000000000000000006c
:0e465e0000000000000000000000000000004e
:20466c001030c000000000000000000000000000000000000000000000000000000000002e
:0e468c00000000000000000000000000000020
:20469a000030c0000000000000000000000000000000000000000000000000000000000010
:0e46ba000000000000000000000000000000f2
:2046c8001030c00000000000000000000000000000000000000000000000000000000000d2
:0e46e8000000000000000000000000000000c4
:2046f6000030c00000000000000000000000000000000000000000000000000000000000b4
:0e471600000000000000000000000000000095
:204724001030c0000000000000000000000000000000000000000000000000000000000075
:0e474400000000000000000000000000000067
:204752000030c0000000000000000000000000000000000000000000000000000000000057
:0e477200000000000000000000000000000039
:204780001030c0000000000000000000000000000000000000000000000000000000000019
:0e47a00000000000000000000000000000000b
:2047ae000030c00000000000000000000000000000000000000000000000000000000000fb
:0e47ce000000000000000000000000000000dd
:2047dc001030c00000000000000000000000000000000000000000000000000000000000bd
:0e47fc000000000000000000000000000000af
:20480a000030c000000000000000000000000000000000000000000000000000000000009e
:0e482a00000000000000000000000000000080
:204838001030c0000000000000000000000000000000000000000000000000000000000060
:0e485800000000000000000000000000000052
:204866000030c0000000000000000000000000000000000000000000000000000000000042
:0e488600000000000000000000000000000024
:204894001030c0000000000000000000000000000000000000000000000000000000000004
:0e48b4000000000000000000000000000000f6
:2048c2000030c00000000000000000000000000000000000000000000000000000000000e6
:0e48e2000000000000000000000000000000c8
:2048f0001030c00000000000000000000000000000000000000000000000000000000000a8
:0e491000000000000000000000000000000099
:20491e000030c0000000000000000000000000000000000000000000000000000000000089
:0e493e0000000000000000000000000000006b
:20494c001030c000000000000000000000000000000000000000000000000000000000004b
:0e496c0000000000000000000000000000003d
:20497a000030c000000000000000000000000000000000000000000000000000000000002d
:0e499a0000000000000000000000000000000f
:2049a8001030c00000000000000000000000000000000000000000000000000000000000ef
:0e49c8000000000000000000000000000000e1
:2049d6000030c00000000000000000000000000000000000000000000000000000000000d1
:0e49f6000000000000000000000000000000b3
:204a04001030c0000000000000000000000000000000000000000000000000000000000092
:0e4a2400000000000000000000000000000084
:204a32000030c0000000000000000000000000000000000000000000000000000000000074
:0e4a5200000000000000000000000000000056
:204a60001030c0000000000000000000000000000000000000000000000000000000000036
:0e4a8000000000000000000000000000000028
:204a8e000030c0000000000000000000000000000000000000000000000000000000000018
:0e4aae000000000000000000000000000000fa
:204abc001030c00000000000000000000000000000000000000000000000000000000000da
:0e4adc000000000000000000000000000000cc
:204aea000030c00000000000000000000000000000000000000000000000000000000000bc
:0e4b0a0000000000000000000000000000009d
:204b18001030c000000000000000000000000000000000000000000000000000000000007d
:0e4b380000000000000000000000000000006f
:204b46000030c000000000000000000000000000000000000000000000000000000000005f
:0e4b6600000000000000000000000000000041
:204b74001030c0000000000000000000000000000000000000000000000000000000000021
:0e4b9400000000000000000000000000000013
:204ba2000030c0000000000000000000000000000000000000000000000000000000000003
:0e4bc2000000000000000000000000000000e5
:204bd0001030c00000000000000000000000000000000000000000000000000000000000c5
:0e4bf0000000000000000000000000000000b7
:204bfe000030c00000000000000000000000000000000000000000000000000000000000a7
:0e4c1e00000000000000000000000000000088
:204c2c001030c0000000000000000000000000000000000000000000000000000000000068
:0e4c4c0000000000000000000000000000005a
:204c5a000030c000000000000000000000000000000000000000000000000000000000004a
:0e4c7a0000000000000000000000000000002c
:204c88001030c000000000000000000000000000000000000000000000000000000000000c
:0e4ca8000000000000000000000000000000fe
:204cb6000030c00000000000000000000000000000000000000000000000000000000000ee
:0e4cd6000000000000000000000000000000d0
:204ce4001030c00000000000000000000000000000000000000000000000000000000000b0
:0e4d04000000000000000000000000000000a1
:204d12000030c0000000000000000000000000000000000000000000000000000000000091
:0e4d3200000000000000000000000000000073
:204d40001030c0000000000000000000000000000000000000000000000000000000000053
:0e4d6000000000000000000000000000000045
:204d6e000030c0000000000000000000000000000000000000000000000000000000000035
:0e4d8e00000000000000000000000000000017
:204d9c001030c00000000000000000000000000000000000000000000000000000000000f7
:0e4dbc000000000000000000000000000000e9
:204dca000030c00000000000000000000000000000000000000000000000000000000000d9
:0e4dea000000000000000000000000000000bb
:204df8001030c000000000000000000000000000000000000000000000000000000000009b
:0e4e180000000000000000000000000000008c
:204e260000000000000000000000000000000000000000000000000000000000000000006c
:0e4e460000000000000000000000000000005e
:204e540000000000000000000000000000000000000000000000000000000000000000003e
:0e4e7400000000000000000000000000000030
:204e8200000000000000000000000000000000000000000000000000000000000000000010
:0e4ea200000000000000000000000000000002
:204eb0000000000000000000000000000000000000000000000000000000000000000000e2
:0e4ed0000000000000000000000000000000d4
:204ede000000000000000000000000000000000000000000000000000000000000000000b4
:0e4efe000000000000000000000000000000a6
:204f0c00000000000000000000000000000000000000000000000000000000000000000085
:0e4f2c00000000000000000000000000100067
:204f3a00000000000000000000000000000000000000000000000000000000000000000057
:0e4f5a00000000000000000000000000000049
:204f6800000000000000000000000000000000000000000000000000000000000000000029
:0e4f880000000000000000000000000000001b
:204f96000000000000000000000000000000000000000000000000000000000000000000fb
:0e4fb6000000000000000000000000000000ed
:204fc4000000000000000000000000000000000000000000000000000000000000000000cd
:0e4fe4000000000000000000000000000000bf
:204ff20000000000000000000000000000000000000000000000000000000000000000009f
:0e501200000000000000000000000000000090
:20502000000000000000000000000000000000000000000000000000000000000000000070
:0e504000000000000000000000000000000062
:20504e00000000000000000000000000000000000000000000000000000000000000000042
:0e506e00000000000000000000000000000034
:20507c00000000000000000000000000000000000000000000000000000000000000000014
:0e509c000000000000000000000000000020e6
:2050aa000000000000000000000000000000000000000000000000000000000000000000e6
:0e50ca000000000000000000000000000000d8
:2050d8000000000000000000000000000000000000000000000000000000000000000000b8
:0e50f8000000000000000000000000000000aa
:20510600000000000000000000000000000000000000000000000000000000000000002069
:0e5126000000000000008000000000000200f9
:2051340000000000000000000000000000000000000000000000000000000000000000005b
:0e51540000000000000000000000000000004d
:20516200000000000000000000000000000000000000000000000000000000000008000025
:0e518200000000000000800000000900020094
:205190000000000000000000000000000000000000000000000000000000000000300000cf
:0e51b0000000000000000000000008000000e9
:2051be000000000000000000000000000000000000000000000000000000000000000000d1
:0e51de000000000000000000000000000000c3
:2051ec000000000000000000000000000000000000000000000000000000000000000000a3
:0e520c00000000000000000000000000000094
:20521a00000000000000000000000000000000000000000000000000000001680f000000fc
:0e523a000000000000000000280300800000bb
:2052480000000000000000000000000000000000000000000000000000000a9400000000a8
:0e5268000000000000000000280ce1800000a3
:20527600000000000000000000000000000000000000000000000000000000000000000018
:0e52960000000000000000000000000000000a
:2052a4000000000000000000000000000000000000000000000000000000000000000000ea
:0e52c4000000000000000000000000000000dc
:2052d2000000000000000000000000000000000000000000000000000000000000000000bc
:0e52f2000000000000000000000000000000ae
:2053000000000000000000000000000000000000000000000000000000000000000000008d
:0e53200000000000000000000000000000007f
:20532e0000000000000000000000000000000000000000000000000000000000000000005f
:0e534e00000000000000000000000000000051
:20535c00000000000000000000000000000000000000000000000000000000000000000130
:0e537c00c00000000000000000000020000043
:20538a00000000000000000000000000000000000000000000000000000000000000000003
:0e53aa000000000000000000000000000000f5
:2053b8000000000000000000000000000000000000000000000000000000000000000000d5
:0e53d8000000000000000000000000000000c7
:2053e6000000000000000000000000000000000000000000000000000000000000000000a7
:0e54060000000000028000059682d000000029
:20541400000000000000000000000000000000000000000000000000000000000000000078
:0e5434000000000000000000be959000000c7b
:2054420000000000000000000000000000000000000000000000000000000000000000004a
:0e54620000000000000000408400d0000000a8
:2054700000000000000000000000000000000000000000000000000000000000000000001c
:0e54900000000000000000108c0d9380000052
:20549e000000000000000000000000000000000000000000000000000000000000000000ee
:0e54be0000000000000000000143a1080000f3
:2054cc000000000000000000000000000000000000000000000000000000000000000000c0
:0e54ec000000000000000000001dc98100004b
:2054fa00000000000000000000000000000000000000000000000000000000000000000092
:0e551a0000000000040000048000800000007b
:20552800000000000000000000000000000000000000000000000000000000000000000063
:0e5548000000000006000000940c800e000021
:20555600000000000000000000000000000000000000000000000000000000000000000035
:0e55760000000000000000008000c1000000e6
:20558400000000000000000000000000000000000000000000000000000000000000000007
:0e55a4000000000000000014860080000000df
:2055b2000000000000000000000000000000000000000000000000000000000000000000d9
:0e55d2000000f000000000002c8ed008000049
:2055e0000000000000000000000000000000000000000000000000000000000000000000ab
:0e5600000120f780028000003c24b3810000ee
:20560e0000000000000000000000000000000000000000000000000000000000000000007c
:0e562e0000000000000000001582000a0000cd
:20563c0000000000000000000000000000000000000000000000000000000000000000004e
:0e565c000000000000000710158fc01f001c8a
:20566a00000000000000000000000000000000000000000000000000000000000000000020
:0e568a00000aa068000000003e830008000037
:205698000000000000000000000000000000000000000000000000000000000000000000f2
:0e56b800080a5321400000003e97c1980000f0
:2056c6000000000000000000000000000000000000000000000000000000000000080000bc
:0e56e60001002be04000000000000100000069
:2056f400000000000000000000000000000000000000000000000000000000000070000026
:0e57140000000ba60000030000000800000cbf
:20572200000000000000000000000000000000000000000000000000000000000000000067
:0e574200002850ec2000000081418000014052
:20575000000000000000000000000000000000000000000000000000000000000000000039
:0e577000142087ac660000019415e01800803c
:20577e0000000000000000000000000000000000000000000000000000000000000100000a
:0e579e0000008be2600000028280d00000005c
:2057ac0000000000000000000000000000000000000000000000000000000000000180005c
:0e57cc0000000ba66000001092168000400046
:2057da0000000000000000000000000000000000000000000000000000000000009000001f
:0e57fa00000000000000000000019080000090
:20580800000000000000000000000000000000000000000000000000000000000081e0001f
:0e5828000000000160000000294085001c0007
:2058360000000000000000000000000000000000000000000000000000000000fc00000056
:0e585600002600ec0000000490a4d000180012
:2058640000000000000000000000000000000000000000000000000000000201ed00000034
:0e588400042a05a9e00000008600801800003c
:205892000000000000000000000000000000000000000000000000000000000000000000f6
:0e58b20000080977400003008867800a0000a4
:2058c0000000000000000000000000000000000000000000000000000000000000000000c8
:0e58e000000001f460000380908c8001000045
:2058ee0000000000000000000000000000000000000000000000000000000000000000009a
:0e590e00002e0db400000040920000000000ca
:20591c0000000000000000000000000000000000000000000000000000000000000000006b
:0e593c00002805b802800714921c8000101c81
:20594a0000000000000000000000000000000000000000000000000000000000000000003d
:0e596a0000000001400700000027a10da00072
:2059780000000000000000000000000000000000000000000000000000000000000000000f
:0e5998000000000000000000200c998140007b
:2059a6000000000000000000000000000000000000000000000000000000000000000000e1
:0e59c60000000000000000048000d11000006e
:2059d4000000000000000000000000000000000000000000000000000000000000000000b3
:0e59f4000000000006000340bc16980e000cd8
:205a0200000000000000000000000000000000000000000000000000000000000000000084
:0e5a220000000000400000048142a0000000cf
:205a3000000000000000000000000000000000000000000000000000000000000000000056
:0e5a50000000000200000010921eb0000000d6
:205a5e00000000000000000000000000000000000000000000000000000000000000000028
:0e5a7e00012f00a0000000000282db000000eb
:205a8c000000000000000000000000000000000000000000000000000000000000000000fa
:0e5aac000020037800000000014c198000006b
:205aba000000000000000000000000000000000000000000000000000000000000000000cc
:0e5ada0000000001c000000000000590000068
:205ae80000000000000000000000000000000000000000000000000000000000000000009e
:0e5b0800000000020000000000000d0a000076
:205b160000000000000000000000000000000000000000000000000000000000000000006f
:0e5b3600000000000000004017c0000000004a
:205b4400000000000000000000000000000000000000000000000000000000000000000041
:0e5b6400000000016000002017d6800e0140f6
:205b7200000000000000000000000000000000000000000000000000000000000000000013
:0e5b920001225d740280000000000008000087
:205ba0000000000000000000000000000000000000000000000000000000000000000000e5
:0e5bc00000240d38004000000000000100002d
:205bce000000000000000000000000000000000000000000000000000000000000000000b7
:0e5bee0000000000000000000003d1000000d5
:205bfc00000000000000000000000000000000000000000000000000000000000000000089
:0e5c1c0000000000000057100106d800001c18
:205c2a0000000000000000000000000000000000000000000000000000000000000000005a
:0e5c4a000000000000000000169dd0080000c1
:205c580000000000000000000000000000000000000000000000000000000000000000002c
:0e5c7800000000000680000036acd0010000e5
:025c860000001c
:035c880072008027
:025c8b00110006
:035c8d0062002f83
:035c90008200008f
:025c930001030b
:065c950000000000000009
:065c9b0000000000000003
:065ca100000000000000fd
:065ca700000000000000f7
:065cad00000000000000f1
:065cb300000000000000eb
:065cb900000000000000e5
:065cbf00000000000000df
:065cc500000000000000d9
:065ccb00000000000000d3
:065cd100000000000000cd
:065cd700000000000000c7
:065cdd00000000000000c1
:065ce300000000000000bb
:065ce900000000000000b5
:065cef00000000000000af
:065cf500000000000000a9
:065cfb00000000000000a3
:065d01000000000000009c
:065d070000000000000096
:065d0d0000000000000090
:065d13000000000000008a
:065d190000000000000084
:065d1f000000000000007e
:065d250000000000000078
:065d2b0000000000000072
:065d31000000000000006c
:065d370000000000000066
:065d3d0000000000000060
:065d43000000000000005a
:065d490000000000000054
:065d4f000000000000004e
:065d550000000000000048
:065d5b0000000000000042
:065d61000000000000003c
:065d670000000000000036
:065d6d0000000000000030
:065d73000000000000002a
:065d790000000000000024
:065d7f000000000000001e
:065d850000000000000018
:065d8b0000000000000012
:065d91000000000000000c
:065d970000000000000006
:065d9d0000000000000000
:065da300000000000000fa
:065da900000000000000f4
:065daf00000000000000ee
:065db500000000000000e8
:065dbb00000000000000e2
:065dc100000000000000dc
:065dc700000000000000d6
:065dcd00000000000000d0
:065dd300000000000000ca
:065dd900000000000000c4
:065ddf00000000000000be
:065de500000000000000b8
:065deb00000000000000b2
:065df100000000000000ac
:065df700000000000000a6
:065dfd00000000000000a0
:065e030000000000000099
:065e090000000000000093
:065e0f000000000000008d
:065e150000000000000087
:065e1b0000000000000081
:065e21000000000000007b
:065e270000000000000075
:065e2d000000000000006f
:065e330000000000000069
:065e390000000000000063
:065e3f000000000000005d
:065e450000000000000057
:065e4b0000000000000051
:065e51000000000000004b
:065e570000000000000045
:065e5d000000000000003f
:065e630000000000000039
:065e690000000000000033
:065e6f000000000000002d
:065e750000000000000027
:065e7b0000000000000021
:065e81000000000000001b
:065e870000000000000015
:065e8d000000000000000f
:065e930000000000000009
:065e990000000000000003
:065e9f00000000000000fd
:065ea500000000000000f7
:065eab00000000000000f1
:065eb100000000000000eb
:065eb700000000000000e5
:065ebd00000000000000df
:065ec300000000000000d9
:065ec900000000000000d3
:065ecf00000000000000cd
:065ed500000000000000c7
:065edb00000000000000c1
:065ee100000000000000bb
:065ee700000000000000b5
:065eed00000000000000af
:065ef300000000000000a9
:065ef900000000000000a3
:065eff000000000000009d
:065f050000000000000096
:065f0b0000000000000090
:065f11000000000000008a
:065f170000000000000084
:065f1d000000000000007e
:065f230000000000000078
:065f290000000000000072
:065f2f000000000000006c
:065f350000000000000066
:065f3b0000000000000060
:065f41000000000000005a
:065f470000000000000054
:065f4d000000000000004e
:065f530000000000000048
:065f590000000000000042
:065f5f000000000000003c
:065f650000000000000036
:065f6b0000000000000030
:065f71000000000000002a
:065f770000000000000024
:065f7d000000000000001e
:065f830000000000000018
:065f890000000000000012
:065f8f000000000000000c
:025f950000000a
:035f970082008005
:025f9a00010301
:065f9c00000000000000ff
:065fa200000000000000f9
:065fa800000000000000f3
:065fae00000000000000ed
:065fb400000000000000e7
:065fba00000000000000e1
:065fc000000000000000db
:065fc600000000000000d5
:065fcc00000000000000cf
:065fd200000000000000c9
:065fd800000000000000c3
:065fde00000000000000bd
:065fe400000000000000b7
:065fea00000000000000b1
:065ff000000000000000ab
:065ff600000000000000a5
:065ffc000000000000009f
:0660020000000000000098
:0660080000000000000092
:06600e000000000000008c
:0660140000000000000086
:06601a0000000000000080
:066020000000000000007a
:0660260000000000000074
:06602c000000000000006e
:0660320000000000000068
:0660380000000000000062
:06603e000000000000005c
:0660440000000000000056
:06604a0000000000000050
:066050000000000000004a
:0660560000000000000044
:06605c000000000000003e
