:02000000ff00ff
:080002004c6174746963650030
:17000a00694345637562653220323032302e31322e32373934330071
:16002100506172743a206943453430554c314b2d434d33364100ff
:1b003700446174653a2046656220323820323032362032323a33383a3333008c
:0200520000ffad
:040054007eaa997e69
:02005800510055
:02005a0001059e
:03005c00920020ef
:03005f0062016fcc
:0300620082000019
:03006500720070b6
:02006800110085
:02006a00010192
:20006c000000000000000000000000100000000000004000000000000100000000004000e3
:0e008c00000000000100000000000000000065
:20009a00000000000000000000000020000000000000800000000000020000000000800024
:0e00ba00000000000200000000000000000036
:2000c800000000000000000000000000000000000000000001002c000000000000000000eb
:0e00e800000000000000000400000000000006
:2000f6000000000000000000000000000000000000000000000000000100000000000000e9
:0e0116000000000000000000000000000000db
:200124000000000000000000000000000000000000000000000000000000000000000000bb
:0e0144000000000000000000000000000000ad
:2001520000000000000000000000000000000000000000000000000000000000000000008d
:0e01720000000000000000000000000000007f
:2001800000000000000000000000000000000000000000000000000400000000000000005b
:0e01a00000000000000000040000000000004d
:2001ae0000000000000000000000000000000000000000000200000000000000000000002f
:0e01ce00000000000000000000000000000023
:2001dc000000000000000000000000000000000000000000000000080000000000000000fb
:0e01fc00000000000000000000980004000059
:20020a000000000000000000000000000000000000000000000000000000000000000000d4
:0e022a00000000000000000000f800000000ce
:200238000000000000000000000000000000000000000000000000000300000001000000a2
:0e025800000000040000000000000034000060
:20026600000000000000000000000010000000000000000000000000010000000000000067
:0e02860000000000000000080000001c000046
:2002940000000000000000000000000000000000000000000000000000000000000000004a
:0e02b400000000080000000000001000000024
:2002c20000000000000000000000000000000000000000000000000000000000000000001c
:0e02e200000000040000000400000000000006
:2002f0000000000000000000002000000000000000000000000000000000000000000000ce
:0e0310000000000000000000000010000000cf
:20031e0000000000000000000160000000000000000000000000000000000000000000005e
:0e033e000000000400000008000000000000a5
:20034c00010000000c30200000000303c02000000000000000000000000000000018f04006
:0e036c00000000000000000000020000000081
:20037a00010000000c30000000000003c00000000000000000000000000000000010f04023
:0e039a004000000000000000034000000000d2
:2003a800000000000c3020000000000000000000000000000000000000020000380000009f
:0e03c80008000000000000000040200a510064
:2003d600000000000c300000000000000000000000000000000000000008000000000000c3
:0e03f600200000000000000000000405a00030
:20040400000000000c30200000000000000000000000000000000000000c0000000cf04034
:0e0424000000001000000000000000000000ba
:20043200000000000c30000000000000000000000000000000000000000000000010f0402e
:0e045200000000e000000000000000000000bc
:20046000010000000c3020000000000000000000000000000000000000000000000000001f
:0e048000000080000000000000e0000000000e
:20048e00000000000c30000000000000000000000000000000000000000000000000000012
:0e04ae00000010000000000000200000000010
:2004bc00000000000c302040018000000000000000000000000000000000000030000000d3
:0e04dc00000000002bc100c000000000000066
:2004ea00000000000c300040008000000000000000000000000000000000000000000000f6
:0e050a000000000043c100400002400000005d
:20051800000000000c30200000000000000000000000000000000000000000000000000067
:0e053800000000000000000000e017c50008f1
:20054600000000000c30000000000000000000000000000000000000000000000000000059
:0e05660000000000000000000360000500001f
:20057400000000000c3020000000000000000000000000000000000000000000000000000b
:0e05940000000005a941000001c01dc40000c8
:2005a200000000000c300000000000000000000000000000000000000000000000000000fd
:0e05c200000000004141000000022ee0000099
:2005d000000000000c30200000000000000000000000000000000000000c000000000000a3
:0e05f0003000000000000000014005e800207f
:2005fe00000000000c300000000000000000000000000000000000000000000000000000a1
:0e061e0000000000000000000020240000008a
:20062c00000000000c3020000000000000000000000000000000000000000004005877007f
:0e064c00000018093800020a00000ed08000dd
:20065a00010040000c30000000000000000000000000000000000000000000022a5fee008a
:0e067a00000000017840000000003cd00000ad
:20068800000000040c3020000000000000000000000000000000000000000000780000007a
:0e06a80008008003e2150000000000000000c2
:2006b600000000000c300000000000000000000000000000000000000000000000000000e8
:0e06d600200010a1bfe900000000000000009d
:2006e400010000000c30200000000000000000000000000000000000000000000000000099
:0e070400000000093fc50000000000000000da
:20071200000000000c3000000000000000000000000000000000000000000000000000008b
:0e0732000000000177c1000000000000000080
:20074000000000000c3020000000000000000000000000000000000000000000000000003d
:0e0760000000000760400000000000000000e4
:20076e00000000000c3000000000000000000000000000000000000000000000000000002f
:0e078e00000000013d400100000000000000de
:20079c00000000000c302000000000000000000000000000000000000000100000000000d1
:0e07bc000040300f36910000014000000000a8
:2007ca00000000000c300000000000000000000000000000000000000000000000000000d3
:0e07ea000000080136e10400000000000000dd
:2007f800000000000c30200000000000000000000000000000000000000000000000000085
:0e08180000000001e28000000140000000002e
:20082600000000000c30000000000000000000000000000000000000000000000000000076
:0e084600000000d0828001000002400000008f
:20085400000000000c302000000000000000000000000000000000000000100038000000e0
:0e087400000070100000000000028000000074
:20088200000000000c30000000000000000000000000000000000000000018000000000002
:0e08a2000040908000000000000000000000f8
:2008b000000000000c302000000000000000000000000000000000000000000000000000cc
:0e08d0003000000000000000000000000000ea
:2008de00000000000c300000000000000000000000000000000000000000000000000000be
:0e08fe000000000000000001000000000000eb
:20090c00000000000c3020000000000000000000000000000000000000000000016000808e
:0e092c0000028015e9dc000002061cf08000cd
:20093a00000000000c3000000000000000000000000000000000000000000000000000025f
:0e095a000000f087a7b8000002427ec0001027
:20096800010000000c30200000000000000000000000000000000000000000000060008032
:0e0988000900f1e00295002802078ee0000051
:20099600000000000c3000000000000000000000000000000000000000000000382f00009e
:0e09b6002200f80d0169208410441df0800815
:2009c400000000000c302000000000000000000000000000000000000000000005610080d1
:0e09e4003000b8102bc100c0006004f7720094
:2009f200000000000c30000000000000000000000000000000000000000000142c29000040
:0e0a1200100078f003c1200000203f8dd000be
:200a2000000000000c3020000000000000000000000000000000000000000000006000807a
:0e0a4000000078e965dc0000000000ef040013
:200a4e00000000000c300000000000000000000000000000000000000000003c302e0000b2
:0e0a6e000000f0f52fb800000000000f04009b
:200a7c00000000000c3020000000000000000000000000000000000000001000014100802c
:0e0a9c0000487013b4cc00010162018f040009
:200aaa00000000000c300000000000000000000000000000000000000000000000090000e7
:0e0aca00000008e52bfc00000004010f0400f2
:200ad800000000000c302000000000000000000000000000000000000000001e00610080a3
:0e0af8000040700000000000000004e3300029
:200b0600000000000c3000000000000000000000000000000000000000000000002c000067
:0e0b2600000008000000000001403fdff0006a
:200b3400000000000c302000000000000000000000000000000000000000102001e10080b3
:0e0b5400000018000000000103c29cc3320024
:200b6200000000000c30000000000000000000000000000000000000000010143c090000ce
:0e0b82000040000000000001016284aff0009e
:200b9000000000000c302000000000000000000000000000000000000000002000600080e9
:0e0bb0003000008dfddc00c0000000000000e1
:200bbe00000000000c3000000000000000000000000000000000000000000014002b00009c
:0e0bde0000000009e3b8000000000000000065
:200bec0000000000000000000000003fce2000000000000000000000000000000008f04084
:0e0c0c0040000003800200000063f6e08080dc
:200c1a0000000000000000000000003fc00000000000000000000000000000000000f0c407
:0e0c3a004200b00000000800002276e000003a
:200c480000000000000000000000000000000000000000000000000000020000000000008a
:0e0c6800000080a18002000000603dd77000f7
:200c7600000000000000000000000000000000000000000000000000000800000000000056
:0e0c9600000070002800000000200eddd000dd
:200ca400000000000000000000000000000000000000000000000000000000000000000030
:0e0cc400010000a780020000006601a0a080d1
:200cd200000000000000000000000000000000000000000000000000000001000000000001
:0e0cf2000280b000a000000001642400500049
:200d00000000000000000000000000000000000000000000000000000000000000000000d3
:0e0d2000008018e500020000026674c4002086
:200d2e000000000000000000000000000000000000000000000000000000000000000000a5
:0e0d4e0001000800a80000000246440000005a
:200d5c00000000000000000000000000000000000000000000000000000000000000000077
:0e0d7c000030580180020000020024a8002070
:200d8a00000000000000000000000000000000000000000000000000000000000000000049
:0e0daa0000000000a000000000401600000441
:200db80000000000000000000000000000000000000000000000000000000000000000001b
:0e0dd80000001005800200000363b5f08000eb
:200de6000000000000000000000000000000000000000000000000000000000000000000ed
:0e0e0600000008002800000001440ff000006a
:200e140000000000000000000000000000000000000000000000000000000140000000007d
:0e0e340000000003000200001367a7f080001a
:200e4200000000000000000000000000000000000000000000000000000000800000000010
:0e0e6200002000002000000029401df00000cc
:200e7000000000000000000000000000000000000000000000000000000c00000000000056
:0e0e900000000005800200000166d490000002
:200e9e00000000000000000000000000000000000000000000000000000000000000000034
:0e0ebe0000000090a8000000000287a40000c1
:200ecc00000000000000000000000000000000000000000000000000000000000000000006
:0e0eec000000018023c10100020026a80008ba
:200efa000000000000000000000000000000000000000000000000000000000000000000d8
:0e0f1a000000000003c3100002c0268000008b
:200f28000000000000000000000000000000000000000000000000000002000000000000a7
:0e0f4800080078a536950320020280ac002038
:200f5600000000000000000000000000000000000000000000000000000800000000000073
:0e0f76002000110b219d00800142800c000024
:200f8400000000000000000000000000000000000000000000000000000c00000000000041
:0e0fa400000018adb9410010016016ef742076
:200fb20000000000000000000000000000000000000000000000000000000000000000001f
:0e0fd2000200018f4295060001402d0db41063
:200fe00000000000000000000000000000000000000000000000000000000000381af04867
:0e1000003000d0053f95000002060000000001
:20100e00000000000000000000000000000000000000000000000000000000004010f04042
:0e102e002000188da39f00000140000000006c
:20103c00000000000000000000000000000000000000000000000000000000000000000094
:0e105c00000080cda69580000000400000003e
:20106a00000000000000000000000000000000000000000000000000000000000000000066
:0e108a000000500f704100000002c000000086
:20109800000000000000000000000000000000000000000000000000000000000000000038
:0e10b8000000000dfc954400000380000000c5
:2010c60000000000000000000000000000000000000000000000000000000000000000000a
:0e10e6000000b00968050400e00000000000f2
:2010f4000000000000000000000000000000000000000000000000000000000000000000dc
:0e111400000058180295000402004ef7a000db
:201122000000000000000000000000000000000000000000000000000000000000000000ad
:0e114200002000830169010000421687400072
:20115000000000000000000000000000000000000000000000000000000c00000000000073
:0e1170003000008863d500c0000035a7443071
:20117e00000000000000000000000000000000000000000000000000000000000000000051
:0e119e000000010d03e9800000001503c414d9
:2011ac0000000000000000000000000000000000000000000000000000010000000cf040e6
:0e11cc00000038ad2940000000006edb000876
:2011da00000000000000000000000000000000000000000000000000000100000000f040c4
:0e11fa000000090b7900000000022f9f00008a
:201208000000000000000000000000000000000000000000000000000002000000000000c4
:0e12280000000017e800002014601dc0102810
:20123600000000000000000000000000000000000000000000000000000800000000000090
:0e125600000000fde81000800002c000100043
:20126400000000000000000000000000000000000000000000000000000400002000000046
:0e1284000000d0bd2f0400000203df804428cc
:20129200000000000000000000000000000000000000000000000000000c000040000000f0
:0e12b2000000509d7f0c010800462600b4008d
:2012c00000000000000000000000000000000000000000000000000000000000000000000e
:0e12e000000001872bc00000004237a77000fd
:2012ee000000000000000000000000000000000000000000000000000000000000000000e0
:0e130e0000000109c280000000000efee08019
:20131c000000000000000000000000000000000000000000000000000000000400000000ad
:0e133c0000003808050800000066b5e1c0009a
:20134a00000000000000000000000000000000000000000000000000000000000000000083
:0e136a000000000d3e04000000003ff3c00034
:20137800000000000000000000000000000000000000000000000000000000000000000055
:0e139800000000052828000003c30ee000201e
:2013a600000000000000000000000000000000000000000000000000000000000000000027
:0e13c600000000a38000000002e654010000b9
:2013d4000000000000000000000000000000000000000000000000000000000000000000f9
:0e13f400000010c00000000000e71ec14428e9
:201402000000000000000000000000000000000000000000000000000000000000000000ca
:0e14220000000900000000000023c201440089
:20143000000000000000000000000000000000000000000000000000000c00000000000090
:0e145000000000e0614002c0000675e50400e7
:20145e0000000000000000000000000000000000000000000000000000000000000000006e
:0e147e000000000142800000000207c21400be
:02148c0000005e
:03148e0072009059
:02149100110147
:02149300010155
:201495000000000000000000000000100000000000004000000000000100000000004000a6
:0e14b500000000000100000400000000000024
:2014c3000000000000000000000000200000000000008000000000000200000000008000e7
:0e14e3000000000002000000000000080000f1
:2014f1000000000000000000000000000000000000000000000014000000000000000000c7
:0e1511000000000000000004000000000000c8
:20151f000000000000000000000000000000000000000000000000000000000000000000ac
:0e153f0000000000000000000000000400009a
:20154d0000000000000000000000000000000000000000000000000000000000000000007e
:0e156d00000000000000000800000040000028
:20157b00000000000000000000000000000000000000000000000000000000000000000050
:0e159b00000000000000000000000040000002
:2015a900000000000000000000000000000000000000000000000000000000000000000022
:0e15c900000000000000000800791000000083
:2015d7000000000000000000000000000000000000000000000000000000000000000000f4
:0e15f70000000000000000000098400000000e
:201605000000000000000000000000000000000000000000000000000000000000000000c5
:0e162500000000040100000000002000000092
:20163300000000000000000000000000000000000000000000000000000000000000000097
:0e165300000000000000000000000000000089
:20166100000000000000000000000000000000000000000000000000030000000000000066
:0e168100000000000000000000000008000053
:20168f0000000000000000000000000000000000000000000000000001000000000000003a
:0e16af00000000000000000000000004000029
:2016bd0000000000000000000000000000000000000000000000000000000000000000000d
:0e16dd000000000000000000000000000000ff
:2016eb000000000000000000000000000000000000000000000000000000000000000000df
:0e170b000100000000000000000000000000cf
:201719000000000000000000000000000000000000000000000000000000000000000000b0
:0e17390001000004000000000000000000009d
:20174700000000000000000000000000000000000000000000000000000000000000000082
:0e176700000000000000000000000000000074
:20177500000000000c30000000000000000000000000000000000000000000000000000018
:0e179500000000000000000000000000000046
:2017a300000000000c302000000000000000000000000000000000000000000000000000ca
:0e17c300000000000000000000000000000018
:2017d100000000000c300000000000000000000000000000000000000000000000000000bc
:0e17f1000000000000000000000000000000ea
:2017ff00000000000c3020000000000000000000000000000000000000000000000000006e
:0e181f000000000000000000000000000000bb
:20182d00000000000c3000000000000000000000000000000000000000000000000000005f
:0e184d00040000000000000000000000000089
:20185b00000000000c30200000000000000000000000000000000000000000000000000011
:0e187b0000000000000000000000000000005f
:20188900000000000c30000000000000000000000000000000000000000000000030a00033
:0e18a900000000000000000000000000000031
:2018b700000000000c3020000000000000000000000000000000000000000000007aa0009b
:0e18d700000000000000000000000000000003
:2018e500000000000c30000000000000000000000000000000000000000000003400000073
:0e1905000000000000000000000000000000d4
:20191300000000000c30200000000000000000000000000000000000000000000000000058
:0e1933000000000000000000000000000000a6
:20194100000000000c3000000000000000000000000000000000000000000000000000004a
:0e196100000000000000000000000000000078
:20196f00000000000c302000000000000000000000000000000000000000000000000000fc
:0e198f0000000000000000000000000000004a
:20199d00000000000c300000000000000000000000000000000000000000000040000000ae
:0e19bd0000000000000000000000040a5000be
:2019cb00000000000c30200000000000000000000000000000000000000000006000000040
:0e19eb00000000000000000000000005a00049
:2019f900000000000c30000000000000000000000000000000000000000000000000000092
:0e1a190000000000000000000020000000009f
:201a2700000000000c30200000000000000000000000000000000000000000000000000043
:0e1a4700000000000000000000e000000000b1
:201a5500000000000c30000000000000000000000000000000000000000000000000000035
:0e1a750000000000c141000000000000000061
:201a8300000000000c302000000000000000000000000000000000000000000000000000e7
:0e1aa3003000000321410000000000000000a0
:201ab100000000000c300000000000000000000000000000000000000000000000000000d9
:0e1ad100000000000000000000000000000007
:201adf00000000000c3020000000000000000000000000000000000000000000000000008b
:0e1aff000000000000000000000000000000d9
:201b0d00000000000c3000000000000000000000000000000000000000000000000000007c
:0e1b2d000000000000000000000000000000aa
:201b3b00000000000c3020000000000000000000000000000000000000000000000000002e
:0e1b5b00000000000000000004000000000078
:201b6900000000000c30000000000000000000000000000000000000000000000000000020
:0e1b89000000008000000000000000000000ce
:201b9700000000000c302000000000000000000000000000000000000000000000000000d2
:0e1bb700000000100000000000000000000010
:201bc500000000000c300000000000000000000000000000000000000000000000000000c4
:0e1be5000000000000000000000000000000f2
:201bf300000000000c30200000000000000000000000000000000000000000000000000076
:0e1c13000000000000000000000000000000c3
:201c2100000000000c30000000000000000000000000000000000000000000000000000067
:0e1c41000000000901690000400000000000e2
:201c4f00000000000c30200000000000000000000000000000000000000000000000000019
:0e1c6f000000000002950000000000000000d0
:201c7d00000000000c3000000000000000000000000000000000000000000000000000000b
:0e1c9d00200000000000000000000000000019
:201cab00000000000c302000000000000000000000000000000000000000000000000000bd
:0e1ccb00080000000000000000000000000003
:201cd900000000000c300000000000000000000000000000000000000000000000000000af
:0e1cf90000000090000000000000000000004d
:201d0700000000000c30200000000000000000000000000000000000000000000000000060
:0e1d270000000010000000000000000000009e
:201d3500000000000c30000000000000000000000000000000000000000000000000000052
:0e1d5500000000000000000000000000000080
:201d6300000000000c30200000000000000000000000000000000000000000000000000004
:0e1d830000000000000000c000000000000092
:201d9100000000000c300000000000000000000000000000000000000000000000000000f6
:0e1db1000000000000000000024000000000e2
:201dbf00000000000c302000000000000000000000000000000000000000000000000000a8
:0e1ddf000000000000000000000000000000f6
:201ded00000000000c3000000000000000000000000000000000000000000000000000009a
:0e1e0d000000000000000000000000000000c7
:201e1b00000000000c3020000000000000000000000000000000000000000000000000004b
:0e1e3b00000000000000000000000000000099
:201e4900000000000c3000000000000000000000000000000000000000000000000000003d
:0e1e690000000000000000000000000000006b
:201e7700000000000c302000000000000000000000000000000000000000000000000000ef
:0e1e970000000000000000000000000000003d
:201ea500000000000c300000000000000000000000000000000000000000000000000000e1
:0e1ec50000000000000000000000000000000f
:201ed300000000000c30200000000000000000000000000000000000000000000000000093
:0e1ef3000000000000000000000000000000e1
:201f0100000000000c30004000000000000000000000000000000000000000000000000044
:0e1f210000000000000000000000000f04009f
:201f2f00000000000c302040000000000000000000000000000000000000000000000000f6
:0e1f4f000000000000000000000000ef040091
:201f5d00000000000c30000000000000000000000000000000000000000000000000000028
:0e1f7d000000000000000080000000000000d6
:201f8b00000000000c302000000000000000000000000000000000000000000000000000da
:0e1fab00000000000000002000000000000008
:201fb900000000000c300000000000000000000000000000000000000000000000000000cc
:0e1fd9000000000000000000000000000000fa
:201fe700000000000c3020000000000000000000000000000000000000000000000000007e
:0e2007000000000000000000000000000000cb
:202015000000000000000000000000000000000000000000000000000000000000000000ab
:0e20350000000000000000000000000000009d
:2020430000000000000000000000000000000000000000000000000000000000000000007d
:0e20630000000000000000c000068000000029
:2020710000000000000000000000000000000000000000000000000000000000000000004f
:0e209100004000000000000115c0000000002b
:20209f00000000000000000000000000000000000000000000000000000000000000000021
:0e20bf0000000000000000000800000000000b
:2020cd000000000000000000000000000000000000000000000000000000000000000000f3
:0e20ed000000000000000000000000000000e5
:2020fb000000000000000000000000000000000000000000000000000000000000000000c5
:0e211b000000000000000000000000000000b6
:20212900000000000000000000000000000000000000000000000000000000000000000096
:0e2149000000000000000000a0003c8f7404a5
:20215700000000000000000000000000000000000000000000000000000000000000000068
:0e2177000040000000000001000024fa740087
:2021850000000000000000000000000000000000000000000000000000000000000000003a
:0e21a50000000000000000000000000000002c
:2021b30000000000000000000000000000000000000000000000000000000000000000000c
:0e21d3000000000000000000000000000000fe
:2021e1000000000000000000000000000000000000000000000000000000000000000000de
:0e22010000000000000000c00000000000000f
:20220f000000000000000000000000000000000000000000000000000000000000000000af
:0e222f000000000000000040000780000000da
:20223d00000000000000000000000000000000000000000000000000000000000000000081
:0e225d000000000000000080004000000000b3
:20226b00000000000000000000000000000000000000000000000000000000000000000053
:0e228b00000000000000002002100000000013
:20229900000000000000000000000000000000000000000000000000000000000000000025
:0e22b900000000000000000000000000000017
:2022c7000000000000000000000000000000000000000000000000000000000000000000f7
:0e22e7000000000000000000004000000000a9
:2022f5000000000000000000000000000000000000000000000000000000000000000000c9
:0e231500000000000000000000c000000000fa
:2023230000000000000000000000000000000000000000000000000000000000000000009a
:0e234300000000000000000800000000000084
:2023510000000000000000000000000000000000000000000000000000000000000000006c
:0e237100004001000000000100040000000018
:20237f0000000000000000000000000000000000000000000000000000000000000000003e
:0e239f00000000e00000000001c70000000088
:2023ad00000000000000000000000000000000000000000000000000000000000000000010
:0e23cd00000000000000000003441c0500801a
:2023db000000000000000000000000000000000000000000000000000000000000000000e2
:0e23fb0000000000000000000206a1ca000061
:202409000000000000000000000000000000000000000000000000000000000000000000b3
:0e24290000000000000000001402000000008f
:20243700000000000000000000000000000000000000000000000000000000000000000085
:0e24570000401000000000010800000000001e
:20246500000000000000000000000000000000000000000000000000000000000000000057
:0e24850000000003428002000840000000003a
:20249300000000000000000000000000000000000000000000000000000000000000000029
:0e24b300000000003940000010000000000092
:2024c1000000000000000000000000000000000000000000000000000000000000000000fb
:0e24e100000000000000000000031c0380004b
:2024ef000000000000000000000000000000000000000000000000000000000000000000cd
:0e250f000000000000000000000045a3c024f2
:20251d0000000000000000000000000000000000000000000000000000000000000000009e
:0e253d00000000000000000000001700000079
:20254b00000000000000000000000000000000000000000000000000000000000000000070
:0e256b00000000000000000000002ce0a000b6
:20257900000000000000000000000000000000000000000000000000000000000000000042
:0e259900000000000000000000200305f0809c
:2025a700000000000000000000000000000000000000000000000000000000000000000014
:0e25c700000000000000000000e015c5f1005b
:2025d5000000000000000000000000000000000000000000000004000000000000000000e2
:0e25f500000000000000000003400000000095
:202603000000000000000000000000000000000000000000000000000000000000000000b7
:0e26230030000000000000c0020000000000b7
:20263100000000000000000000000000000000000000000000000000000000000000000089
:0e26510000000000000000000020000000005b
:20265f0000000000000000000000000000000000000000000000000000000000000000005b
:0e267f000000000000000000006000000000ed
:20268d0000000000000000000000000000000000000000000000000000000000000000002d
:0e26ad00000001000000000000029e0fb000bf
:2026bb000000000000000000000000000000000000000000000000000000000000000000ff
:0e26db00000000800000000010c06fa520204d
:2026e9000000000000000000000000000000000000000000000000000000000000000000d1
:0e27090000000009a151820000000508300008
:202717000000000000000000000000000000000000000000000000000000000000000000a2
:0e2737000000000bed5504000003008430206c
:20274500000000000000000000000000000000000000000000000000000000000000000074
:0e2765000000100000000000014004a18000f0
:20277300000000000000000000000000000000000000000000000000000000000000000046
:0e27930000008000000000000140058a4000a8
:2027a1000000000000000040000000000000000000000000000000000000000000000000d8
:0e27c100000000000000000042c01d0f0000dc
:2027cf000000000000000040000000000000000000000000000000000000000000000000aa
:0e27ef000000000000000000020016ce0020d6
:2027fd000000000000000000000000000000000000000000000000000000000000000000bc
:0e281d00200050900000008001401c000000d0
:20282b0000000000000000000000000000000000000000000000000000000000000000008d
:0e284b0008000010000000200200258a000096
:2028590000000000000000000000000000000000000000000000000000000000000000005f
:0e2879000000000000000000004005812580e6
:20288700000000000000000000000000000000000000000000000000000000000000000031
:0e28a70000000000000000000343aec4240047
:2028b500000000000000000000000000000000000000000000000000000000000000000003
:0e28d500000000057860000000000e004000ca
:2028e3000000000000000000000000000000000000000000000000000000000000000000d5
:0e290300000001cd60080000040694a0002032
:202911000000000000000000000000000000000000000000000000000000000000000000a6
:0e2931000000500f0300000010200d8ad0801f
:20293f00000000000000000000000000000000000000000000000000000000000000000078
:0e295f000008000f6b08080008602ea2e000c0
:20296d0000000000000000000000000000000000000000000000000000000000000000004a
:0e298d0000000009c2800000036004a01000da
:20299b0000000000000000000000000000000000000000000000000000000000000000001c
:0e29bb000000000d20000000006005c4200098
:2029c9000000000000000000000000000000000000000000000000000000000000000000ee
:0e29e900000050090284020000041d050000d9
:2029f7000000000000000000000000000000000000000000000000000000000000000000c0
:0e2a17000000000f690c08000163008a000037
:202a2500000000000000000000000000000000000000000000000000000000000000000091
:0e2a45000000d800002840000142960000006a
:202a5300000000000000000000000000000000000000000000000000000000000000000063
:0e2a730000001801e82800000147b6e0a000ae
:202a8100000000000000000000000000000000000000000000000000000000000000000035
:0e2aa100000090000028000401628f881000e1
:202aaf00000000000000000000000000000000000000000000000000000000000000000007
:0e2acf000000d181282800080066eda022003a
:202add000000000000000000000000000000000000000000000000000000000000000000d9
:0e2afd00000090b582808000002025000000bf
:202b0b000000000000000000000000000000000000000000000000000000000000000000aa
:0e2b2b00000080f9b000000000e3b7e0a00059
:202b390000000000000000000000000000000000000000000000000000000000000000007c
:0e2b59000000988100000000034416f5e00023
:202b670000000000000000000000000000000000000000000000000000000000000000004e
:0e2b8700000098176a808000e0e70592e000e9
:202b9500000000000000000000000000000000000000000000000000000000000000000020
:0e2bb50000000000000000000062c0000000f0
:202bc3000000000000000000000000000000000000000000000000000000000000000000f2
:0e2be300300000a0000000c003e7000000006a
:202bf1000000000000000000000000000000000000000000000000000000000000000000c4
:0e2c1100000000000000000001c21fd3cc082c
:202c1f00000000000000000000000000000000000000000000000000000000000000000095
:0e2c3f00000001e00000000001664fe34410b9
:202c4d00000000000000000000000000000000000000000000000000000000003c0000002b
:0e2c6d00000000036a2d010002c607b18600b8
:202c7b00000000000000000000000000000000000000000000000000000000000000000039
:0e2c9b0000001809361584040062def0860081
:202ca90000000000000000000000000000000000000000000000000000000000000000000b
:0e2cc900000050a00000000000239d008404c5
:202cd7000000000000000000000000000000000000000000000000000000001600000000c7
:0e2cf700000000100000000040e0248054287f
:202d05000000000000000000000000000000000000000000000000000000000000000000ae
:0e2d250000005009a1c10000000327000000bb
:202d3300000000000000000000000000000000000000000000000000000000000000000080
:0e2d530000000007b281050000002588002066
:202d6100000000000000000000000000000000000000000000000000000000003c00000016
:0e2d810030000000000000d000042cca00004a
:202d8f00000000000000000000000000000000000000000000000000000000000000000024
:0e2daf00300000000000005000663cd800001c
:202dbd0000000000000000000000000000000000000000000000000000000000035ca400f3
:0e2ddd0020000101e76d04800002bdee54905d
:202deb0000000000000000000000000000000000000000000000000000000000005c5a1002
:0e2e0b000800008137dd8020000294fc0400e6
:202e1900000000000000000000000000000000000000000000000000000000140000000085
:0e2e3900000050b00000000a0046be852410c4
:202e470000000000000000000000000000000000000000000000000000000000000000006b
:0e2e6700000051800000000403629dce240094
:022e750000005b
:032e770072007076
:022e7a00110243
:022e7c00010152
:202e7e00000000000000000002000000000000080000000002000000000000080000000020
:0e2e9e00000020000000000000800000000086
:202eac00000000000000000001000000000000040000000001000000000000000000000000
:0e2ecc000000100000000000004000000000a8
:202eda000000000000000000000000000000000000000000000000000000000000000000d8
:0e2efa000000000000000000000000000000ca
:202f08000000000000000000000000000000000000000000000000000000000000000000a9
:0e2f280000000000000000000000000000009b
:202f360000000000000000000000000000000000000000000000000000000000000000007b
:0e2f560000000000000000000000000000006d
:202f640000000000000000000000000000000000000000000000000000000000000340000a
:0e2f840000000000000000000000000000003f
:202f920000000000000000000000000000000000000000000000000000000000000000001f
:0e2fb200000000000f00000000000000000002
:202fc0000000000000000000000000000000000000000000000000000000000000000000f1
:0e2fe0000000000001000000000000000000e2
:202fee000000000000000000000000000000000000000000000000000000000802000000b9
:0e300e000000000000000000000000000000b4
:20301c00000000000000000000000000000000000000000000000000000000000000000094
:0e303c00000000000000000000000000000086
:20304a0000000000000000000000000000000000000000000000000000000000c00000089e
:0e306a00000010000000000000000000000048
:203078000000000000000000000000000000000000000000000000000000000080000008b0
:0e30980000002000000000000000000000000a
:2030a60000000000000000000000000000000000000000000000000000000000000000000a
:0e30c6000000000800000000000000000000f4
:2030d4000000000000000000000000000000000000000000000000000000000000000008d4
:0e30f4000000000000000000000000000000ce
:203102000000000000000000000000000000000000000000000000000000000002000000ab
:0e31220000000000000000000000000000009f
:2031300000000000000000000000000000000000000000000000000000000000000000047b
:0e31500000000004000000000000000000006d
:20315e001030c000000200000000000000000000000000000000000000000000000000004f
:0e317e00000000000000000000000000000043
:20318c000030c0000000000000000000000000000000000000000000000000000000000033
:0e31ac00000000000000000000000000000015
:2031ba001030c00000000000000000000000000000000000000000000000000000000000f5
:0e31da00000000000000000083dc0000001078
:2031e8000030c00000000000000000000000000000000000000000000000000000000000d7
:0e320800000000000000000283c2000000046d
:203216001030c0000000000000000000000000000000000000000000000000000000000098
:0e32360000000000000000000000000000008a
:203244000030c000000000000000000000000000000000000000000000000000000000007a
:0e32640000000000000000000000000000005c
:203272001030c000000000000000000000000000000000000000000000000000000000003c
:0e32920000000000000000000000000000002e
:2032a0000030c000000000000000000000000000000000000000000000000000000000001e
:0e32c000000000000000000000000000000000
:2032ce001030c00000000000000000000000000000000000000000000000000000000000e0
:0e32ee000000000000000000000000000000d2
:2032fc000030c00000000000000000000000000000000000000000000000000000000000c2
:0e331c000000000000000000000000000000a3
:20332a001030c0000000000000000000000000000000000000000000000000000000000083
:0e334a00000000000000000000000000000075
:203358000030c0000000000000000000000000000000000000000000000000000000000065
:0e337800000000000000000000000000000047
:203386001030c0000000000000000000000000000000000000000000000000000000000027
:0e33a600000000000000000000000580000094
:2033b4000030c0000000000000000000000000000000000000000000000000000000000009
:0e33d40000000000000000000000008000006b
:2033e2001030c00000000000000000000000000000000000000000000000000000000000cb
:0e340200000000000000000000000000000cb0
:203410000030c00000000000000000000000000000000000000000000000000000000000ac
:0e34300000000000000000000000000000008e
:20343e001030c1e0000000000000000000000000000000000000000000000000000000008d
:0e345e00000000000040500083dc0000002051
:20346c000030c0000000000000000000000000000000000000000000000000000000000050
:0e348c00000000000285008083c007000000e1
:20349a001030c0000000000000000000000000000000000000000000000000000000000012
:0e34ba00000000000000040083d40000401059
:2034c8000030c00000000000000000000000000000000000000000000000000000000000f4
:0e34e800000000000000018083c00000a0046e
:2034f6001030c00000000000000000000000000000000000000000000000000000000000b6
:0e351600000000000000030083dc0008000835
:203524000030c0000000000000000000000000000000000000000000000000000000000097
:0e3544000000000000000080c3c20008000864
:203552001030c0000000000000000000000000000000000000000000000000000000000059
:0e357200000000000000000083dc00000000ec
:203580000030c000000000000000000000000000000000000000000000000000000000003b
:0e35a000000000000000008083c20000000058
:2035ae001030c00000000000000000000000000000000000000000000000000000000000fd
:0e35ce00000000000000800083d40000020016
:2035dc000030c00000000000000000000000000000000000000000000000000000000000df
:0e35fc00000000000000008083c000001400ea
:20360a001030c00000000000000000000000000000000000000000000000000000000000a0
:0e362a000025a0200000200083dc000000002e
:203638000030c0000000000000000000000000000000000000000000000000000000000082
:0e3658000835a0000000408083c00000000084
:203666001030c0000000000000000000000000000000000000000000000000000000000044
:0e36860000000000000080000000079e000011
:203694000030c0000000000000000000000000000000000000000000000000000000000026
:0e36b4000000000000008000000001880200fd
:2036c2001030c00000000000000000000000000000000000000000000000000000000008e0
:0e36e200000000000007030000000000000cc4
:2036f0000030c0000d000000000000000000000000000000000000000000000000000010ad
:0e3710000000000000000000000000000000ab
:20371e001030c000000000000000000000000000000000000000000000000000000000008b
:0e373e000000000346800000c284e800a000e6
:20374c000030c000000000000000000000000000000000000000000000000000000000006d
:0e376c000000000160000010a800d300000063
:20377a001030c000000000000000000000000000000000000000000000000000000000012e
:0e379a00008af3fc00572400c284f0001c10cb
:2037a8000030c0000000000000000000000000000000000000000000000000000000000011
:0e37c800400f50e802a81100a800d000000435
:2037d6001030c00000000000000000000000000000000000000000000000183de00000009e
:0e37f600c06a500162e00300c284a98000088e
:203804000030c00000000000000000000000000000000000000000000000083c0000000070
:0e3824000025a03f46800000a801d10000084a
:203832001030c0000000000000000000000000000000000000000000000000000000040072
:0e38520000000000e6d00000c284b81840005c
:203860000030c00000000000000000000000000000000000000000000000000000000a004e
:0e3880000000000023e80000a801d100200095
:20388e001030c00000000000000000000000000000000000000000000000000000000020fa
:0e38ae00004ee52460008020c285e00002008c
:2038bc000030c00000000000000000000000000000000000000000000000000000000000fc
:0e38dc000007752c20020000a800df00140079
:2038ea001030c00000000000000000000000000000000000000000000000000000000400ba
:0e390a00004ee12806070020c285b70000002d
:203918000030c00000000000000000000000000000000000000000000000000000000a0095
:0e39380000077bff44000000a800d0800000c4
:203946001030c0000000000000000000000000000000000000000000000000000000002041
:0e396600000ee522c0008001c285a0190000fd
:203974000030c0000000000000000000000000000000000000000000000000000000002023
:0e39940001077de660008000a801d008160043
:2039a2001030c000000000000000000000000000000000000000000000000000000000c045
:0e39c200c10ee9ed40402301c285f1811c0ccd
:2039d0000030c0000000000000000000000000000000000000000000000000000000e00007
:0e39f0000007733822404000a801d0080000f4
:2039fe000000000000000000000000000000000000000000000000000000000000000000a9
:0e3a1e0000100021c7000001c284a0000000bb
:203a2c0000000000000000000000000000000000000000000000000000000000000000007a
:0e3a4c000400000004000028a800c0000000d4
:203a5a0000000000000000000000000000000000000000000000000000000000000000004c
:0e3a7a0000369928c0020400c284e00000104b
:203a880000000000000000000000000000000000000000000000000000000000000000001e
:0e3aa8000036994020000102a800e000000452
:203ab6000000000000000000000000000000000000000000000000000000000000000000f0
:0e3ad60000369960e3a00300c284a981000cb1
:203ae4000000000000000000000000000000000000000000000000000000000000000000c2
:0e3b04000026954020100000a801c10f000c03
:203b1200000000000000000000000000000000000000000000000000000000000000000093
:0e3b320000369968e7000000c284a818000061
:203b4000000000000000000000000000000000000000000000000000000000000000000065
:0e3b60000026994024000000a801e1000000aa
:203b6e00000000000000000000000000000000000000000000000000000000000000000037
:0e3b8e000036916000000020c285e0000000bb
:203b9c00000000000000000000000000000000000000000000000000000000000000000009
:0e3bbc000826954000000000a800c00f000081
:203bca000000000000000000000000000000000000000000000000000000000000000000db
:0e3bea000036913a00030020c285a180000041
:203bf8000000000000000000000000000000000000000000000000000000000000000000ad
:0e3c180008269941c0000000a800e00000004e
:203c260000000000000000000000000000000000000000000000000000000000000000007e
:0e3c46000836913be0000000c285a718001070
:203c5400000000000000000000000000000000000000000000000000000000000000000050
:0e3c740000269f43c0000020a801c00f0000e2
:203c8200000000000000000000000000000000000000000000000000000000000000000022
:0e3ca20008369970001003008284d001000cd7
:203cb0000000000000000000000000000000000000000000000000000000000000000000f4
:0e3cd00000269940002c00049400d00800004b
:203cde000000000000000000000000000000000000000000000000000000000000000000c6
:0e3cfe0000369928028000000000000000003f
:203d0c00000000000000000000000000000000000000000000000000000000000000000097
:0e3d2c000a269f0004000000000000000000b6
:203d3a00000000000000000000000000000000000000000000000000000000000000000069
:0e3d5a0000369968000024003ba7b00000006e
:203d680000000000000000000000000000000000000000000000000000000000000000003b
:0e3d880020269b0002c051021deff500000036
:203d960000000000000000000000000000000000000000000000000000000000008000008d
:0e3db600007699214000030000000580000007
:203dc4000000000000000000000000000000000000000000000000000000000000f00000ef
:0e3de40000269f0362c0000000000080000067
:203df2000000000000000000000000000000000000000000000000000000000000000000b1
:0e3e1200007699280280000000000d002000bc
:203e2000000000000000000000000000000000000000000000000000000000000000000082
:0e3e400000269b434400000000000d0000001f
:203e4e000000000000000000000000000000000000000000000000000000000000800000d4
:0e3e6e0008369928000400000000070000003c
:203e7c000000000000000000000000000000000000000000000000000000000000700000b6
:0e3e9c0000269f400000000000000080000093
:203eaa0000000000000000000000000000000000000000000000000000040168010000008a
:0e3eca0008369961c003000000000d9c000046
:203ed800000000000000000000000000000000000000000000000000000002940f00000025
:0e3ef80000269b0000000000000007100000e4
:203f060000000000000000000000000000000000000000000000000000040009ea70000034
:0e3f26000036996800000000000ec000080080
:203f340000000000000000000000000000000000000000000000000000000003dd0000008d
:0e3f540000269f40000000010141b0004080a7
:203f620000000000000000000000000000000000000000000000000000000000000010002f
:0e3f8200002f0101c00003002bce180000002c
:203f9000000000000000000000000000000000000000000000000000000000000090f00091
:0e3fb000002f00000000002017c2b500000026
:203fbe000000000000000000000000000000000000000000000000000000083ce098000027
:0e3fde0000a0f700000000000000000000003e
:203fec000000000000000000000000000000000000000000000000000000083c2010000041
:0e400c000120f0000000000000000100000094
:20401a000000000000000000000000000000000000000000000000000000083cc000100171
:0e403a000020f3000010040000000000001041
:204048000000000000000000000000000000000000000000000000000000083c0000800094
:0e4068004120f0800000010000000000000474
:204076000000000000000000000000000000000000000000000000000000083cc000000026
:0e409600c120f78000000300000000000000c1
:2040a4000000000000000000000000000000000000000000000000000000083c00000000b8
:0e40c400c020f000000003000000000000001b
:2040d2000000000000000000000000000000000000000000000000000000083c400000004a
:0e40f200212a50000000004083c4000000009e
:204100000000000000000000000000000000000000000000000000000000083c200000003b
:0e4120000025a0340020000483c2000000002f
:20412e000000000000000000000000000000000000000000000000000000083c400190005c
:0e414e000020f383600000000000000000006d
:20415c000000000000000000000000000000000000000000000000000000083c200080005f
:0e417c001020f00140000000000000000000d4
:20418a000000000000000000000000000000000000000000000000000000083c60d9800810
:0e41aa000820f7000680000000000000000062
:2041b8000000000000000000000000000000000000000000000000000000083c001800107b
:0e41d8000120f00000000000000000000000c8
:2041e6000000000000000000000000000000000000000000000000000000083ce030000065
:0e4206001020f781e6c000000000000000005c
:204214000000000000000000000000000000000000000000000000000000083c0000000046
:0e4234000120f0802280000000000000000049
:204242000000000000000000000000000000000000000000000000000000083ce000000038
:0e426200c020f7836050030000000000000c35
:204270000000000000000000000000000000000000000000000000000000083c20000000ca
:0e4290001020f08142880000000000000000b5
:02429e0000001e
:0342a00072009019
:0242a300110305
:0242a500010115
:2042a7000000000000000000020000000000000800000000020000000000000800000000e3
:0e42c700000020000000000000800000000049
:2042d5000000000000000000010000000000000400000000010000000000000400000000bf
:0e42f5000000100000000000000000000000ab
:2043030000000000000000000000000000000000000000000000000000000000000000009a
:0e43230000000000000000000000000000008c
:2043310000000000000000000000000000000000000000000000000000000000000000006c
:0e43510000000000000000000000000000005e
:20435f0000000000000000000000000000000000000000000000000000000000000000003e
:0e437f00000000000000000000000000000030
:20438d00000000000000000000000000000000000000000000000000000000000000000010
:0e43ad00000000000000000000000000000002
:2043bb000000000000000000000000000000000000000000000000000000000000000000e2
:0e43db000000000000000000000000000000d4
:2043e9000000000000000000000000000000000000000000000000000000000000000000b4
:0e4409000000000000000000000000000000a5
:20441700000000000000000000000000000000000000000000000000000000000000000085
:0e4437000000000000000000008000000000f7
:20444500000000000000000000000000000000000000000000000000000000000000000057
:0e446500000000000000000000000000000049
:20447300000000000000000000000000000000000000000000000000000000000000000029
:0e44930000000000000000000000000000001b
:2044a1000000000000000000000000000000000000000000000000000000000000000000fb
:0e44c100000000000000000000c000000080ad
:2044cf000000000000000000000000000000000000000000000000000000000000000000cd
:0e44ef0000000000000000000000007000004f
:2044fd0000000000000000000000000000000000000000000000000000000000000000009f
:0e451d000000000000000000000000400080d0
:20452b00000000000000000000000000000000000000000000000000000000000000000070
:0e454b00000000000000000000002000000042
:20455900000000000000000000000000000000000000000000000000000000000000000042
:0e4579000000000000000000000000000040f4
:204587000030c0000000000000000000000000000000000000000000000000000000000024
:0e45a700000000000000000000000000000006
:2045b5001030c00000000000000000000000000000000000000000000000000000000000e6
:0e45d5000000000000000000000000000000d8
:2045e3000030c00000000000000000000000000000000000000000000000000000000000c8
:0e4603000000000000000000000000000000a9
:204611001030c0000000000000000000000000000000000000000000000000000000000089
:0e46310000000000000000000000000000007b
:20463f000030c000000000000000000000000000000000000000000000000000000000006b
:0e465f0000000000000000000000000000004d
:20466d001030c000000000000000000000000000000000000000000000000000000000002d
:0e468d0000000000000000000000000000001f
:20469b000030c000000000000000000000000000000000000000000000000000000000000f
:0e46bb000000000000000000000000000000f1
:2046c9001030c00000000000000000000000000000000000000000000000000000000000d1
:0e46e9000000000000000000000000000000c3
:2046f7000030c00000000000000000000000000000000000000000000000000000000000b3
:0e471700000000000000000000000000000094
:204725001030c0000000000000000000000000000000000000000000000000000000000074
:0e474500000000000000000000000000000066
:204753000030c0000000000000000000000000000000000000000000000000000000000056
:0e477300000000000000000000000000000038
:204781001030c0000000000000000000000000000000000000000000000000000000000018
:0e47a10000000000000000000000000000000a
:2047af000030c00000000000000000000000000000000000000000000000000000000000fa
:0e47cf000000000000000000000000000000dc
:2047dd001030c00000000000000000000000000000000000000000000000000000000000bc
:0e47fd000000000000000000000000000000ae
:20480b000030c000000000000000000000000000000000000000000000000000000000009d
:0e482b0000000000000000000000000000007f
:204839001030c000000000000000000000000000000000000000000000000000000000005f
:0e485900000000000000000000000000000051
:204867000030c0000000000000000000000000000000000000000000000000000000000041
:0e488700000000000000000000000000000023
:204895001030c0000000000000000000000000000000000000000000000000000000000003
:0e48b5000000000000000000000000000000f5
:2048c3000030c00000000000000000000000000000000000000000000000000000000000e5
:0e48e3000000000000000000000000000000c7
:2048f1001030c00000000000000000000000000000000000000000000000000000000000a7
:0e491100000000000000000000000000000098
:20491f000030c0000000000000000000000000000000000000000000000000000000000088
:0e493f0000000000000000000000000000006a
:20494d001030c000000000000000000000000000000000000000000000000000000000004a
:0e496d0000000000000000000000000000003c
:20497b000030c000000000000000000000000000000000000000000000000000000000002c
:0e499b0000000000000000000000000000000e
:2049a9001030c00000000000000000000000000000000000000000000000000000000000ee
:0e49c9000000000000000000000000000000e0
:2049d7000030c00000000000000000000000000000000000000000000000000000000000d0
:0e49f7000000000000000000000000000000b2
:204a05001030c0000000000000000000000000000000000000000000000000000000000091
:0e4a2500000000000000000000000000000083
:204a33000030c0000000000000000000000000000000000000000000000000000000000073
:0e4a5300000000000000000000000000000055
:204a61001030c0000000000000000000000000000000000000000000000000000000000035
:0e4a8100000000000000000000000000000027
:204a8f000030c0000000000000000000000000000000000000000000000000000000000017
:0e4aaf000000000000000000000000000000f9
:204abd001030c00000000000000000000000000000000000000000000000000000000000d9
:0e4add000000000000000000000000000000cb
:204aeb000030c00000000000000000000000000000000000000000000000000000000000bb
:0e4b0b0000000000000000000000000000009c
:204b19001030c000000000000000000000000000000000000000000000000000000000007c
:0e4b390000000000000000000000000000006e
:204b47000030c000000000000000000000000000000000000000000000000000000000005e
:0e4b6700000000000000000000000000000040
:204b75001030c0000000000000000000000000000000000000000000000000000000000020
:0e4b9500000000000000000000000000000012
:204ba3000030c0000000000000000000000000000000000000000000000000000000000002
:0e4bc3000000000000000000000000000000e4
:204bd1001030c00000000000000000000000000000000000000000000000000000000000c4
:0e4bf1000000000000000000000000000000b6
:204bff000030c00000000000000000000000000000000000000000000000000000000000a6
:0e4c1f00000000000000000000000000000087
:204c2d001030c0000000000000000000000000000000000000000000000000000000000067
:0e4c4d00000000000000000000000000000059
:204c5b000030c0000000000000000000000000000000000000000000000000000000000049
:0e4c7b0000000000000000000000000000002b
:204c89001030c000000000000000000000000000000000000000000000000000000000000b
:0e4ca9000000000000000000000000000000fd
:204cb7000030c00000000000000000000000000000000000000000000000000000000000ed
:0e4cd7000000000000000000000000000000cf
:204ce5001030c00000000000000000000000000000000000000000000000000000000000af
:0e4d05000000000000000000000000000000a0
:204d13000030c0000000000000000000000000000000000000000000000000000000000090
:0e4d3300000000000000000000000000000072
:204d41001030c0000000000000000000000000000000000000000000000000000000000052
:0e4d6100000000000000000000000000000044
:204d6f000030c0000000000000000000000000000000000000000000000000000000000034
:0e4d8f00000000000000000000000000000016
:204d9d001030c00000000000000000000000000000000000000000000000000000000000f6
:0e4dbd000000000000000000000000000000e8
:204dcb000030c00000002000000000000000000000000000000000000000000000000000b8
:0e4deb000000000000000000000000000000ba
:204df9001030c000000000000000000000000000000000000000000000000000000000009a
:0e4e190000000000000000000000000000008b
:204e270000000000000000000000000000000000000000000000000000000c3c20100000f3
:0e4e47000035a0240000000083c00000000021
:204e55000000000000000000000000000000000000000000000000000000083c4080000039
:0e4e7500c02a50000000030083c60580a00c78
:204e83000000000000000000000000000000000000000000000000000000083c00000020ab
:0e4ea3000020f0000000800083c20100020029
:204eb1000000000000000000000000000000000000000000000000000000083cc0000000dd
:0e4ed1000020f5000000000083c4080000006f
:204edf000000000000000000000000000000000000000000000000000000000000000000b3
:0e4eff000020f0804000000083c2010000008f
:204f0d00000000000000000000000000000000000000000000000000000000000000002064
:0e4f2d000020f3020600800083ce0800020080
:204f3b00000000000000000000000000000000000000000000000000000000000000000056
:0e4f5b000000000040000000c3c00000000085
:204f6900000000000000000000000000000000000000000000000000000000000001802087
:0e4f8900000000020000800083d60018020025
:204f97000000000000000000000000000000000000000000000000000000000000000000fa
:0e4fb7000020f08000000000c3c2000e0000c9
:204fc5000000000000000000000000000000000000000000000000000000000000180000b4
:0e4fe5000020f1000000002083de0019800093
:204ff3000000000000000000000000000000000000000000000000000000283c00008000ba
:0e5013004020f08002000100c3c00000000435
:205021000000000000000000000000000000000000000000000000000000083d40001000da
:0e5041008020f1000040020083cc0000000837
:20504f0000000000000000000000000000000000000000000000000000000c3c20000000d9
:0e506f004020f0800000010083c00008000413
:20507d000000000000000000000000000000000000000000000000000000083d600000016d
:0e509d000020f3800000040083d60001001004
:2050ab000000000000000000000000000000000000000000000000000000083c2050000031
:0e50cb000030f00240000000c3c200000000f0
:2050d9000000000000000000000000000000000000000000000000000000083de080000012
:0e50f9000020f3826000000083dc01800000d4
:20510700000000000000000000000000000000000000000000000000000000000000000088
:0e5127000020f0000000000092a4d50000005f
:2051350000000000000000000000000000000000000000000000000000000000000000005a
:0e515500c020f180068003009037d800000cc7
:205163000000000000000000000000000000000000000000000000000000083c00000020c8
:0e5183000035a020000080008b0da508020062
:205191000000000000000000000000000000000000000000000000000000083d4000000079
:0e51b100002a500406000000812fb801000003
:2051bf000000000000000000000000000000000000000000000000000000083c201000005c
:0e51df000020f00000000000bbc4d00d000056
:2051ed000000000000000000000000000000000000000000000000000000083ce0800020de
:0e520d000020f70006008000b977c58b000076
:20521b000000000000000000000000000000000000000000000000000000083c200000000f
:0e523b000025a039400000008b0ea0001400da
:205249000000000000000000000000000000000000000000000000000000083c40000020a1
:0e526900002a500600008000813db58c020036
:2052770000000000000000000000000000000000000000000000000000000c3c000080004f
:0e5297000030f0800000000093e4a1180040f9
:2052a5000000000000000000000000000000000000000000000000000000083c0000100095
:0e52c5000020f30000000000bbcfa81f000077
:2052d3000000000000000000000000000000000000000000000000000000083c00008000f7
:0e52f3004020f000040001000000000b000c41
:205301000000000000000000000000000000000000000000000000000000083d60001000d7
:0e5321008020f38002800200000003000008dc
:20532f00000000000000000000000000000000000000000000000000000000000008000056
:0e534f004020f00002000100bbc4f00000048a
:20535d000000000000000000000000000000000000000000000000000000000000500001df
:0e537d000020f50000400400b957d198001040
:20538b000000000000000000000000000000000000000000000000000000083c200000009e
:0e53ab000000000000000000bbcca0000000cd
:2053b9000000000000000000000000000000000000000000000000000000083c6018000018
:0e53d9000000000000000040b1ecf198000060
:2053e7000000000000000000000000000000000000000000000000000000000000000000a6
:0e54070000000000000000009400b00800004b
:20541500000000000000000000000000000000000000000000000000000000000000000077
:0e5435000000000000000000a94dc001000ca6
:20544300000000000000000000000000000000000000000000000000000000000000000049
:0e5463000000000000000000ab4cc10e000075
:2054710000000000000000000000000000000000000000000000000000000000000000001b
:0e5491000000000000000000a16e8801000075
:20549f000000000000000000000000000000000000000000000000000000000000000000ed
:0e54bf000000000000000000b2e4e009000060
:2054cd000000000000000000000000000000000000000000000000000000000000000000bf
:0e54ed000000000000000000b06dd19900002a
:2054fb00000000000000000000000000000000000000000000000000000000000000000091
:0e551b000000000000000000ab4fc08e00003a
:20552900000000000000000000000000000000000000000000000000000000000000000062
:0e5549000000000000000000a165a319000092
:20555700000000000000000000000000000000000000000000000000000000000000000034
:0e5577000000000000000000b2ecfd0b000080
:20558500000000000000000000000000000000000000000000000000000000000000000006
:0e55a5000000000000000000b04dc00000003b
:2055b3000000000000000000000000000000000000000000000000000000000000000000d8
:0e55d3000000000000000000ab4cc78800087c
:2055e1000000000000000000000000000000000000000000000000000000000000000000aa
:0e5601000000000000000000a16da5010008df
:20560f0000000000000000000000000000000000000000000000000000000000000000007b
:0e562f00000000000000000093dea0901804b0
:20563d0000000000000000000000000000000000000000000000000000000000000000004d
:0e565d0000000000000000008355c50a001088
:20566b0000000000000000000000000000000000000000000000000000000000000000001f
:0e568b000000000000100000ab4ec510000033
:205699000000000000000000000000000000000000000000000000000000000000000000f1
:0e56b9000000000000280000a16f898a000098
:2056c7000000000000000000000000000000000000000000000000000000000000000000c3
:0e56e7000000000020000004f8aff0000000fa
:2056f500000000000000000000000000000000000000000000000000000000000000000095
:0e571500c0000001e0000000a865a000000c2c
:205723000000000000000000000000000000000000000000000000010000000000108000d5
:0e5743000000000000100000b42ec90000009d
:205751000000000000000000000000000000000000000000000000028000000000819000a5
:0e5771000000000000280040b034881a00003c
:20577f0000000000000000000000000000000000000000000000000000000fe81f90000064
:0e579f0000000000000000000000019000006b
:2057ad0000000000000000000000000000000000000000000000000000000abd7c80000019
:0e57cd00000000000000000000000b8a000039
:2057db0000000000000000000000000000000000000000000000000000000000001000009e
:0e57fb000000000004000000b406eb0f0000e8
:205809000000000000000000000000000000000000000000000000000000000000800000ff
:0e5829000000000003800020b034801f00004b
:20583700000000000000000000000000000000000000000000000000000000000000000051
:0e585700000000002000000000000f00000014
:205865000000000000000000000000000000000000000000000000000000000000018000a2
:0e58850000000000e0000000000009800000ac
:20589300000000000000000000000000000000000000000000000000000048281000000075
:0e58b3000000000000000000000005000008da
:2058c100000000000000000000000000000000000000000000000000000018284e00000039
:0e58e100000000000000000000000018000c95
:2058ef0000000000000000000000000000000000000000000000000000000fe80f00000093
:0e590f00400000f000000020a175c008000458
:20591d0000000000000000000000000000000000000000000000000000000ebc4e00000151
:0e593d00000057e800000002a2f5a0010010d3
:20594b0000000000000000000000000000000000000000000000000000008fe80d000000b8
:0e596b000000000000000000d4008b080000c7
:2059790000000000000000000000000000000000000000000000000000000ebc4e000000f6
:0e5999000000000000080001bd4e880b000059
:2059a70000000000000000000000000000000000000000000000000000000fe81c0080004d
:0e59c700082cb9b448000000000000000000e9
:2059d50000000000000000000000000000000000000000000000000000000ebc5e18100062
:0e59f500c82c2f360000030000000000400008
:205a030000000000000000000000000000000000000000000000000000000fe81900000073
:0e5a2300003f00802000000000000f00000087
:205a310000000000000000000000000000000000000000000000000000000ebc5a018000b0
:0e5a5100002f07806000000000000800000029
:205a5f0000000000000000000000000000000000000000000000000000000bc0000000005c
:0e5a7f002000a0ac200000000000000020006d
:205a8d0000000000000000000000000000000000000000000000000000000c3c5a00000057
:0e5aad000000072d4000000000000000400037
:205abb0000000000000000000000000000000000000000000000000000000bc000010000ff
:0e5adb0000000001c3c0000000000000000039
:205ae90000000000000000000000000000000000000000000000000000000c3c5e01c00036
:0e5b090000000002000000000000000000008c
:205b170000000000000000000000000000000000000000000000000000000bc01010000083
:0e5b370000000001c00000000000008000809f
:205b450000000000000000000000000000000000000000000000000000000c3c4a818000ad
:0e5b65000000000000000000000005000040ed
:205b730000000000000000000000000000000000000000000000000000000bc01010000027
:0e5b930000000000000000000702bf0000003c
:205ba10000000000000000000000000000000000000000000000000000000c3c4a980000ba
:0e5bc10000000000068000100b1c1800000001
:205bcf0000000000000000000000000000000000000000000000000000000bc0005100009a
:0e5bef00400050c0000001200003b50040003f
:205bfd0000000000000000000000000000000000000000000000000000000c3c4e80a001d1
:0e5c1d0020005730600004000287a80000003d
:205c2b000000000000000000000000000000000000000000000000000000000240d0000047
:0e5c4b0000000000000000000000000000004b
:205c590000000000000000000000000000000000000000000000000000000402180000000d
:0e5c790000000000000000000000000000001d
:025c870000001b
:035c890072008026
:025c8c00110005
:035c8e0062002f82
:035c91008200008e
:025c940001030a
:065c960000000000000008
:065c9c0000000000000002
:065ca200000000000000fc
:065ca800000000000000f6
:065cae00000000000000f0
:065cb400000000000000ea
:065cba00000000000000e4
:065cc000000000000000de
:065cc600000000000000d8
:065ccc00000000000000d2
:065cd200000000000000cc
:065cd800000000000000c6
:065cde00000000000000c0
:065ce400000000000000ba
:065cea00000000000000b4
:065cf000000000000000ae
:065cf600000000000000a8
:065cfc00000000000000a2
:065d02000000000000009b
:065d080000000000000095
:065d0e000000000000008f
:065d140000000000000089
:065d1a0000000000000083
:065d20000000000000007d
:065d260000000000000077
:065d2c0000000000000071
:065d32000000000000006b
:065d380000000000000065
:065d3e000000000000005f
:065d440000000000000059
:065d4a0000000000000053
:065d50000000000000004d
:065d560000000000000047
:065d5c0000000000000041
:065d62000000000000003b
:065d680000000000000035
:065d6e000000000000002f
:065d740000000000000029
:065d7a0000000000000023
:065d80000000000000001d
:065d860000000000000017
:065d8c0000000000000011
:065d92000000000000000b
:065d980000000000000005
:065d9e00000000000000ff
:065da400000000000000f9
:065daa00000000000000f3
:065db000000000000000ed
:065db600000000000000e7
:065dbc00000000000000e1
:065dc200000000000000db
:065dc800000000000000d5
:065dce00000000000000cf
:065dd400000000000000c9
:065dda00000000000000c3
:065de000000000000000bd
:065de600000000000000b7
:065dec00000000000000b1
:065df200000000000000ab
:065df800000000000000a5
:065dfe000000000000009f
:065e040000000000000098
:065e0a0000000000000092
:065e10000000000000008c
:065e160000000000000086
:065e1c0000000000000080
:065e22000000000000007a
:065e280000000000000074
:065e2e000000000000006e
:065e340000000000000068
:065e3a0000000000000062
:065e40000000000000005c
:065e460000000000000056
:065e4c0000000000000050
:065e52000000000000004a
:065e580000000000000044
:065e5e000000000000003e
:065e640000000000000038
:065e6a0000000000000032
:065e70000000000000002c
:065e760000000000000026
:065e7c0000000000000020
:065e82000000000000001a
:065e880000000000000014
:065e8e000000000000000e
:065e940000000000000008
:065e9a0000000000000002
:065ea000000000000000fc
:065ea600000000000000f6
:065eac00000000000000f0
:065eb200000000000000ea
:065eb800000000000000e4
:065ebe00000000000000de
:065ec400000000000000d8
:065eca00000000000000d2
:065ed000000000000000cc
:065ed600000000000000c6
:065edc00000000000000c0
:065ee200000000000000ba
:065ee800000000000000b4
:065eee00000000000000ae
:065ef400000000000000a8
:065efa00000000000000a2
:065f00000000000000009b
:065f060000000000000095
:065f0c000000000000008f
:065f120000000000000089
:065f180000000000000083
:065f1e000000000000007d
:065f240000000000000077
:065f2a0000000000000071
:065f30000000000000006b
:065f360000000000000065
:065f3c000000000000005f
:065f420000000000000059
:065f480000000000000053
:065f4e000000000000004d
:065f540000000000000047
:065f5a0000000000000041
:065f60000000000000003b
:065f660000000000000035
:065f6c000000000000002f
:065f720000000000000029
:065f780000000000000023
:065f7e000000000000001d
:065f840000000000000017
:065f8a0000000000000011
:065f90000000000000000b
:025f9600000009
:035f980082008004
:025f9b00010300
:065f9d00000000000000fe
:065fa300000000000000f8
:065fa900000000000000f2
:065faf00000000000000ec
:065fb500000000000000e6
:065fbb00000000000000e0
:065fc100000000000000da
:065fc700000000000000d4
:065fcd00000000000000ce
:065fd300000000000000c8
:065fd900000000000000c2
:065fdf00000000000000bc
:065fe500000000000000b6
:065feb00000000000000b0
:065ff100000000000000aa
:065ff700000000000000a4
:065ffd000000000000009e
:0660030000000000000097
:0660090000000000000091
:06600f000000000000008b
:0660150000000000000085
:06601b000000000000007f
:0660210000000000000079
:0660270000000000000073
:06602d000000000000006d
:0660330000000000000067
:0660390000000000000061
:06603f000000000000005b
:0660450000000000000055
:06604b000000000000004f
:0660510000000000000049
:0660570000000000000043
